:020000040800F2
:10000000A01700200101000847250008791F0008FB
:1000100045250008610900088D290008000000003E
:10002000000000000000000000000000B7260008EB
:100030006309000800000000792600088D270008E9
:100040001B0100081B0100081B0100081B01000820
:100050001B0100081B0100081B0100081B01000810
:100060001B0100081B0100081B0100081B01000800
:100070001B0100081B0100081B0100081B010008F0
:100080001B0100081B0100081B0100081B010008E0
:100090001B0100081B0100081B010008650900087E
:1000A0001B0100081B0100081B0100081B010008C0
:1000B0001B010008F12700081B0100081B010008B4
:1000C0001B0100081B0100081B0100081B010008A0
:1000D0001B0100081B0100081B0100081B01000890
:1000E0001B0100081B0100081B010008DFF80CD0F1
:1000F00000F0DEFB00480047D94D0008A0170020A3
:100100000648804706480047FEE7FEE7FEE7FEE7B1
:10011000FEE7FEE7FEE7FEE7FEE7FEE7EF27000863
:10012000ED000008202A04DB203A21FA02F0002129
:10013000704721FA02F3D040C2F1200291400843F7
:1001400019467047D2B201E000F8012B491EFBD2DC
:1001500070470022F6E710B513460A4604461946D2
:10016000FFF7F0FF204610BD421E12F8013F002BA2
:10017000FBD111F8013B02F8013B002BF9D170478C
:10018000421C10F8011B0029FBD1801A704730B5C2
:1001900004460020034600E05B1C934203D2E05C6F
:1001A000CD5C401BF8D030BD034611F8012B00F8A0
:1001B000012B002AF9D11846704730B480EA0102B9
:1001C00002F0004530F0004221F0004013D090B121
:1001D000C30DD40DC2F31601C0F31600E41A41F4A6
:1001E000000140F400027D34914201D3641C00E020
:1001F0004900002C02DA30BC002070474FF40000A8
:100200000023914201D3891A034340084FEA410178
:10021000F7D151B1914202D14FF0004105E002D235
:100220004FF0010101E06FF0010103EBC4502844DD
:1002300030BC00F078BA2DE9FE4F804681EA030019
:10024000C00F0C46009021F0004123F00045B8EBB0
:100250000200A94105D24046214690461C460B4665
:10026000024623F00040104347D0270DC7F30A0091
:10027000C3F30A510290401A019040286BDAC3F38D
:10028000130040F4801B0098924620B10023D2EB6B
:10029000030A63EB0B0B01985946C0F1400250462C
:1002A00000F020FA06460D4650465946019A00F0E5
:1002B00028FA10EB08006141002487EA115284EA11
:1002C000E7731A4340D0009A62B3019A012A4FEAB9
:1002D000075215DC001B61EB02014FF0004202EAFD
:1002E0000752CDE90042001C41F5801132462B46F1
:1002F00000F05FFA03B0BDE8F08F40462146F9E711
:10030000001B61EB0201001C41F5801300185B41EA
:100310002018A2F5001747EB030140EAD570B61983
:100320006D4111E06D084FEA360645EAC0754FEAA7
:100330000752001B61EB0201001C41F580114908C6
:100340004FEA30000019514132462B4603B0BDE858
:10035000F04F00F01FBA0098012240000023D0EBBC
:10036000020263EBE073009821464FEAE074B8EBB9
:10037000000061EB0401E9E783F000435BE781F0F3
:10038000004158E72DE9FE4F81EA030404F00044E0
:1003900021F0004100944FF0000B23F0004350EA9D
:1003A00001045ED052EA03045BD0C3F30A54C1F3E4
:1003B0000A552C44A4F2F3340194A0FB0254C1F377
:1003C000130141F48011C3F3130343F4801301FBC1
:1003D000024400FB034E840A970A44EA815447EA28
:1003E0008357A4FB076802958D0A05FB07854FEA32
:1003F000932C04FB0C542705029D4FEA065847EA4C
:100400001637B5EB08056EEB070C870E920E47EA20
:10041000811742EA8312A7FB0201B6EB0B0164EBE2
:1004200000042B0D43EA0C335E1844EB1C50DA46F3
:100430005146E7FB0201C5F313044FEA0B3343EACD
:1004400014534FEA0432019C43EA0603A4F10C045E
:100450000294009CCDE900B400F0ABF903B0BDE814
:10046000F08F00200146F9E72DE9F04D81EA030401
:1004700004F0004B21F0004514464FF0000A23F031
:10048000004150EA050220D054EA01021DD0C5F314
:100490000A570246C5F31303C1F31300C1F30A560A
:1004A00040F4801543F48013A7EB0608101BD646D2
:1004B00008F2FD3873EB050002D308F1010801E0F2
:1004C00092185B41B8F1000F03DA00200146BDE845
:1004D000F08D00204FF48011064684460EE0171B75
:1004E00073EB050705D3121B63EB050306434CEAC8
:1004F000010C49084FEA300092185B4150EA0107AD
:10050000EDD152EA030012D082EA040083EA050129
:10051000084305D0101BAB4106D20122002306E0A0
:1005200000224FF0004302E06FF0010253101AEB7B
:1005300006004CEB085110EB0A0041EB0B01BDE843
:10054000F04D00F027B970B521F0004303430CD003
:10055000C1F30A550024D5EB040564EB0403D61758
:10056000AD1AB34102DB0020014670BD201841EBFB
:10057000025170BD96230022114600F0DDB80EB581
:10058000C10F80EAE0700844CA07002140F23343FB
:100590008DE80E000A460B4600F00BF903B000BDD3
:1005A0000EB540F2334102910021CDE900110A4617
:1005B0000B4600F0FEF803B000BD70B5C1F30A525F
:1005C00001F000450024C1F3130140F2FF3341F470
:1005D00080119A4201DA002070BD40F233439A4202
:1005E000A2F2334203DC5242FFF79CFD00E0904050
:1005F0002C43F1D0404270BD00F0004230F000408A
:100600000AD0C10D01F56071C0F3160042EA015134
:10061000C20840071143704700200146704701F0AF
:10062000004330B421F0004150EA010206D00A0D27
:10063000A2F56072C1F31301002A02DC30BC002075
:100640007047440F44EAC104C100E01830BC00EB1D
:10065000C25000F068B830B50B4601460020202299
:10066000012409E021FA02F59D4205D303FA02F5BF
:10067000491B04FA02F52844151EA2F10102F1DC1F
:1006800030BD2DE9F05F0546002092469B46884626
:100690000646814640241BE02846414647462246FE
:1006A000FFF740FD53465A46C01A914110D31146F8
:1006B0001846224600F016F82D1A67EB01084F463F
:1006C00022460120002100F00DF817EB00094E41F1
:1006D000201EA4F10104DFDC484631462A46434689
:1006E000BDE8F09F202A04DB203A00FA02F1002046
:1006F00070479140C2F1200320FA03F31943904060
:100700007047202A06DBCB17203A41FA02F043EA71
:10071000E07306E041FA02F3D040C2F120029140BA
:100720000843194670470029A8BF7047401C49007C
:1007300008BF20F00100704710B4B0FA80FC00FA46
:100740000CF050EA010404BF10BC704749B1CCF171
:10075000200421FA04F411FA0CF118BF01212143FD
:100760000843A3EB0C01CB1D4FEA00614FEA1020B8
:1007700042BF002010BC704700EBC350104400295A
:10078000A4BF10BC7047401C490008BF20F0010006
:1007900010BC704710B5141E73F1000408DA401C39
:1007A00041F1000192185B411A4301D120F0010090
:1007B00010BD2DE9F04D92469B4611B1B1FA81F280
:1007C00002E0B0FA80F220329046FFF78BFF044639
:1007D0000F4640EA0A0041EA0B0153465A460843D5
:1007E00013D0114653EA010019D0C8F14002504617
:1007F000FFF798FC05460E46504659464246FFF71D
:1008000071FF084305D0012004E020463946BDE8C9
:10081000F08D0020054346EAE0762C4337430A98E2
:100820006305E40AA0EB08000022FD0A44EA4754ED
:100830000A3002D500200146E9E701051019694197
:10084000DDE9084500196941BDE8F04DA2E7C1F3B3
:100850000A52C1F3130140F2FF3341F480119A426E
:1008600002DA00200146704740F233439A42A2F276
:10087000334202DC5242FFF755BCFFF733BF0000A2
:1008800030B5041E71F1000404DB4FF00044404217
:1008900064EB0101141E73F1000405DB1C464FF0EC
:1008A0000043524263EB0403994208BF904230BDBB
:1008B000064C074D06E0E06840F0010394E80700AD
:1008C00098471034AC42F6D3FFF714FC18850008A3
:1008D0003885000870B58C1810F8015B15F0070317
:1008E00001D110F8013B2A1106D110F8012B03E0C9
:1008F00010F8016B01F8016B5B1EF9D12B0705D4D1
:100900000023521E0DD401F8013BFAE710F8013B19
:10091000CB1A921C03E013F8015B01F8015B521E35
:10092000F9D5A142D8D3002070BD000007490020AE
:1009300000EB40020A449278120601D5012070476C
:10094000401CC0B20528F3D300207047C40000202B
:1009500000F00F01000900EB800001EB4000704740
:10096000FEE77047402000F091B972B6FEE7000044
:1009700006490020C8610648016941F0040101618F
:10098000016941F04001016170470000C00600208C
:1009900000200240064A0021D16106490A6942F05E
:1009A00002020A614861086940F04000086170472E
:1009B000C006002000200240044B0022DA61044AF5
:1009C000136943F00103136101807047C0060020E2
:1009D0000020024014480022C168CB06134904D508
:1009E000CA6942F00202CA611022C3685B0705D5DA
:1009F000CB6943F00103CB6142F00402C369DB071A
:100A000007D0CB6943F00403CB61C16921F0010138
:100A1000C161A2F58071013901D0C2607047C1691E
:100A200021F00101C161704700200240C006002092
:100A300070B5054600F030FA0646114C09E0681C16
:100A400007D025B100F028FA801BA84201D9032065
:100A500070BDE068C007F2D1E068800601D52020B3
:100A6000E060E068C00605D4E069C00702D1E06834
:100A7000400703D5FFF7AEFF012070BD002070BD19
:100A80000020024070B5044600F006FA0546601CDE
:100A900002D004480078044400F0FEF9401BA04254
:100AA000FAD370BDA00000202DE9F0470546264886
:100AB0000F460126017E01290FD0012181460176D2
:100AC0002868DFF888804CF25034022808D0A2460B
:100AD0002046FFF7ADFFA8B131E00220BDE8F08766
:100AE0002046FFF7A5FF08BB0120FFF741FF204686
:100AF000FFF79EFFD8F81010064621F00401C8F851
:100B000010101CE04FF0FF303860AC6811E0204658
:100B1000FFF740FF5046FFF78BFFD8F81010060094
:100B200021F00201C8F8101001D03C6007E004F584
:100B30008064D5E9020100EB8120A042E7D80021C2
:100B400089F818103046C9E7C0060020002002408E
:100B50000348016941F080010161002070470000F5
:100B6000002002402DE9F05F07461C48884600241B
:100B7000017E15461E46012909D0012181460176D4
:100B80004CF2503A5046FFF753FF18B122E00220D2
:100B9000BDE8F09F012F02D0022F00D00427D346DA
:100BA000DFF83CA0220128463146FFF7BBFA81B2AC
:100BB00008EB4400FFF700FF5846FFF739FFDAF86B
:100BC000102022F00102CAF8102018B9641CE4B207
:100BD000BC42E7D3002289F81820D9E7C0060020DC
:100BE00000200240064900200A69120607D5054A7E
:100BF0004A60054A4A600969090600D50120704724
:100C00000020024023016745AB89EFCD70B51A4E35
:100C100005464021304600F035F904462021304693
:100C200000F030F9402D26D114494FF000050A7824
:100C300054EA02034FF0010203D14D7000B14A7033
:100C40000A70012C17D10B78012B14D100280C4B02
:100C50000C4C0D4E487801D038B10BE0012809D179
:100C60001868401E1860227003E01868401C186065
:100C7000257032700D7070BD000801400400002026
:100C8000E4000020D4000020D5000020044910B565
:100C90000A68024202D00860FFF7B8FF10BD0000EA
:100CA000140401402DE9F84FDFF8B891002409F150
:100CB000040A0AF1040B23460F270BF1040EC9E0C6
:100CC0000125A5402A40AA427DD1674ED1F804C033
:100CD000ACEB0608B44532D014DCBCF1030F3AD0BB
:100CE00009DCBCF1000F2AD0BCF1010F1CD0BCF113
:100CF000020F31D11DE0BCF1110F17D0BCF1120F62
:100D00002AD119E0B8F5881F19D006DCB8F5803F64
:100D100015D0B8F5801F1FD111E0B8F5001F0ED017
:100D2000B8F5041F18D10AE0CB6815E0CB681B1D8D
:100D300012E0CB6808330FE0CB680C330CE08B6813
:100D40002BB1012B4FF0080303D0456104E00423CD
:100D500002E0056100E00023FF2A01D8064601E019
:100D600000F104064FEA840501D9A5F12005D6F863
:100D7000008007FA05FC28EA0C0803FA05F548EAA2
:100D80000508C6F800804D68ED0062D5374DAE69A4
:100D900046F00106AE61AD6924F0030605F00105D9
:100DA0000095334D06EB050CDCF80850A607360F0E
:100DB00007FA06F825EA0805DFF8B880404503D1B0
:100DC0004FF0000817E044E0DFF8AC80404502D166
:100DD0004FF001080FE0DFF8A480404502D14FF04A
:100DE000020808E0DFF89880404502D14FF0030880
:100DF00001E04FF0040808FA06F848EA0508CCF8C4
:100E000008804D68D9F80060ED034D4601D51643C2
:100E100000E096432E604D68DAF80060AD03554659
:100E200001D5164300E096432E604D68DBF8006064
:100E3000ED025D4601D5164300E096432E604D68F5
:100E4000DEF80060AD02754601D5164300E096431A
:100E50002E60641C0D682A46E5407FF431AFBDE882
:100E6000F88F000000040140000011100010024043
:100E70000000014000080140000C0140001001404A
:100E8000001401408068084000D0012070470AB17A
:100E9000016170470904FBE7014880687047000062
:100EA000A000002070B5040025D094F83D00002576
:100EB00020B984F83C50204600F078FA242084F8C9
:100EC0003D002068016821F001010160206801688F
:100ED00041F4004101602068016821F40041016093
:100EE00000F0BEFB4D4A6168914201D84C4900E0D8
:100EF0004C49884201D2012070BD4B492368B0FBA8
:100F0000F1F15E6826F03F060E435E60636893422F
:100F100006D94FF4967359434FF47A73B1FBF3F14A
:100F20002368491C1E6A26F03F0631431962616836
:100F3000914210D84900401EB0FBF1F2521CC2F39E
:100F40000B02042A01D2042022E0B0FBF1F0401C85
:100F5000C0F30B001CE0A268F2B301EBC10303EB8A
:100F60000116431EB3FBF6F35B1C43F480431B05E1
:100F700049D092B301EBC10202EB0111401EB0FB5C
:100F8000F1F0401CC0F30B0040F4804040F40040FE
:100F90002168CA694CF6FF739A431043C861D4E9CB
:100FA000071001432068026822F0C002114301606B
:100FB000D4E9030101432068826848F2FF339A4371
:100FC00011438160D4E9050108432168CA6822F011
:100FD000FF021043C86001E00EE016E020680168DF
:100FE00041F0010101602564202084F83D00256363
:100FF00084F83E50002070BD01EB4106431EB3FB58
:10100000F6F35B1CB3E70120C2E701EB4101401E90
:10101000B0FBF1F0401CC0F30B00B7E7A086010065
:1010200080841E0000093D0040420F002DE9FF4F63
:1010300083B00025DDE910799A4693460446DDF831
:1010400048800095FFF728FF064694F83D002028C9
:101050007CD11923012285492046009601F09CF895
:101060000028F5D194F83C0001286FD0012084F8C5
:101070003C0020680168C90703D1016841F0010103
:1010800001602068016821F400610160222084F879
:101090003D00402084F83E0025646762A4F82A9051
:1010A000608D20857248E062CDE9008653465A463D
:1010B0002046049900F078FF00287DD1208DDFF8CC
:1010C000B491202768B1012814D002282068016853
:1010D0001ED041F480610160206841698069009000
:1010E000B6E02068416981690091016841F40071AE
:1010F0000160ADE02068016821F48061016072B692
:101100002068416981690091016841F400710AE039
:1011100041F40061016072B6206841698169009103
:10112000016821F48061016062B691E0032868D80B
:1011300001280CD0022843464FF0000249462046C1
:1011400000960FD001F028F8B0BB10E08BE03246DB
:101150004146204601F09FF870BB20680069616A33
:1011600008706CE001F018F830BB72B634E020680B
:10117000016821F48061016072B620680069616ACB
:101180000870606A401C6062208D401E2085608D62
:10119000401E6085384846F2A8110068B0FBF1F0A7
:1011A000C0EBC00000EB80000090401E009008D013
:1011B00020684069C04300E029E040070CD5009852
:1011C000F3E744F8305F6773A573206940F02000AF
:1011D000206162B625731AE02068016841F400714D
:1011E000016020680069616A0870606A401C606282
:1011F000218D491E2185618D491E618562B6216858
:101200001BE032464146204601F045F818B1012066
:1012100007B0BDE8F08F20680069616A0870606AF5
:10122000401C6062218D491E2185618D491E6185AA
:1012300021684A69D24352070AD409690170606A79
:10124000401C6062208D401E2085608D401E6085A0
:10125000208D00287FF46AAF84F83D7084F83E50FA
:1012600084F83C50D4E70220D2E7000002001000CE
:101270000000FFFF04000100AC0000202DE9FF4F3B
:1012800083B09A46DDE9119793460446DDF8408025
:10129000FFF702FE054694F83D0020287FD1192370
:1012A000012240492046009500F076FF002876D1C3
:1012B00094F83C00012872D0012084F83C0020689A
:1012C0000168C90703D1016841F00101016020688C
:1012D000016821F400610160212084F83D00402074
:1012E00084F83E0000262664C4F82480A4F82A90DE
:1012F000608D20852C48E062CDE9007553465A4642
:101300002046049900F0CEFE70B930E02A463946F6
:10131000204600F0F3FF58B1206C042804D1206867
:10132000016841F400710160012007B0BDE8F08F51
:10133000606A216800780861606A401C6062218DE3
:10134000491E89B22185628D521E628522685369C9
:10135000DB435B070BD469B100781061606A401C05
:101360006062208D401E2085608D401E6085208D2E
:101370000028CBD12A463946204600F0E7FE002857
:10138000CAD154F83D0B016841F40071016020207E
:1013900004F81E09E67766770020C6E7FFE702201B
:1013A000C3E70000020010000000FFFF10B586B088
:1013B0000021009101910291039100680F49884238
:1013C0001AD10F4CA06940F00800A061A0696946DD
:1013D00000F008000490C02000901220019003202B
:1013E00003900848FFF75EFCE06940F40010E061FC
:1013F000E06900F40010049006B010BD00540040F5
:1014000000100240000C014002488168027811443B
:1014100081607047A0000020074810B5016841F0C6
:1014200010010160032000F073F80F2000F006F8AF
:1014300000F024F8002010BD0020024070B50D4DD2
:1014400004464FF47A712878B1FBF0F00A49096834
:10145000B1FBF0F000F0EAFA48B9102C07D20022F4
:101460002146501E00F034F800206C6070BD012051
:1014700070BD0000A0000020AC0000200B4808B5A3
:10148000816941F001018161816901F001010091EF
:10149000C16941F08051C161C06900F08050009085
:1014A0000348416821F0E061416008BD001002403E
:1014B00000000140002809DB00F01F0201219140DB
:1014C0004009800000F1E020C0F8001170470000E2
:1014D000F0B40E4B1B680C46C3F30223C3F107059F
:1014E000042D00D90425191D072901D2002300E08D
:1014F000DB1E012606FA05F1491E214099409E4057
:10150000761E16403143F0BC01F084BA0CED00E0C9
:10151000064900F0070208684FF6FF03184040EA4A
:101520000220034A10430860704700000CED00E001
:101530000000FA052DE9F0470F46050061D0434E43
:10154000306800F00700B84209D2306820F0070088
:1015500038433060306800F00700B84251D1286845
:101560003B4C810712D5400703D5606840F4E0602A
:1015700060602878000703D5606840F460506060C0
:101580006068A96820F0F000084360602878C00710
:1015900028D06868012810D02168022810D0890757
:1015A00000292EDA616821F0030101436160FFF731
:1015B00073FC804641F288390DE021688903EFE72A
:1015C0008901EDE7FFF768FCA0EB0801494502D966
:1015D0000320BDE8F0876068696800F00C00B0EB9C
:1015E000810FEFD1306800F00700B8420BD93068A6
:1015F00020F0070038433060306800F00700B84240
:1016000001D00120E5E72878400705D56068E96842
:1016100020F4E060084360602878000706D5606821
:10162000296920F4605040EAC100606000F038F899
:101630006168084AC1F30311515CC840064908605B
:1016400006480068FFF7FAFE0020C2E700200240CB
:1016500000100240EE6C0008AC000020A400002046
:101660000448054900684968044AC1F30221515CF5
:10167000C8407047AC00002000100240FE6C00081B
:101680000448054900684968044AC1F3C221515C15
:10169000C8407047AC00002000100240FE6C0008FB
:1016A00012A185B00FC98DE80F0014A0144A00687C
:1016B00004905168134801F00C03042B10D0082B40
:1016C0000ED1C1F38343C9031DF803000AD5516845
:1016D00004AAC1F34041515C0A4A5043B0FBF1F007
:1016E00005B0704708494843FAE7000002030405C3
:1016F000060708090A0B0C0D0E0F1010010200005E
:101700000010024000127A0000093D002DE9F84F58
:10171000040070D02078C04DC00749D06868C0F37D
:101720008100012807D06868C0F38100022809D130
:101730006868C00306D52868800339D5606800282A
:10174000E7D035E06068B0F5803F0BD010B1B0F560
:10175000A02F11D0286820F480302860286820F459
:10176000802002E0286840F480302860606890B1F2
:10177000FFF792FB06460AE0286840F480202860C4
:10178000F0E700BFFFF788FB801B642873D8286848
:101790008003F7D50CE0FFF77FFB064605E000BFAE
:1017A000FFF77AFB801B6428F0D828688003F7D401
:1017B00020789A4E80074FF001094FF0000839D584
:1017C000686810F00C0F07D06868C0F38100022829
:1017D00009D16868C00306D42868800714D5206939
:1017E000012808D110E02069B0B1C6F80090FFF7D9
:1017F00053FB074605E00AE1FFF74EFBC01B02283A
:10180000C4D828688007F7D52868616920F0F800F7
:1018100040EAC10028600DE0C6F80080FFF73CFBFD
:10182000074604E0FFF738FBC01B022823D82868CE
:101830008007F7D4207800072CD57948A169D9B161
:10184000C0F80090FFF728FB074604E0FFF724FBF1
:10185000C01B02280FD8686A8007F7D571484FF47B
:10186000FA510068B0FBF1F0009000BF0098411EF3
:101870000091FAD20EE080E0C0F80080FFF70CFB88
:10188000074604E0FFF708FBC01B022875D8686A0A
:101890008007F7D42078400760D5E8690027C000AA
:1018A00008D4E86940F08050E861E869012700F059
:1018B000805000905C480168C90513D401688346D4
:1018C00041F480710160FFF7E7FA824606E000BF4D
:1018D000FFF7E2FAA0EB0A0064284ED8DBF800001C
:1018E000C005F5D5E06801280AD008B1052813D055
:1018F000286A20F001002862286A20F0040002E033
:10190000286A40F001002862E06841F2883B98B103
:10191000FFF7C2FA82460BE0286A40F00400286212
:10192000EEE700BFFFF7B8FAA0EB0A0159455AD815
:10193000286A8007F6D50CE0FFF7AEFA824605E08C
:10194000FFF7AAFAA0EB0A0159454CD8286A80078C
:10195000F6D41FB1E86920F08050E861E06988B3EF
:101960006968C1F38101022944D00228C6F8608069
:1019700004D0FFF791FA044638E034E0FFF78CFA20
:10198000074604E0FFF788FAC01B02282BD8286816
:101990008001F7D4206AB0F5803F05D16868A1685E
:1019A00020F4003008436860D4E9080108436968FE
:1019B00021F4741108436860C6F86090FFF76CFA70
:1019C000044606E025E000BFFFF766FA001B022888
:1019D00009D828688001F7D51BE000BFFFF75CFA43
:1019E000001B022802D90320BDE8F88F2868800177
:1019F000F4D40EE00128F7D06868226A00F4803140
:101A0000914204D1616A00F47010884201D0012033
:101A1000EAE70020E8E70000001002400000424230
:101A200080044242AC0000200070004010B5401E0F
:101A3000B0F1807F01D3012010BD4FF0E024606140
:101A40000F21601700F0E6FF0020A0610720206151
:101A5000002010BD7047704770B590F83C20012AF7
:101A600026D0012480F83C40022280F83D20036803
:101A70005A689D6822F070060A6832435A600D4B1E
:101A800002689A4208D0B2F1804F05D00A4B9A42C0
:101A900002D00A4B9A4204D1496825F080031943C9
:101AA000916080F83D40002180F83C10084670BDF0
:101AB000022070BD002C01400004004000080040DE
:101AC00010B5040003D094F83D0010B107E00120E8
:101AD00010BD002084F83C00204600F01FF80220D2
:101AE00084F83D00211D206800F088FE012084F864
:101AF000460084F83E0084F83F0084F8400084F8F3
:101B0000410084F8420084F8430084F8440084F8DB
:101B1000450084F83D00002010BD000008B50068B5
:101B20000B49884212D10B48C16941F00201C161E1
:101B3000C069002200F00200009011461D20FFF74E
:101B4000C7FCBDE808401D20FFF7B4BC08BD00007D
:101B5000000400400010024090F83D10012901D01F
:101B600001207047022180F83D100168CA6842F0E8
:101B70000102CA6000680B49884208D0B0F1804F6A
:101B800005D00949884202D00849884204D18168B9
:101B900001F00701062903D0016841F0010101604D
:101BA00000207047002C0140000400400008004065
:101BB00070B5044690F83C00012817D0012584F840
:101BC0003C50022084F83D002068826822F07702B1
:101BD00022F47F4282600868502830D00DDC202833
:101BE0004DD005DC98B310283BD148E0022070BDF1
:101BF000302844D0402834D139E0602828D07028DB
:101C000006D0B0F5805F2CD0B0F5005F29D10AE096
:101C1000CB68D1E90121206800F026FE20688168A8
:101C200041F0770109E0CB68D1E90121206800F09B
:101C30001BFE2068816841F48041816011E0CA6820
:101C40004968206800F022FE5021206807E016E075
:101C5000CA684968206800F02AFE6021206800F008
:101C60000DFE84F83D50002084F83C0070BDCA6829
:101C70004968206800F00AFE40212068EFE72268EA
:101C800001461046EBE7704770B5044600680169ED
:101C90004FF00005C943890715D4C168C9438907B6
:101CA00011D4E91E01610120207720688069800736
:101CB000204602D0FFF7E7FF04E000F098F8204646
:101CC00000F096F8257720680169C943490717D4C1
:101CD000C168C943490713D46FF0040101610220B0
:101CE00020772068806910F4407F204602D0FFF7FB
:101CF000CAFF04E000F07BF8204600F079F8257771
:101D000020680169C943090716D4C168C943090796
:101D100012D46FF008010161042020772068C069A7
:101D20008007204602D0FFF7AEFF04E000F05FF826
:101D3000204600F05DF8257720680169C943C9068F
:101D400017D4C168C943C90613D46FF010010161EB
:101D5000082020772068C06910F4407F204602D018
:101D6000FFF791FF04E000F042F8204600F040F851
:101D7000257720680169C943C90708D1C168C943EB
:101D8000C90704D1891E0161204600F033F820689C
:101D90000169C943090609D4C168C943090605D4C4
:101DA0006FF0800101612046FFF754FE2068016951
:101DB000C943490609D4C168C943490605D46FF02F
:101DC00040010161204600F04FF820680169C943D5
:101DD00089060BD4C168C943890607D46FF0200176
:101DE00001612046BDE87040FFF735BE70BD704709
:101DF0007047000030B51848C8228168491CB1FB03
:101E0000F2F302FB1313012281600BB9134B1A701A
:101E100083784FF47A746343B1FBF3F403FB14113A
:101E200001B94270C178027901EB4101B2EB410F77
:101E300010D9002202710B4C0178094B04EB0114FC
:101E4000491C9D7825705B78C9B2637001700B29BD
:101E500000D9027030BD0000940000203101002044
:101E6000320100204C0B0020704770B5040004D0F4
:101E700094F83D00002510B106E0012070BD84F803
:101E80003C50204600F022F8242084F83D002068D1
:101E9000C16821F40051C160204600F01BFD20689C
:101EA000016921F4904101612068416921F02A0112
:101EB00041612068C16841F40051C160256420205F
:101EC00084F83D0084F83E00002070BD70B586B0F7
:101ED00000240094019402940394234E0368234940
:101EE00002200322224DB34219D18B6943F480436F
:101EF0008B618B6903F4804304938B6943F0040383
:101F00008B618969039201F0040104910102CDE91A
:101F1000001069462846FEF7C5FE28151BE0154E41
:101F2000B3421FD1CB6943F40033CB61CB6903F4D7
:101F3000003304938B6943F004038B618969039236
:101F400001F0040104910421CDE9001069462846FE
:101F5000FEF7A8FE0820CDE9000469462846029451
:101F6000FEF7A0FE06B070BD003801400010024030
:101F70000008014000440040FEE701684A69D2437E
:101F800052050FD46FF480624A61002140F8301F7F
:101F9000202242738173026942F0040202610173DC
:101FA00001207047002070472DE9F84F0446006873
:101FB00089460B9D01689846174641F4806101608F
:101FC0002068016841F48071016000954FF0011BA9
:101FD0000022594620460A9B00F0DEF84FF4007AB2
:101FE00040B120680068C00501D5C4F840A00320B6
:101FF000BDE8F88F216809F0FE0008612B462849EA
:1020000020460A9A00F0FCF8F0BB2068416980691C
:1020100000902A4620460A9900F070F940B1206CE1
:1020200004283AD12068016841F40071016034E06D
:10203000FEB2B8F1010F09D02168380A08612A46BA
:1020400020460A9900F05AF90028E8D12068066174
:102050002A4620460A9900F051F90028DFD120686D
:10206000016841F4807101600095002259462046C4
:102070000A9B00F091F80028B3D1216809F0FF0015
:1020800040F00100086100E007E02B4604492046CB
:102090000A9A00F0B5F80028AAD00120A8E70000AD
:1020A000020001002DE9F843044600680D46DDE911
:1020B000089701689846164641F4807101604B46C6
:1020C00000224FF001112046009700F065F848B15A
:1020D00020680068C00502D54FF40070206403201A
:1020E000BDE8F883216805F0FE0008613B464A46DA
:1020F0001549204600F084F888B920684169806954
:1021000000903A464946204600F0F8F848B1206C65
:10211000042804D12068016841F4007101600120A5
:10212000DEE7F5B2B8F1010F09D02168300A086185
:102130003A464946204600F0E1F80028E7D12068F9
:1021400005610020CCE700000200010070B51646D2
:102150000D4604460DE02046FFF70FFF08B10120B1
:1021600070BD681C05D0FEF797FE801BA84207D8FB
:1021700035B120684069C0434007ECD4002070BDF1
:10218000002044F8300F20216173A073216941F0D1
:10219000200121612073E2E72DE9F0471E469046B9
:1021A0000D460446C1F30747DDF8209008E0701C97
:1021B00006D0FEF771FEA0EB0900B0420FD876B151
:1021C0002068012F18D0806925EA00000004000C67
:1021D00014D000214145EAD00020BDE8F08700205E
:1021E00044F8300F20216173A073216941F0200170
:1021F000216120730120F0E74069E5E70121E9E76B
:102200002DE9F0479A4691460E46044600254FF0C8
:102210002008C1F3074725E020684069C043400516
:1022200014D42068016841F40071016021686FF4E2
:1022300080604861256384F83D8084F83E50206CBE
:1022400040F00400206484F83C501FE0B9F1FF3FE7
:1022500008D0FEF721FEA0EB0A0149450CD8B9F1E0
:10226000000F09D02068012F13D0806926EA0000F2
:102270000004000C0BD0CFE744F8305F84F80D80E9
:10228000A573206940F02000206125730120BDE87E
:10229000F0874069EAE72DE9F041002590460E46B7
:1022A0000446202717E04069C043C0060CD454F808
:1022B000301B6FF01000486144F810596777A5771C
:1022C000206A2062257717E0FEF7E6FDA0EB080004
:1022D000B04208D83EB120684169C9434906E2D4FA
:1022E0000020BDE8F08144F8305F6773A573206972
:1022F00040F02000206125730120F2E770B51646FA
:102300000D4604460DE02046FFF737FE08B10120D8
:1023100070BD681C05D0FEF7BFFD801BA84207D822
:1023200035B120684069C0430006ECD4002070BD80
:10233000002044F8300F20216173A073216941F01F
:10234000200121612073E2E703B583B04FF480736D
:10235000012204A98DE80E001346024678210448A4
:10236000FEF78CFF10B1002005B000BD0120FBE797
:102370008C050020F0B585B0002425480094019418
:1023800002940394816941F020018161816901F027
:1023900020010491816941F004018161816901F0AA
:1023A00004010491816941F0080181618069194E3D
:1023B00000F008004FF400550490002229463046F2
:1023C000FEF765FDA020CDE90004134F69463846AD
:1023D0000294FEF767FC402000901048CDE901040C
:1023E00069463846FEF75EFC01200095CDE9010400
:1023F0000220039069463046FEF754FC0022114645
:102400001720FFF765F81720FFF754F805B0F0BD67
:1024100000100240000C0140000801400000311093
:102420000D4810B50B4901600C49416000214FF483
:1024300080428160C0E9031241618161C161016232
:10244000FEF730FD002803D0BDE81040FEF78DBA3E
:1024500010BD0000005400408C050020801A0600CA
:1024600010B586B000241A48009401940294039495
:10247000049416490594016040F29F51C0E901148B
:102480003121C0E903148461FFF71AFB08B1FEF79C
:102490006CFA4FF48050009069460D48FFF788FBB6
:1024A00008B1FEF762FA049404A909480594FFF7FD
:1024B000D3FA08B1FEF759FA0548FFF74DFB00289B
:1024C00001D0FEF752FA06B010BD00000004004033
:1024D000EC0500200C4810B50A4901604FF4E131C9
:1024E0004160002181600C22C160C0E90412816159
:1024F000C161FFF7BAFC002803D0BDE81040FEF729
:1025000034BA10BD00380140340600200C4810B524
:102510000A4901604FF416514160002181600C228C
:10252000C160C0E904128161C161FFF79EFC00280F
:1025300003D0BDE81040FEF718BA10BD00440040BB
:1025400078060020FEE7FEE770B5002404F1B00035
:10255000C0B200F01CFA002000F019FA102000F0C0
:1025600016FA0025002000F016FA6D1CEDB2802D41
:10257000F8D3641CE4B2082CE8D370BD70B53C4DB0
:102580004FF40054002221462846FEF780FC6420C8
:10259000FEF778FA012221462846FEF778FCC8208B
:1025A000FEF770FAC820FEF76DFAAE2000F0EFF9E2
:1025B000002000F0ECF9102000F0E9F9402000F0D4
:1025C000E6F9B02000F0E3F9812000F0E0F9FF2007
:1025D00000F0DDF9A12000F0DAF9A62000F0D7F92B
:1025E000A82000F0D4F93F2000F0D1F9C82000F075
:1025F000CEF9D32000F0CBF9002000F0C8F9D520A7
:1026000000F0C5F9802000F0C2F9D82000F0BFF931
:10261000052000F0BCF9D92000F0B9F9F12000F054
:10262000B6F9DA2000F0B3F9122000F0B0F9DB209F
:1026300000F0ADF9302000F0AAF98D2000F0A7F9E4
:10264000142000F0A4F9AF2000F0A1F9FFF77CFFFF
:102650000848C07838B1A02000F099F9C020BDE842
:10266000704000F094B9A12000F091F9C820F6E77D
:10267000000C0140EC060020704700000EB54FF43E
:1026800080730092CDE9011302460123A321024881
:10269000FEF7CCFC01200EBD8C05002010B50023F8
:1026A00006E000BF30F8024B21F813405B1C9BB2E0
:1026B0009342F7D310BD704770B5154D0A24A87822
:1026C000B0FBF4F104FB1101B0FBF4F001EB0010DE
:1026D000C1B2042004F0F2FA6878B0FBF4F104FB14
:1026E0001101B0FBF4F001EB0010C1B2032004F0C3
:1026F000E5FA2878B0FBF4F104FB1101B0FBF4F02B
:10270000BDE8704001EB0010C1B2022004F0D6BA5F
:102710003201002070B51C4D0A24E879B0FBF4F1B9
:1027200004FB1101B0FBF4F001EB0010C1B2082072
:1027300004F0C4FAA879B0FBF4F104FB1101B0FB7A
:10274000F4F001EB0010C1B2072004F0B7FA687989
:10275000B0FBF4F104FB1101B0FBF4F001EB00104D
:10276000C1B2052004F0AAFA2879B0FBF4F104FB09
:102770001101B0FBF4F0BDE8704001EB0010C1B2F4
:10278000062004F09BBA000032010020FEF73CBE98
:1027900030B58FB028216846FDF7DBFC14210AA86C
:1027A000FDF7D7FC01210804CDE9001000240294B4
:1027B00002250491CDE907504FF4E01009906846D6
:1027C000FEF7A4FF08B172B6FEE70F20CDE90A05B7
:1027D0004FF48060CDE90C4002210AA80E94FEF768
:1027E000A9FE002801D072B6FEE70FB030BD7047D9
:1027F0000148FFF749BA0000EC050020F0B5026877
:10280000164B174C174D4FF08047984205D0B842F1
:1028100003D0A04201D0A84203D122F070064A683A
:102820003243984205D0B84203D0A04201D0A8421A
:1028300003D122F44074CA6822434C6922F080021A
:10284000224302608A68C2620A688262984201D1A9
:102850000969016301214161F0BD0000002C0140C4
:10286000000400400008004010B5846842EA0322DA
:1028700024F47F440A432243826010BD826822F020
:1028800070020A4342F007018160704710B5036A85
:10289000046A24F001040462846924F0F00444EA28
:1028A000021423F00A020A438461026210BD10B5CB
:1028B000036A23F0100303628369046A23F47043FC
:1028C00043EA023224F0A00343EA0111826101626B
:1028D00010BD000070B5044600680169E26821F48B
:1028E0004051114301612169A068084361690843AF
:1028F0002168CA6841F20C639A430243CA602068A7
:102900004169A26921F44071114341611E49206867
:10291000884202D1FEF7B4FE01E0FEF7A1FE00EB13
:10292000C00101EB0012606864218000B2FBF0F38B
:10293000B3FBF1F36FF018067343B2FBF0F5B2FB93
:10294000F0F605EB8305322303EB0515B5FBF1F536
:10295000B6FBF1F605F0F00505EB0615B2FBF0F657
:10296000B2FBF0F0B0FBF1F06FF01802504306EB51
:10297000800003EB0010B0FBF1F0216800F00F00C5
:102980002844886070BD000000380140FEE7014621
:102990000020FFF7D9BC01464020FFF7D5BC00005E
:1029A0000FB4084B10B504A902AA039800F03AFC32
:1029B000044602A9002000F0CCFF204610BC5DF8C0
:1029C00014FB00005339000837B514460846064B7F
:1029D0006A46214600F026FC04466946002000F0C5
:1029E000B8FF20463EBD000053390008490050EAB8
:1029F000C12018BF04204A0D18BF40F0010040F26A
:102A0000FF72B2EB515F08BF40F00200012808BF1F
:102A1000052070470907090E002804DB00F1E020BB
:102A200080F80014704700F00F0000F1E02080F8FB
:102A3000141D70472DE9F74F144694B00021C4E9E6
:102A400002111599079121F00045C9498D4206DC14
:102A50001599C4E9000117B00020BDE8F08FC54901
:102A6000DFF814A3A9423CDD0799C44E0029C44FE6
:102A7000C44A1599534619DDFDF77EFC554506D02D
:102A8000C14AC24BFDF778FCC4E900010AE04FF0EF
:102A9000D352BE4BFDF770FC32463B46FDF76CFC53
:102AA000C4E9000117B00120BDE8F08FFDF7C3FBBA
:102AB000554506D0B44AB54BFDF7BDFBC4E900014E
:102AC0000AE04FF0D352B14BFDF7B5FB32463B461F
:102AD000FDF7B1FBC4E9000117B04FF0FF30BDE8CE
:102AE000F08FAB49A942159978DB21F0004183466C
:102AF0008846A84AA84BFDF745FC0022A74BFDF7E6
:102B00009AFBFDF75AFD0990FDF739FD06460F4681
:102B10009C4A5346FDF736FC43465A46FDF72FFCC8
:102B200080468A46984A994B30463946FDF72AFC3A
:102B30002A0D01250B9242465346FDF720FC032D3A
:102B4000C4E9000139D00B98C1F30A51401A05EBD2
:102B500045111139814230DA9148C346784400EB7F
:102B60000510CDF80CA00C90D0E900233046394672
:102B7000FDF708FC02460B4604910690584603995F
:102B8000FDF7FAFB80468A4602460B4658460399F3
:102B9000FDF7F2FB049B069AFDF7EEFB83460C98CB
:102BA00003913946D0E902233046FDF7EBFB5A4644
:102BB000039BFDF7E1FB6D1CBDE707980028A2BF52
:102BC000099817B0BDE8F08F616881F0004161603D
:102BD000099817B04042BDE8F08FFFE7844615988A
:102BE000C1F31301C0F30A50A0F2F5304FEA6018A8
:102BF00000F01F06C6F120001390002006900790F9
:102C000041F4801E05206D4676B1664A08EB00014E
:102C10007A4452F8213002EB8101B3404A6813999B
:102C200022FA01F1194305E05F4908EB00027944FB
:102C300051F82210A1FB0E27A1FB0C131A449A4253
:102C400034BF0123002303EB070A05EB8003D3E91C
:102C500001B70F448F4234BF0121002193448B44BC
:102C600011B1934502D903E0934501D2012100E05F
:102C70000021C3E901B7514445F82010011EA0F11D
:102C80000100C1DC0298059F00F10050800F1290F6
:102C90000298DDE903568000FDF771FC8346284663
:102CA0000D91FDF77DFC6FF01D02FDF74CFCCDE9A9
:102CB0000E013046FDF774FC6FF03D02FDF743FC5A
:102CC00080468A463846FDF76BFC6FF05D02FDF7E3
:102CD0003AFC0746424653461191FDF7ACFADDE94E
:102CE0000E23FDF7A8FA5A460D9BFDF7A4FA00251E
:102CF0000E465A4628460D9BFDF73EFBDDE90E23A6
:102D0000FDF73AFB42465346FDF736FB3A46119B28
:102D1000FDF735FBDFF898A0244A5346FDF732FB58
:102D200007468846234A244B31462846FDF72AFBAE
:102D30003A464346FDF77FFA074688464FF0A842D9
:102D4000534631462846FDF71DFB3A464346FDF7FC
:102D500072FA159A12F0004F04D0129A81F00041D5
:102D600052421292C4E90001129817B0BDE8F08FE8
:102D7000FB21E93F7CD90240FB21F93F7370032E10
:102D80008A19A33B000040543163621A61B4D03DFC
:102D9000FB21394183C8C96D305FE43F0000E03F4B
:102DA000C85800004458000026580000182D44540C
:102DB000FB21F93D3326A611460B113C2DE9FF4DB1
:102DC00021F0004807460C46B8F1795F08DAFDF7B4
:102DD000F4FB002801BF0020324904B0BDE8F08DAB
:102DE0003A46234610461946FDF7CCFA05460246F8
:102DF0002D480E460B460621784400F05DF82A4621
:102E00003346FDF7BFFADDE9022382468B4638469A
:102E10002146FDF7B7FA04460F4652465B46284660
:102E20003146FDF7AFFA22463B46FDF7A5FA0746C5
:102E30008A464FF0FF3228463146FDF784FB1B4A95
:102E400090450ADA3A465346FDF796FA04B0002256
:102E5000BDE8F04D134BFDF792BA154A4245A8BFA5
:102E6000A8F500154FF00004B8BF124D22462B46BE
:102E7000FDF782FA0646884622462B46002009497D
:102E8000FDF77AFA04460D463A4653463046414627
:102E9000FDF772FA04B022462B46BDE8F04DFDF76F
:102EA0006EBA00000000F03FFC5500003333D33F02
:102EB0000000E93F0000D23F2DE9F0414F1E00EB3A
:102EC000C7010446D1E9000115461E4637F0060247
:102ED0000DD02A463346FDF755FA7F1E04EBC70393
:102EE000D3E90023FDF7A7F937F00602F1D1022F4D
:102EF00025D0042F13D0062F18BFBDE8F0812A4635
:102F00003346FDF73FFAD4E90A23FDF794F92A4640
:102F10003346FDF737FAD4E90823FDF78CF92A4642
:102F20003346FDF72FFAD4E90623FDF784F92A4644
:102F30003346FDF727FAD4E90423FDF77CF92A4646
:102F40003346FDF71FFAD4E90223FDF774F92A4648
:102F50003346FDF717FAD4E90023BDE8F041FDF749
:102F60006AB900002DE9FF4D054621F0004084B00C
:102F70000C46B0F1795F0BDA2846FFF737FD0428DD
:102F800008BF00F06FF8284608B02146BDE8F08D74
:102F90002A460B461046FDF7F5F906460F462A4627
:102FA0002346FDF7EFF9804626488A4632463B46DF
:102FB00005217844FFF780FF83461098029160B3A3
:102FC000214A224B40465146FDF7DCF9CDE900018C
:102FD0005A4640465146029BFDF7D4F98246884640
:102FE000DDE906014FF0FF32FDF7ADFA52464346E8
:102FF000FDF7C2F932463B46FDF7C4F9DDE9062389
:10300000FDF7BAF9DDE90023FDF7B6F908B02A4665
:103010002346BDE8F04DFDF7B2B90B465A4630469F
:103020003946FDF7AFF9084A084BFDF704F9424667
:103030005346FDF7A7F908B02A462346BDE8F04DF0
:10304000FDF7F9B83A550000495555555555C5BFD6
:103050000122FDF778BA0022134610461146FDF70B
:1030600003BA0000024A00201107FDF76CBA000005
:1030700001FDFFFF02E008C8121F08C1002AFAD1B3
:1030800070477047002001E001C1121F002AFBD1E8
:103090007047000001490860704700007801002077
:1030A0002DE9FF5F82B00021DDE90430020DDDF87B
:1030B00040B0034318D044F61050A2F2FF3242430E
:1030C0001514119801281FD0A5EB0B00401C5FEAD6
:1030D000000A4FF000064E4FDFF83891B0465046D8
:1030E00015D5CAF1000413E0119801244AA3012860
:1030F00001D16FEA0B010298119AC0E90031C0E9D1
:10310000024206B0BDE8F09FCBF10000DFE70446C5
:103110000021404A491842EB0450CDE9001012E06A
:10312000E00707D032463B4640464946FDF72AF9BC
:103130008046894632463B4610461946FDF722F93D
:1031400006460F466410002CEAD1DDE90401DDE9F2
:103150000023BAF1000F06DAFDF714F942464B4698
:10316000FDF710F905E0FDF77FF942464B46FDF704
:103170007BF904460E460022284BFDF781FB03D85D
:103180004FF0FF30014607E00022254B2046314634
:10319000FDF751F8FDF75BFB102409E0002C0ADB7A
:1031A0000A220023FDF76DFA039B30321A55641E84
:1031B00050EA0102F2D1641C039AC4F111031444D1
:1031C000119A012A03D0012208430DD10AE00843D5
:1031D00004D000204FF0110B119072E7A3EB0B0508
:1031E0006D1E0DE05B4504DD4FF0000205F10105A9
:1031F00004E003DA4FF00002A5F10105002AECD04B
:1032000002981199C0E90231C0E9004579E7000050
:10321000000014400000F03F300000000000F043C8
:103220000000E03F2DE9FF4F95B09B4689460646DA
:1032300000250FE2252877D100242746F84A0121EE
:10324000059400E0044316F8013F203B01FA03F027
:103250001042F7D130782A2811D06FF02F03307840
:10326000A0F13002092A16D8059A44F0020402EBB4
:10327000820203EB42021044761C0590EFE759F8F6
:10328000042B0592002A03DA504244F400540590BE
:1032900044F00204761C30782E2816D116F8010F5F
:1032A00044F004042A280DD06FF02F023078A0F1EA
:1032B0003003092B09D807EB870302EB4303C71838
:1032C000761CF3E759F8047B761C30786C280FD015
:1032D00006DC4C2817D068280DD06A2814D104E0E9
:1032E000742810D07A280FD10DE044F400140AE0BD
:1032F00044F4801401E044F440147278824202D114
:1033000004F58014761C761C307866280BD013DC0C
:10331000582877D009DC002875D04528F6D04628F3
:10332000F4D047281AD19DE118E0632835D06428ED
:1033300079D0652812D195E1702873D008DC672810
:10334000F1D069286FD06E280DD06F2806D1B5E076
:1033500073282CD0752875D0782874D05A461799C0
:1033600090476D1C75E1C4F30250022809D0032870
:103370000DD0D9F8001004280DD00D6009F1040912
:1033800067E1D9F80010EA17C1E90052F6E7D9F869
:1033900000100D80F2E70D70F0E719F8041B8DF8AE
:1033A000001000208DF80100EA46012003E059F8E2
:1033B00004AB4FF0FF3061074FF0000102D40DE085
:1033C00008F101018846B9420FDA8045F8DB1AF8A6
:1033D00008100029F4D108E008F101018846814273
:1033E000FADB1AF808100029F6D105985B46A0EB25
:1033F000080721463846179A00F094FA284400EB53
:10340000080507E04DE029E10DE01AF8010B5A46E6
:1034100017999047B8F10108F7D25B462146384624
:10342000179A13E142E00A220092C4F302524FF0CD
:10343000000A022A08D059F804CB032A4FEAEC719B
:103440000AD00DE029E02AE009F1070121F0070286
:10345000F2E802C1914609E00FFA8CFC4FEAEC71E8
:10346000042A03D14FFA8CFC4FEAEC71002907DAE9
:103470000A460021DCF1000C61EB02012D2202E082
:10348000220504D52B228DF80420012203E0E20757
:1034900001D02022F7E7904659E00A2102E01022ED
:1034A0000DE010214FF0000A00910BE010224FF0C8
:1034B000000A44F004040827009203E008224FF0B9
:1034C000000A0092C4F30252022A05D059F804CB34
:1034D0000021032A08D009E009F1070121F00702C1
:1034E000F2E802C1914605E01FFA8CFC042A01D1E2
:1034F0000CF0FF0C4FF00008220728D5702806D0EA
:10350000009B83F0100353EA0A0305D00EE040222B
:103510008DF80420012208E05CEA010206D0302286
:103520008DF804208DF8050002229046009B83F060
:10353000080353EA0A030AD15CEA010201D16207D7
:1035400005D530228DF804204FF001087F1E582841
:1035500004D034A003900EA802900DE036A0F9E745
:1035600053466046009AFDF78CF884460398825CC7
:103570000298401E029002705CEA0100F0D10298AD
:1035800006A9081A00F1200A600702D524F4803445
:1035900000E00127574502DDA7EB0A0000E000200C
:1035A00000EB0A01009005984144401A0590E003A1
:1035B00006D45B462146179A059800F0B3F90544F6
:1035C000002706E001A85A46C05D179990476D1C78
:1035D0007F1C4745F6DBE0030CD55B462146179A76
:1035E000059800F09FF9054404E030205A461799E9
:1035F00090476D1C0099481E00900029F5DC08E0FA
:10360000029802995A460078491C029117999047EE
:103610006D1CBAF10001AAF1010AF1DC65E10000BC
:103620000928010030313233343536373839616298
:10363000636465660000000030313233343536375C
:1036400038394142434445460000000000F058F933
:103650000544761C307800287FF4ECAD19B028467C
:10366000BDE8F08F620700D4062709F1070222F0B7
:10367000070CFCE80223E14603F000485FEA080C6F
:1036800002D00FF2702C0DE05FEA045C02D50FF25D
:10369000682C07E05FEAC47C02D00FF2602C01E0E6
:1036A000AFF2700C4FF0FF3823F00043CDF850C05C
:1036B00065280CD006DC452809D046281DD04728AF
:1036C0003DD13DE0662818D067287ED138E0002142
:1036D000112F01DB112000E0781CCDE9000106A9C3
:1036E0000EA8FFF7DDFCDDE90F010E9A0391002122
:1036F000009207F1010A04914DE04FF0004000975D
:10370000CDE9011006A90EA8FFF7CAFCDDE90F02FA
:1037100003920E9B11990022DDF80CA000930492F5
:1037200011B9791C00EB010AB7EB0A0004D4C0F10F
:10373000FF3007F1010A0490AAEB0700019044E072
:10374000012F00DA01270021112F01DD112000E0F7
:103750003846CDE9000106A90EA8FFF7A1FCDDE976
:103760000F010E9A0391002104910092BA4621079D
:103770000CD40399514500DA8A46BAF1010F05DDF0
:10378000009AAAF10101515C302908D0B84202DA4E
:1037900010F1040F06DA0121CDE9011015E0AAF1BC
:1037A0000101E9E7002805DC049901440491AAEB32
:1037B000000102E0411C514500DD8A460499401A8F
:1037C000401C01904FF000400290200704D4019863
:1037D000504501DBCDF8048000208DF84F000298A1
:1037E0000DF14F07B0F1004F25D02B200E9002981D
:1037F0004FF0020800280CDA404202902D200E9073
:1038000007E00A210298FCF726FF3031029007F802
:10381000011DB8F10001A8F10108F2DC02980028AE
:10382000EFD1791E0E980870307800F0200040F03B
:10383000450007F8020D12A8C01B00F107081498F4
:10384000007800B1012000EB0A01019801EBE07162
:1038500005984144401A401E0590E00306D45B469B
:103860002146179A059800F05DF8054414980078F1
:1038700018B15A46179990476D1CE00324D55B4652
:103880002146179A059800F04DF805441CE004986D
:10389000002807DBDDE90301884203DD0098405C76
:1038A000179901E0179930205A469047049805F17E
:1038B0000105401C04900198401E019004D12E2067
:1038C0005A46179990476D1CBAF10001AAF1010AF6
:1038D000DDDC05E017F8010B5A46179990476D1C7F
:1038E000B8F10001A8F10108F4DC5B462146179A03
:1038F0000598ABE62D0000002B0000002000000022
:103900002DE9F041044600251E461746880404D4DC
:1039100005E039462020B0476D1C641EF9D52846C5
:10392000BDE8F0812DE9F041044600251E46904691
:10393000C80301D5302700E02027880404D505E01E
:1039400041463846B0476D1C641EF9D52846BDE88F
:10395000F0810A68531C0B60107070470448054BD7
:10396000054A80780549401EC0B202F0D5BA000071
:1039700028070020A13A00085C7E0008066D0008B8
:10398000044A00EB4000104402880A808078887066
:1039900070470000C400002000F072BE00F070BE4E
:1039A0000148007870470000E00600200348007AD4
:1039B00008B100207047012070470000E006002099
:1039C0000148407870470000E0060020084A9278DD
:1039D00052B1084A0123137009B1002300E0C0234B
:1039E00053705060117270470028FCD000470000EF
:1039F000EC060020E00600202DE9F0411C4C207868
:103A0000002833D0204661784078267A431CC71CB2
:103A1000421D002508307EB1042901D2D8B208E049
:103A2000082901D2F8B204E0102901D2D0B200E096
:103A3000C0B240280FD210E0FB2901D9D8B208E06B
:103A4000F72901D9F8B204E0EF2901D9D0B200E09A
:103A5000C0B20A2801D225700020607020780028AA
:103A600004D16068002801D080476560BDE8F0811E
:103A7000E0060020AFF30080074802220021027018
:103A8000417001238370C1700171417181710172B4
:103A90004272837270470000EC06002070470000FD
:103AA0000248006A00B1004700F0C6BF28070020A6
:103AB0000121FFF78BBF0021FFF788BF10B5054B31
:103AC000054A0649064802F0B3F9074905488861E6
:103AD00010BD0000A5470008A16B0008F14A0008CE
:103AE000D16B0008016C00082807002010B5054BB9
:103AF000054A0649064802F09BF9074905488861CE
:103B000010BD0000B3470008DD560008694B0008EF
:103B1000ED560008995300082807002010B5054B02
:103B2000054A0649064802F083F9074905488861B5
:103B300010BD0000AD480008B9680008654C0008D9
:103B400071680008F968000828070020024B9A6293
:103B50009961986070470000F806002010B501F0E8
:103B600031FB05498A68904204D08860BDE8104066
:103B700001F07EBE10BD0000D400002010B502F0A0
:103B8000A5FF01F0EDFE08B1FFF7E8FF01F0E8FE48
:103B900008B100F0CDF9BDE810404FF48061014854
:103BA000FCF7D7BA4C07002030B516480068017CF6
:103BB000012901D90021017400214218527C2AB147
:103BC000FF2A03D0491CC9B20329F6D30E4CA279AF
:103BD000E379521C6479D2B2032902D0437482740F
:103BE000C474002145182D7D2DB1FF2D03D0491C33
:103BF000C9B20329F6D3032902D00375427584752F
:103C000030BD00008800002032010020064A5078B4
:103C10001178C31D994202D3891FC8B202E08142C4
:103C200000D2084650707047280700201421014830
:103C3000FCF78FBA340700200FB42DE9F05F8346FC
:103C400000260CAA57480B99FEF7BEFE564CB2460A
:103C5000544884F803A0FCF793FA87B21021514826
:103C600000F0E0FC0546DFF84481401C2AD005F155
:103C70000109B9450CD06078012600EB800108EB02
:103C80008100EAB2474902F0C1FB0FFA89F50BE067
:103C90000DB1EAB21FE06078012200EB800108EB71
:103CA000810043A102F0B2FB607800EB800108EBD9
:103CB0008100FCF765FAC0B22071A178884220D259
:103CC000002719E01120B7FBF0F0C6B2112F00D188
:103CD000002611252A46607800EB800108EB810060
:103CE0003049DFE7607800EB800108EB810030A10C
:103CF000FCF73AFA7F1CFFB2A0782179401AB8424B
:103D0000F0DC2079A0706078401CC0B2607014288C
:103D100002D384F801A004E0082802D30120207017
:103D200001E0207880B34FF480612248FCF711FA5B
:103D3000607814210C30B0FBF1F201FB1204012772
:103D4000F90004EB840208EB82020020083900F03D
:103D5000E7FC641CE4B2142C00D300247F1CFFB2E7
:103D6000082FEDD901F090FC5846FCF78BFE002E91
:103D700006D00C4810A142194FF49670FFF75CFF73
:103D8000BDE8F01F5DF814FBFFE7607800EB8002F0
:103D9000C10008EB820200200839143A00F0C0FC90
:103DA000E0E700009C0D0020680100200C0C0020C2
:103DB000200000004C070020257300002DE9F05F73
:103DC000DFF838B1002259469BF800409BF80350B9
:103DD0009BF8020049784FF0010928B19BF80430A4
:103DE00058468BB1AD1F10E009B1E41C00E0E41EA1
:103DF000E4B2202C14D319B120248BF802900FE0E8
:103E000000248BF805200BE00A35EDB2802D07D396
:103E10005BB1002501B142715FF000018BF8041025
:103E2000E7080026DFF8D88013E0802582700121A2
:103E3000F4E700BF08EBC6108021FCF78AF9714255
:103E400008EBC110802100F56070FCF782F9761C48
:103E5000F6B23846BE42EDD314F007022BD0C001B3
:103E6000A0F2FF314942FF2303FA02F606F0FF0AEF
:103E7000D34009FA02F68027D74006F0FF0989B23D
:103E800000264246761C12F800C0F6B20CEA0A0C74
:103E90004CEA090C02F800C012F801C0401C0CEA00
:103EA000030C4CEA070C02F801C0491E80B289B22B
:103EB000802EE7D31CE0DCB1C5F18000C4F14001E5
:103EC000C0F34600C1F3C40100EBC11046464044B4
:103ED00001222946FCF736F9202C09D0FA017F206F
:103EE0001118401E735CC0B243F001037354F7D243
:103EF0008BF800408BF80350BDE8F09F00010020D4
:103F00004C07002002484069002800D00047704755
:103F1000E80000200149486170470000E8000020E7
:103F200002490A690861104670470000E800002055
:103F30007CB501F047F91D4C61686278411A9142E5
:103F400031D3A17000266060FFF756FD206904F1AF
:103F5000180528B1697909B9697839B980470646E1
:103F6000687918B1FFF72AFF687910B9FFF718FDD3
:103F700000B101260E484FF47A75407960B1A078FF
:103F80000CA1B5FBF0F26846FEF70AFD3823642267
:103F90000021684600F082FA00F07EFA26B120780F
:103FA000B5FBF0F060707CBD2820FBE7E800002046
:103FB000EC060020257500000A21B0FBF1F07047E7
:103FC000024902460320097800F0E4BC28070020DB
:103FD00010B504460848C07800280CD0FFF7E0FC74
:103FE00018B1FFF7E3FC002805D0002C03D0A4464D
:103FF000BDE81040604710BD280700203EB500F026
:10400000B3F802F0DFFA054600F014F82324FCF7B9
:104010008DFC50B100200821CDE900100B46029024
:10402000034A3821204600F079F928463EBD0000B9
:10403000647A00083EB501F0C5F844491025002413
:10404000C8600B784FF47A72002B4B68A0EB030327
:1040500035D0934201D948600C70CDE9005410234B
:104060003B4A30211846029400F058F9CDE900543B
:104070001023384A30212020029400F04FF9CDE976
:104080000054344A3021102320320846029400F0B4
:1040900045F9CDE900542F4A102340323021402009
:1040A000029400F03BF9CDE900542A4A1023603213
:1040B00030215020CDF8084000F030F93EBD934249
:1040C00002D9486001200870CDE900541023224A2B
:1040D00030210020029400F021F9CDE900541D4A5E
:1040E0001023803A30211846029400F017F9CDE9E8
:1040F00000541023194A30212020029400F00EF9B8
:10410000CDE90054134A30211023403A0846029466
:1041100000F004F9CDE900540E4A1023203A302172
:104120004020029400F0FAF8CDE9005410230C4A24
:1041300030216020029400F0F1F8CDE900540B2307
:104140003021084A72200294B6E70000580100208E
:104150007773000817740008577300087775000814
:10416000777600088D77000870B5314E31498AB0F6
:10417000307901EB800108A8FCF716F8F2792EA13E
:1041800003A8FEF70DFC00230322194603A800F044
:1041900085F9B27973792BA103A8521CFEF700FCB4
:1041A00000220823114603A800F078F90024102506
:1041B000CDE900542B46264A21462220029400F0E5
:1041C000ADF8307923490930C0B2CDE9005401EB94
:1041D0004012102300213220029400F09FF8CDE914
:1041E00000541C4A1023403200214220029400F067
:1041F00095F8CDE900540B23174A00215220029470
:1042000000F08CF8CDE90054134A0B23C63200218C
:104210005E20029400F082F8CDE9005410230F4A8A
:1042200000217020029400F079F80AB070BD0000FF
:10423000320100200B6D000832302530326868757D
:1042400000000000253032642E2530326868750089
:10425000977400089773000877770008577600086E
:104260002DE9FE4F0446037A407AE67A03FB00F11B
:10427000C1F3C707616894F80DC006FB0712A57A61
:1042800094F8009094F801800021BCF1000F07D051
:1042900035B1FF2D04D0761EF6B2FF2E04D004E017
:1042A000CDE90001029115E0267BA5EB000CACF1F5
:1042B000040C8A460CF0FF0C8DE801144146484678
:1042C00000F02CF8617ACDE9001A02956068237A33
:1042D00006FB07024146484600F020F8BDE8FE8F85
:1042E00010B586B0202218216846FBF72BFF0A4C38
:1042F0006068FBF745FF0921A1EB500069460844BF
:104300006168FBF751FF00231A461946684600F022
:10431000C5F806B010BD0000280700202DE9FF4FAA
:104320008FB01F460D4683461C9CFFF749FB28446F
:104330001E9900F0FF09A9EB0100C0B20990E00846
:1043400006900998002600F00700089009EB040089
:10435000C0B2029084E0099800EBC600C4B204F138
:10436000080000F0FF0A1E9880B1CA4576D3BAF162
:10437000400F73D80298844270D8FF200D904C45AE
:1043800007D2A9EB04018840C0B200E0FF200D90E5
:1043900007E00298824504D9AAEB0001FF20C8403B
:1043A000F5E7E008C0010490119806FB07000390B0
:1043B0000898E8B9402C1BD20024DFF8B48014E040
:1043C00004EB0B00C5B2802D0DD203981D9920443B
:1043D00001F0D2FA0D99084004996A1818F80230D1
:1043E000034308F80230641CE4B2BC42E8D335E071
:1043F0004FEADA00C00100250C902DE005EB0B0020
:1044000000F0FF08B8F1800F24D203981D992844CA
:1044100001F0B2FA0D990840402C0BD20499DDF856
:1044200020C008EB0102124900FA0CFC8B5C43EA45
:104430000C038B54BAF1400F0CD20C99DDF820C05C
:1044400008EB01020A49CCF1080C20FA0CF08B5C55
:1044500003438B546D1CEDB2BD42CFD3761CF6B234
:1044600006988642FFF477AF13B0BDE8F08F0000E6
:104470004C070020C90800EBC1104FF4806188424E
:1044800007D283188B4204D2024908441146FBF735
:1044900060BE70474C07002001F0F6B82DE9FE4FD2
:1044A000994692460F46064600254FEAD3082BE070
:1044B000C5EBC50202EB0A01CCB208220021009232
:1044C000CDE901712038C0B2124900EB80004218DA
:1044D000052349462046FFF721FF97B14CB1601EE6
:1044E0000D49C0B200EBC8104FF0FF320A547B2CCC
:1044F00007D2641D0848E1B201EBC8114FF0FF324A
:1045000042546D1CEDB2761C30780028D0D1BDE845
:10451000FE8F00007F7800084C07002010B5064889
:104520000024064B0470064A0649074801F080FC47
:104530000648846110BD000018010020A54700084E
:10454000514D0008F14A0008B5490008280700202D
:1045500010B506480024064B0470064A0649074871
:1045600001F066FC0648846110BD000018010020BF
:10457000B34700087D4D0008694B0008E149000879
:104580002807002010B506480024064B0470064A90
:104590000649074801F04CFC0648846110BD000044
:1045A00018010020C547000855580008DD4B0008D9
:1045B0007D5300082807002010B506480024064B4C
:1045C0000470064A0649074801F032FC0648846137
:1045D00010BD000018010020AD480008B54D0008CE
:1045E000654C0008154A00082807002004480021EF
:1045F0000160044981600121C1600349FCF754BA9C
:104600007C05002000F80008000000200448017824
:104610008078401E814201D1012070470020704700
:10462000280700200246002005E0135C2BB10A2B6E
:1046300005D0401C00B28842F7DD4FF0FF307047D4
:104640000D480078082815D2DFE800F0140406149D
:10465000040E10120120704708480078012801D08C
:10466000172070470C2070471F2070470B207047A1
:10467000632070473B207047180100203C01002058
:104680002DE9FC47244CFF264FF6FF77A0788DF8E4
:104690000600E0788DF80700002101A802F0F0F98B
:1046A00060782279401CC1B29DF8060002F02EFA13
:1046B00080460524DFF864A027E069462046FFF71E
:1046C0005FF99DF8020000061FD506254FF001098D
:1046D0009DF8021009FA05F0014213D09DF801106F
:1046E0009DF800002A4602F011FAB0EB080002D54E
:1046F00042F25F71084481B2B94203D287B22646C2
:104700008AF801506D1EEDB2E2D2641EE4B2D4D23A
:104710008AF80060BDE8FC8732010020B00000206C
:1047200030B4801C1446C2B22046CBB230BC00214B
:10473000FFF7B4BE10B50C4B0C4A0DA1002001F0E0
:10474000EBFB0A4A0E4B803A0EA1012001F0E4FB7C
:10475000064A0F4B80320FA1022001F0DDFBBDE8BD
:104760001040FFF7FBB800009D5A0008D770000802
:104770003C204F64642026204576656E203E000074
:104780005D5C00083C20436F75706C65203E000046
:10479000A15A00083C20436F75706C65206C6F6FE8
:1047A00070203E0010B501F051FDBDE81040FFF74C
:1047B000D5B810B501F006FD01F03AFCBDE8104097
:1047C000FFF7CCB8094810B540680078092800D92F
:1047D00000200749074B01EBC01207A1002001F0A0
:1047E0009BFBBDE81040FFF7B9B800008400002033
:1047F000DC7E0008615C00085549000070B50020AF
:104800000124114B114A12A101F086FB0225124B23
:10481000124A13A1204601F07FFB0324124B134AD6
:1048200013A1284601F078FB0425144B144A15A166
:10483000204601F071FB2846BDE87040134B144A36
:1048400014A101F069BB0000BD640008D771000825
:104850005461696C4E6F2E00F9520008DC7D00082F
:104860004D6F646500000000D94C0008576D0008CA
:1048700054696D6520262064617465007D4C0008D4
:10488000D76D0008536F756E64000000DD4F00089F
:104890005C7E0008457869740000000010B501F0E6
:1048A00051FBBDE81040FFF759B8000030B5234C6C
:1048B000234987B0A07901AD01EB800106A8FBF781
:1048C00073FCE0790090627906AB1EA12846FEF7E2
:1048D00067F8224B002201A9012001F0C5FAE17816
:1048E00002A8202901D00C2200E018226378CDE92B
:1048F0000031A3781AA1FEF753F8204B002202A939
:10490000032001F0B1FA0D4C0C3C607808B11CA1F9
:1049100000E01DA11E4B0022052001F0FDFA607889
:1049200008B117A100E018A1194B0022062001F0E0
:10493000F3FA07B0BDE83040FFF710B84801002097
:10494000276D0008202020253032686875202573E7
:10495000203230253032686875000000B15A0008F6
:1049600020202025686875687220253032686875B7
:104970003A2530326868752563000000195D00082B
:1049800053617665640000005361766500000000A5
:10499000695A000803460548437081700270044854
:1049A000C269002A01D00846104770471001002054
:1049B0002807002010B500F0E1FC0848007838B165
:1049C000022805D0042803D0062801D0082803D1E6
:1049D000BDE8104000F0D2BC10BD00002807002048
:1049E00010B500F0CBFC0A4C207808B1022801D1A8
:1049F00000F0C4FC2078032801D100F0BFFC20782F
:104A0000042803D1BDE8104000F0B8BC10BD000080
:104A10002807002010B500F0B1FC0648007818B156
:104A2000022801D0042803D1BDE8104000F0A6BC44
:104A300010BD00002807002010B5002204491046D0
:104A4000FFF784F8BDE810400248FFF731B80000D6
:104A500085510008594A000810B50E48FFF760FA62
:104A60000D4A0E490E48FFF771F804200DA20121EE
:104A700001F0E8F90F4B104A1049114801F0D8F93C
:104A80001049114801F0A4FABDE810400020FFF7DA
:104A900012B800000D500008F94F000885510008B9
:104AA000B15100083C204D41494E204D454E552006
:104AB0003E000000FD47000855580008294C00083A
:104AC0007D530008594A00080801002010B5FFF77F
:104AD0009DFD040001D0FEF7E1FF044801F066FAF5
:104AE0002046BDE81040FFF76BBA00000800002028
:104AF00070B5FFF78BFD30B3174D184E5822304676
:104B0000296800F037FF164C28682168C27BCB7BF0
:104B10009A4201D0582209E0042A0AD10A22401DF3
:104B2000491DFBF734FB20B121685822304602F0C2
:104B300007F82868216800790A79904203D0582242
:104B4000304601F0FDFF074801F030FAFFF75EFD47
:104B5000BDE87040FFF734BA8400002000F8000878
:104B6000880000201400002070B5FFF74FFD20B32F
:104B7000164D174E58223046296800F0FBFE154CA2
:104B800028682168027C0B7C9A4201D0582207E0F9
:104B9000032214301431FBF7FAFA20B121685822AD
:104BA000304601F0CDFF2868216800790A799042EB
:104BB00003D05822304601F0C3FF074801F0F6F950
:104BC000FFF724FDBDE87040FFF7FAB9840000202C
:104BD00000F80008880000207000002070B5FFF782
:104BE00015FD04460E4801F0E1F92046FFF7E8F90B
:104BF000002C13D00A4C0B4D083C58222846216843
:104C000000F0B8FE2068616800680A68904205D02C
:104C10002846BDE87040582201F092BF70BD0000E8
:104C20008C00002000F8000810B5044801F0BEF91F
:104C3000BDE810400120FFF7C3B9000008010020C3
:104C400010B5FFF7E3FC040001D0FEF727FF04488E
:104C500001F0ACF92046BDE81040FFF7B1B9000003
:104C60002801002010B5044801F0A0F9FFF7CEFCA0
:104C7000BDE81040FFF7A4B94001002010B50CA218
:104C80000121032001F0DEF80C4B0D4A0D490E48BE
:104C900001F0CEF80E490D488861AFF21F010D48B2
:104CA00001F096F9BDE810400020FEF704BF0000B7
:104CB0003C20534F554E44203E0000009D480008C4
:104CC00055580008414C00087D53000881650008D4
:104CD0002807002028010020124910B510480A6852
:104CE000C26049680161104910A2897901700021F0
:104CF0004170072001F0A6F8104B114A11491248E3
:104D000001F096F8AFF22F010548001D01F060F99F
:104D10000E4901200870BDE810400020FEF7CBBE10
:104D20003C01002032010020EC0600203C205449C8
:104D30004D4520262044415445203E00AD48000802
:104D4000B54D0008654C0008154A000828070020EA
:104D500010B500F07FFD0848007838B1022805D072
:104D6000042803D0062801D0082803D1BDE810404C
:104D700000F070BD10BD00002807002010B500F045
:104D800069FD0B4C2078042801D100F063FD2078E8
:104D9000032801D100F05EFD207818B1022801D06F
:104DA000042803D1BDE8104000F054BD10BD000040
:104DB0002807002010B500F04DFD0648007818B116
:104DC000022801D0042803D1BDE8104000F042BD04
:104DD00010BD000028070020FCF71EFBFDF7D8FCE3
:104DE000582000F0C5F82F490028086057D05820F7
:104DF00000F0BEF82C490028086051D0FDF7BAFA3F
:104E0000FDF768FBFDF70CFBFDF780FBFDF728FBCA
:104E1000FDF7B4FB00F010FD4FF4FA7423A1204617
:104E2000FEF70AFF25A10A20FEF706FF28A10A20A7
:104E3000FEF702FF2BA10A20FEF7FEFE2EA10A209C
:104E4000FEF7FAFE31A10A20FEF7F6FE34A10A2091
:104E5000FEF7F2FE37A10A20FEF7EEFE3AA10A2085
:104E6000FEF7EAFE3D49002008604FF480613C48AF
:104E7000FBF76FF9FEF7FEFDFEF78EFDFDF74AFC2E
:104E800000F066FD37A12046FEF7D6FE3748FFF753
:104E900041F8FFF737F800BFFEF770FEFCE7FEE7CA
:104EA000FEE700008800002084000020696E69741D
:104EB0005F4F4C45443A204F4B0000002D2D2D20D4
:104EC00077656C636F6D6520212D2D2D000000002E
:104ED00020205F2020205F202020205F2020202015
:104EE00000000000207C207C207C207C20207C5F37
:104EF0007C20202000000000207C207C5F7C207C27
:104F00002020205F2020202000000000207C202086
:104F10005F20207C20207C207C20202000000000BE
:104F2000207C207C207C207C20207C207C20202059
:104F300000000000207C5F7C207C5F7C20207C5F68
:104F40007C20202000000000202020202020202085
:104F50002020202020202020000000009C00002095
:104F60004C0700205354415254202100796B000813
:104F7000F0B50B30154D20F007010024144A0FE066
:104F800003688B420BD38B4205D95E1A43184768DE
:104F9000C3E9006700E04368136002C004E0021D3B
:104FA00010680028ECD12046002802D1286808B1FA
:104FB0000020F0BD064A07481060074A121A22F086
:104FC0000702C0E9002401202860D7E7740100200F
:104FD00070010020A4110020A013002010B5FEF7DE
:104FE00025FE04480021C1700162BDE81040FEF7B3
:104FF00089BF000028070020034810B54069FEF76C
:10500000E7FF012010BD0000280700202DE9F04730
:10501000DFF88080002698F8080038B100F03EF8EC
:105020000646D8F8180080B376BB29E0FFF758F998
:1050300098F8021098F80150072900D9072129444F
:10504000CFB22C464FF0080915E0611B09EBC100F7
:1050500000F0FF0A98F80000A04205D10022534654
:1050600011460DA0FFF71AFA524621460220FFF71B
:1050700091FC641CE4B2BC42E7D3D8F8180020B11C
:10508000D8F81800804708B1012600E00026304615
:10509000BDE8F087280700203E0000002DE9FE4310
:1050A000DFF8CC804021002598F80000A0EB8000BC
:1050B00001EB00122F483049807898B148680124EC
:1050C000824213DDA2EB00034FEAE37603EB967313
:1050D00004EBA303DBB2102B00D910231844486063
:1050E000824201DC4A6011E001250FE00EDA831AEA
:1050F000DE1703EB967304EBA303DBB2102B00D98E
:105100001023C01A48608242EEDBEBE74C68103C8B
:10511000FFF7E6F800260827CDE900762423174A92
:105120000E212E200296FFF7F9F8CDE90076242310
:10513000134A2A212E200296FFF7F0F847460BE08B
:1051400004F11F009F2804D2E2B231460020FFF78D
:1051500021FC761CF6B23034B878B042F0D83978F9
:1051600000220120FFF716FC2846BDE8FE83000060
:1051700028070020EC06002010010020947D000884
:10518000B87D000810B5FEF70BFC10B1FEF70EFC61
:1051900028B10648C17821B1006900B180470120DB
:1051A00010BD0121C170FFF747FCF8E72807002078
:1051B000034810B5C068FEF70BFF012010BD0000CA
:1051C00028070020014880687047000094000020F4
:1051D0000A21B0FBF1F201FB1200704710B51BA2CF
:1051E00000210A2000F02EFE1B4B1C4A1C491D48C2
:1051F00000F01EFEAFF21B011B4800F0E9FE1B4C45
:1052000058221B48216800F0B5FB2168164801228E
:10521000001F0A710323C37000230370437083705F
:10522000CB7B0BB1042B09D90F4B1B1F1C6A41F818
:10523000054F5C6A4C601B8D0B8102700D4802703B
:10524000BDE810400020FEF736BC00003C20436F54
:1052500075706C65203E0000A5470008514D0008A0
:10526000F14A0008B5490008140000208800002019
:1052700000F800082807002010B513A2002106201E
:1052800000F0E0FD144B154A1549164800F0D0FD1A
:10529000AFF21B01144800F09BFE13485822001F78
:1052A000124C02601248216800F064FB2168022061
:1052B0000871FEF779FC0F4901200870BDE8104025
:1052C0000020FEF7F8BB00003C204F64642026203D
:1052D0004576656E203E0000B34700087D4D00080E
:1052E000694B0008E1490008700000208800002098
:1052F00000F800082807002010B50CA201210320A7
:1053000000F0A0FD0C4B0D4A0D490E4800F090FD39
:105310000E490D488861AFF21F010D4800F058FE9C
:10532000BDE810400020FEF7C6BB00003C204D4FFA
:105330004445203E0000000035470008555800084D
:10534000CD4A00087D5300083D650008280700206D
:1053500008000020084908784A6832F82020401CDC
:10536000087090B20022022803D0002800D14A70B1
:1053700070470A70EEE700005001002005480178F0
:10538000491CC9B201708278914201D30021017099
:10539000FEF73CBC280700202DE9F04F85B0062021
:1053A000049018200390B1A0B549D0E90067B24835
:1053B0001022002503780A20DFF8C09209681446FD
:1053C0004FF001084FF0200A4FF0300B082B53D25A
:1053D000DFE803F052041D5681B0E1FE0826314695
:1053E0000498FFF747F8224611460498FFF742F861
:1053F000A348CDE9004802950068A2491023007C2B
:1054000001EB4012314602F50072049832E04A7C0A
:10541000B2FBF0F10491B2FBF0F100FB112BF0B202
:10542000074616220399FFF725F8514616223846FB
:10543000FFF720F8C2460094CDE901A50499A046E3
:1054400001EB410000EBC10009EB40024C460B238D
:1054500038460399FEF762FF0BEB4B01CDF8008055
:1054600001EBCB00CDE901A504EB4002C6F3072018
:105470000B23F8E0FEF752FF05B00020BDE8F08FE7
:105480008A7CB2FBF0F10491B2FBF0F100FB112B2E
:10549000300E064616220399FEF7ECFF51461622FF
:1054A0003046FEF7E7FFAA468DE8100504994D4601
:1054B00001EB410000EBC10009EB40020B23304639
:1054C0000399FEF72BFF0BEB4B0101EBCB0005EB38
:1054D0004002F8B22AE0CA7CB2FBF0F10491B2FBC0
:1054E000F0F100FB112BC7F3074006461622039983
:1054F000FEF7C0FF514616223046FEF7BBFFAA4614
:105500008DE8100504994D4601EB410000EBC10008
:1055100009EB40020B2330460399FEF7FFFE0BEB2D
:105520004B0101EBCB0005EB4002380E8DE8100576
:105530000B2398E0282203920A7DB2FBF0FAB2FB1B
:10554000F0F100FB11200490F0B2074616220399F7
:10555000FEF790FF594616223846FEF78BFFAB4602
:105560000AEB4A008DE8100900EBCA0009EB400283
:105570004D460B2338460399FEF7D0FE8DE81009FF
:1055800004980B2300EB400101EBC00005EB400247
:10559000C6F3072067E0282203924A7DB2FBF0F1B0
:1055A0000491B2FBF0F100FB112A300E06461622E0
:1055B0000399FEF75FFF594616223046FEF75AFF61
:1055C000AB464546A046CDF808B0CDE9004500E021
:1055D00019E004994C4601EB410000EBC10009EBD6
:1055E00040020B2330460399FEF798FE0AEB4A016E
:1055F00001EBCA00CDE9008504EB4002F8B20B23B1
:10560000CDF808B02FE0282203928A7DB2FBF0F19A
:105610000491B2FBF0F100FB112AC7F307400646E4
:1056200016220399FEF726FF594616223046FEF74A
:1056300021FFAB468DE8100904994D4601EB41006E
:1056400000EBC10009EB40020B2330460399FEF743
:1056500065FE0AEB4A0101EBCA0005EB40028DE84A
:105660001009380E0B23039904E7000006111C24CF
:105670002F3A424D58680000180100207777000843
:1056800088000020977300082DE9F041114C124F5B
:10569000002500BF05F1B000C0B2FDF778F9002089
:1056A000FDF775F91020FDF772F9002678780028CB
:1056B00014F8010B01D0C043C0B2FDF76CF9761CA1
:1056C000F6B2802EF2D36D1CEDB2082DE2D3BDE808
:1056D000F08100004C070020EC06002002484178D1
:1056E000491E417000F00AB81801002002484178B4
:1056F000491C417000F002B818010020F0B52B4998
:10570000294801230A68014690F800C01624632541
:105710000C261F274978BCF1080F09D2DFE80CF0EE
:1057200008040B151E27313A107C10B100201074AC
:10573000F0BD1374F0BD632901D9447002E016294D
:1057400000D2457040785074F0BD0C2901D94370E7
:1057500001E001B9467040789074F0BD1F2901D96D
:10576000437001E001B947704078D074F0BD6329FF
:1057700001D9447002E0162900D2457040781075B6
:10578000F0BD0C2901D9437001E001B946704078A1
:105790005075F0BD1F2901D9437001E001B9477070
:1057A00040789075F0BD00001801002088000020AE
:1057B0007CB56A4607210220FCF760FF9DF80000D7
:1057C0001B4C00F07F00A070FBF7C2F8194D287049
:1057D0009DF8010000F07F006070FBF7B9F8687079
:1057E0009DF8020000F03F002070FBF7B1F8A870B0
:1057F0009DF8030000F03F006071FBF7A9F86871A5
:105800009DF8050000F01F002071FBF7A1F8A871BA
:105810009DF80600E070FBF79BF8E8719DF8040026
:1058200000F00700A071FBF793F828717CBD000021
:10583000E00500203201002010B5FFF7B9FF044851
:105840000078002803D1BDE81040FFF7B1BF10BDBC
:105850007E00002005490878401EC2B20A70887890
:10586000824201D3401E0870FEF7D0B928070020FD
:105870002DE9F843DFF8CC8080214046FBF702FB9E
:10588000314C0125002798B9FFF79CFC0646E068DB
:105890006168301A88420BD980214046FBF7F2FA42
:1058A00018B18DF80150E66004E08DF80170FAE758
:1058B0008DF801506178022001291CD08DF802502A
:1058C0008DF800502178022900D02070DFF87C90FC
:1058D0000226E84609EB061418F80600E0B100219C
:1058E00060794006000E607121B340F001006071E4
:1058F000207998B116E067702078012807D02078C9
:105900000028E3D18DF800708DF80250DEE78DF8A5
:1059100000508DF80270D9E70121E1E7FFF752FC52
:1059200020602571A07938B9A06828B1804718B1E6
:10593000A57101E02771A771761EF6B2CAD2BDE843
:10594000F883000000080140D4000020F806002081
:10595000024800214170817070470000250100203D
:105960000348807808B1002070470120704700008C
:1059700025010020FCF792BE0078002901D0C04329
:10598000C0B27047F0B4354935480427CA7800687A
:105990009AB1344A01240E4653780A46D278521EF0
:1059A000D5B2304A022B12780AD0072B08D0092B27
:1059B00020D0012B36D0062B34D0C773F0BC7047F3
:1059C000012A01D0022AF9D14F78002FF6D14C706C
:1059D0000224C47356F82A4FC0F805407468C0F812
:1059E00009403489A0F80D40CD70012AE6D1072B7B
:1059F0002FD0E3E7012A01D0022ADFD18B78002BD8
:105A0000DCD103238C70C37356F8523FC0F80530C5
:105A10007368C0F809303389A0F80D30CD70012AC1
:105A200017D0CBE7012A01D0022AC7D10F78002F67
:105A3000C4D10C70C473346AC0F80540746AC0F8ED
:105A40000940348DA0F80D40CD70012AB6D1062B47
:105A5000B4D1F0BC811D401D00F0E4BC100000205A
:105A6000880000201801002010B5094C0949207851
:105A70008871FEF713F804F10C0000F0E3FF06480C
:105A80000168E160406820610120607010BD000085
:105A90003C010020EC06002032010020FFF79EBBF5
:105AA000024903200968087170470000880000203F
:105AB00070B5FEF733F8164C164D207870B10528F6
:105AC00010D00628607816D0E8716A79A97900F0BC
:105AD00077FF2871BDE87040FEF76EBD052020708D
