:020000040800F2
:1000000048120020010100082B2000085D1A00089A
:1000100029200008BD060008FD230008000000009C
:100020000000000000000000000000008121000826
:10003000BF060008000000005D210008FD21000847
:100040001B0100081B0100081B0100081B01000820
:100050001B0100081B0100081B0100081B01000810
:100060001B0100081B0100081B0100081B01000800
:100070001B0100081B0100081B0100081B010008F0
:100080001B0100081B0100081B0100081B010008E0
:100090001B0100081B0100081B010008C106000825
:1000A0001B0100081B0100081B0100081B010008C0
:1000B0001B010008612200081B0100081B01000849
:1000C0001B0100081B0100081B0100081B010008A0
:1000D0001B0100081B0100081B0100081B01000890
:1000E0001B0100081B0100081B010008DFF80CD0F1
:1000F00000F0CAFA004800471932000848120020F0
:100100000648804706480047FEE7FEE7FEE7FEE7B1
:10011000FEE7FEE7FEE7FEE7FEE7FEE75F220008F8
:10012000ED000008202A04DB203A21FA02F0002129
:10013000704721FA02F3D040C2F1200291400843F7
:1001400019467047D2B201E000F8012B491EFBD2DC
:1001500070470022F6E710B513460A4604461946D2
:10016000FFF7F0FF204610BD421E12F8013F002BA2
:10017000FBD111F8013B02F8013B002BF9D170478C
:10018000421C10F8011B0029FBD1801A70472DE991
:10019000FE4F804681EA0300C00F0C46009021F01C
:1001A000004123F00045B8EB0200A94105D24046CA
:1001B000214690461C460B46024623F00040104361
:1001C00047D0270DC7F30A00C3F30A510290401A23
:1001D000019040286BDAC3F3130040F4801B0098B1
:1001E000924620B10023D2EB030A63EB0B0B01987C
:1001F0005946C0F14002504600F098F906460D46B7
:1002000050465946019A00F0A0F910EB08006141F0
:10021000002487EA115284EAE7731A4340D0009A17
:1002200062B3019A012A4FEA075215DC001B61EB09
:1002300002014FF0004202EA0752CDE90042001CE1
:1002400041F5801132462B4600F0A0F903B0BDE81D
:10025000F08F40462146F9E7001B61EB0201001CCC
:1002600041F5801300185B412018A2F5001747EBF9
:10027000030140EAD570B6196D4111E06D084FEAEF
:10028000360645EAC0754FEA0752001B61EB0201D2
:10029000001C41F5801149084FEA30000019514116
:1002A00032462B4603B0BDE8F04F00F060B900982D
:1002B000012240000023D0EB020263EBE0730098C0
:1002C00021464FEAE074B8EB000061EB0401E9E776
:1002D00083F000435BE781F0004158E72DE9FE4FD2
:1002E00081EA030404F0004421F0004100944FF03F
:1002F000000B23F0004350EA01045ED052EA0304ED
:100300005BD0C3F30A54C1F30A552C44A4F2F3346E
:100310000194A0FB0254C1F3130141F48011C3F313
:10032000130343F4801301FB024400FB034E840AD1
:10033000970A44EA815447EA8357A4FB0768029569
:100340008D0A05FB07854FEA932C04FB0C54270507
:10035000029D4FEA065847EA1637B5EB08056EEBE3
:10036000070C870E920E47EA811742EA8312A7FB19
:100370000201B6EB0B0164EB00042B0D43EA0C33D6
:100380005E1844EB1C50DA465146E7FB0201C5F308
:1003900013044FEA0B3343EA14534FEA0432019C2F
:1003A00043EA0603A4F10C040294009CCDE900B4D6
:1003B00000F0ECF803B0BDE8F08F00200146F9E74B
:1003C0002DE9F04D81EA030404F0004B21F00045D3
:1003D00014464FF0000A23F0004150EA050220D0F5
:1003E00054EA01021DD0C5F30A570246C5F31303B0
:1003F000C1F31300C1F30A5640F4801543F480138F
:10040000A7EB0608101BD64608F2FD3873EB050073
:1004100002D308F1010801E092185B41B8F1000F26
:1004200003DA00200146BDE8F08D00204FF4801172
:10043000064684460EE0171B73EB050705D3121B17
:1004400063EB050306434CEA010C49084FEA300010
:1004500092185B4150EA0107EDD152EA030012D035
:1004600082EA040083EA0501084305D0101BAB4172
:1004700006D20122002306E000224FF0004302E0F2
:100480006FF0010253101AEB06004CEB085110EB11
:100490000A0041EB0B01BDE8F04D00F068B830B543
:1004A0000B46014600202022012409E021FA02F532
:1004B0009D4205D303FA02F5491B04FA02F52844CC
:1004C000151EA2F10102F1DC30BD2DE9F05F0546F9
:1004D000002092469B4688460646814640241BE003
:1004E0002846414647462246FFF71CFE53465A46D9
:1004F000C01A914110D311461846224600F016F852
:100500002D1A67EB01084F4622460120002100F01A
:100510000DF817EB00094E41201EA4F10104DFDCA9
:10052000484631462A464346BDE8F09F202A04DB70
:10053000203A00FA02F1002070479140C2F12003F6
:1005400020FA03F3194390407047202A06DBCB17AB
:10055000203A41FA02F043EAE07306E041FA02F37E
:10056000D040C2F12002914008431946704710B5AF
:10057000141E73F1000408DA401C41F100019218C6
:100580005B411A4301D120F0010010BD2DE9F04D6F
:1005900092469B4611B1B1FA81F202E0B0FA80F2C4
:1005A00020329046FFF7C2FF04460F4640EA0A0099
:1005B00041EA0B0153465A46084313D0114653EA09
:1005C000010019D0C8F140025046FFF7ABFD0546C7
:1005D0000E46504659464246FFF7A8FF084305D04D
:1005E000012004E020463946BDE8F08D0020054397
:1005F00046EAE0762C4337430A986305E40AA0EB09
:1006000008000022FD0A44EA47540A3002D50020BF
:100610000146E9E7010510196941DDE908450019BE
:100620006941BDE8F04DA2E7C1F30A52C1F31301DD
:1006300040F2FF3341F480119A4202DA0020014671
:10064000704740F233439A42A2F2334202DC5242F4
:10065000FFF768BDFFF76ABF30B5041E71F10004F3
:1006600004DB4FF00044404264EB0101141E73F1BF
:10067000000405DB1C464FF00043524263EB0403C9
:10068000994208BF904230BD064C074D06E0E06835
:1006900040F0010394E8070098471034AC42F6D3C9
:1006A000FFF728FD383C0008583C000800F00F0117
:1006B000000900EB800001EB40007047FEE7704747
:1006C000402000F055B872B6FEE7000070B5044651
:1006D00000F054F90546601C02D004480078044438
:1006E00000F04CF9401BA042FAD370BD2C00002052
:1006F00070B51A4E05464021304600F035F90446E3
:100700002021304600F030F9402D26D114494FF019
:1007100000050A7854EA02034FF0010203D14D703C
:1007200000B14A700A70012C17D10B78012B14D13B
:1007300000280C4B0C4C0D4E487801D038B10BE022
:10074000012809D11868401E1860227003E018685B
:10075000401C1860257032700D7070BD000801409B
:1007600000000020700000206000002061000020D8
:10077000044910B50A68024202D00860FFF7B8FFCA
:1007800010BD0000140401402DE9F84FDFF8B891C6
:10079000002409F1040A0AF1040B23460F270BF188
:1007A000040EC9E00125A5402A40AA427DD1674E2A
:1007B000D1F804C0ACEB0608B44532D014DCBCF16F
:1007C000030F3AD009DCBCF1000F2AD0BCF1010FB5
:1007D0001CD0BCF1020F31D11DE0BCF1110F17D0BC
:1007E000BCF1120F2AD119E0B8F5881F19D006DC28
:1007F000B8F5803F15D0B8F5801F1FD111E0B8F5CE
:10080000001F0ED0B8F5041F18D10AE0CB6815E020
:10081000CB681B1D12E0CB6808330FE0CB680C33AC
:100820000CE08B682BB1012B4FF0080303D045611E
:1008300004E0042302E0056100E00023FF2A01D860
:10084000064601E000F104064FEA840501D9A5F14E
:100850002005D6F8008007FA05FC28EA0C0803FA00
:1008600005F548EA0508C6F800804D68ED0062D538
:10087000374DAE6946F00106AE61AD6924F003065E
:1008800005F001050095334D06EB050CDCF808502A
:10089000A607360F07FA06F825EA0805DFF8B8803C
:1008A000404503D14FF0000817E044E0DFF8AC808A
:1008B000404502D14FF001080FE0DFF8A480404529
:1008C00002D14FF0020808E0DFF89880404502D1DD
:1008D0004FF0030801E04FF0040808FA06F848EA70
:1008E0000508CCF808804D68D9F80060ED034D4646
:1008F00001D5164300E096432E604D68DAF800609B
:10090000AD03554601D5164300E096432E604D6871
:10091000DBF80060ED025D4601D5164300E096432A
:100920002E604D68DEF80060AD02754601D51643B5
:1009300000E096432E60641C0D682A46E5407FF473
:1009400031AFBDE8F88F0000000401400000111035
:10095000001002400000014000080140000C01406E
:1009600000100140001401408068084000D00120C0
:1009700070470AB1016170470904FBE701488068CC
:10098000704700002C00002070B5040025D094F8BA
:100990003D00002520B984F83C50204600F078FA4C
:1009A000242084F83D002068016821F001010160E5
:1009B0002068016841F4004101602068016821F469
:1009C0000041016000F0BEFB4D4A6168914201D8D0
:1009D0004C4900E04C49884201D2012070BD4B498E
:1009E0002368B0FBF1F15E6826F03F060E435E60BF
:1009F0006368934206D94FF4967359434FF47A7360
:100A0000B1FBF3F12368491C1E6A26F03F0631430F
:100A100019626168914210D84900401EB0FBF1F2A2
:100A2000521CC2F30B02042A01D2042022E0B0FBC4
:100A3000F1F0401CC0F30B001CE0A268F2B301EB24
:100A4000C10303EB0116431EB3FBF6F35B1C43F437
:100A500080431B0549D092B301EBC10202EB0111A7
:100A6000401EB0FBF1F0401CC0F30B0040F480408E
:100A700040F400402168CA694CF6FF739A43104362
:100A8000C861D4E9071001432068026822F0C0025F
:100A900011430160D4E9030101432068826848F2F0
:100AA000FF339A4311438160D4E90501084321686B
:100AB000CA6822F0FF021043C86001E00EE016E0B1
:100AC0002068016841F0010101602564202084F85C
:100AD0003D00256384F83E50002070BD01EB4106C7
:100AE000431EB3FBF6F35B1CB3E70120C2E701EB47
:100AF0004101401EB0FBF1F0401CC0F30B00B7E712
:100B0000A086010080841E0000093D0040420F00C5
:100B10002DE9FF4F83B00025DDE910799A46934611
:100B20000446DDF848800095FFF728FF064694F854
:100B30003D0020287CD119230122854920460096BA
:100B400001F09CF80028F5D194F83C0001286FD002
:100B5000012084F83C0020680168C90703D10168BE
:100B600041F0010101602068016821F40061016029
:100B7000222084F83D00402084F83E00256467620E
:100B8000A4F82A90608D20857248E062CDE9008645
:100B900053465A462046049900F078FF00287DD13C
:100BA000208DDFF8B491202768B1012814D00228E5
:100BB000206801681ED041F48061016020684169AD
:100BC00080690090B6E02068416981690091016800
:100BD00041F400710160ADE02068016821F480619A
:100BE000016072B62068416981690091016841F431
:100BF00000710AE041F40061016072B62068416949
:100C000081690091016821F48061016062B691E020
:100C1000032868D801280CD0022843464FF0000270
:100C20004946204600960FD001F028F8B0BB10E0EE
:100C30008BE032464146204601F09FF870BB2068A9
:100C40000069616A08706CE001F018F830BB72B698
:100C500034E02068016821F48061016072B6206888
:100C60000069616A0870606A401C6062208D401EE5
:100C70002085608D401E6085384846F2A8110068C6
:100C8000B0FBF1F0C0EBC00000EB80000090401E14
:100C9000009008D020684069C04300E029E0400788
:100CA0000CD50098F3E744F8305F6773A5732069AB
:100CB00040F02000206162B625731AE020680168C8
:100CC00041F40071016020680069616A0870606A1F
:100CD000401C6062218D491E2185618D491E618500
:100CE00062B621681BE032464146204601F045F8D5
:100CF00018B1012007B0BDE8F08F20680069616A73
:100D00000870606A401C6062218D491E2185618DDA
:100D1000491E618521684A69D24352070AD409698C
:100D20000170606A401C6062208D401E2085608DCD
:100D3000401E6085208D00287FF46AAF84F83D70E6
:100D400084F83E5084F83C50D4E70220D2E70000FB
:100D5000020010000000FFFF040001003800002026
:100D60002DE9FF4F83B09A46DDE91197934604467B
:100D7000DDF84080FFF702FE054694F83D0020288C
:100D80007FD11923012240492046009500F076FFCB
:100D9000002876D194F83C00012872D0012084F814
:100DA0003C0020680168C90703D1016841F00101D6
:100DB00001602068016821F400610160212084F84D
:100DC0003D00402084F83E0000262664C4F82480BC
:100DD000A4F82A90608D20852C48E062CDE900754A
:100DE00053465A462046049900F0CEFE70B930E0D2
:100DF0002A463946204600F0F3FF58B1206C0428FB
:100E000004D12068016841F400710160012007B03D
:100E1000BDE8F08F606A216800780861606A401C54
:100E20006062218D491E89B22185628D521E6285C4
:100E300022685369DB435B070BD469B1007810610A
:100E4000606A401C6062208D401E2085608D401EBF
:100E50006085208D0028CBD12A463946204600F0F7
:100E6000E7FE0028CAD154F83D0B016841F4007137
:100E70000160202004F81E09E67766770020C6E7A7
:100E8000FFE70220C3E70000020010000000FFFFA0
:100E900010B586B000210091019102910391006884
:100EA0000F4988421AD10F4CA06940F00800A06198
:100EB000A069694600F008000490C020009012204C
:100EC0000190032003900848FFF75EFCE06940F4BE
:100ED0000010E061E06900F40010049006B010BD5D
:100EE0000054004000100240000C0140024881689C
:100EF00002781144816070472C000020074810B52B
:100F0000016841F010010160032000F073F80F2028
:100F100000F006F800F024F8002010BD0020024088
:100F200070B50D4D04464FF47A712878B1FBF0F09E
:100F30000A490968B1FBF0F000F0EAFA48B9102C50
:100F400007D200222146501E00F034F800206C60C9
:100F500070BD012070BD00002C0000203800002072
:100F60000B4808B5816941F001018161816901F097
:100F700001010091C16941F08051C161C06900F077
:100F8000805000900348416821F0E061416008BD55
:100F90000010024000000140002809DB00F01F02A1
:100FA000012191404009800000F1E020C0F80011CB
:100FB00070470000F0B40E4B1B680C46C3F30223CD
:100FC000C3F10705042D00D90425191D072901D2F5
:100FD000002300E0DB1E012606FA05F1491E214030
:100FE00099409E40761E16403143F0BC01F022BA73
:100FF0000CED00E0064900F0070208684FF6FF0319
:10100000184040EA0220034A10430860704700007D
:101010000CED00E00000FA052DE9F0470F46050051
:1010200061D0434E306800F00700B84209D2306802
:1010300020F0070038433060306800F00700B84205
:1010400051D128683B4C810712D5400703D5606811
:1010500040F4E06060602878000703D5606840F4E1
:10106000605060606068A96820F0F000084360602C
:101070002878C00728D06868012810D02168022885
:1010800010D0890700292EDA616821F0030101439D
:101090006160FFF773FC804641F288390DE02168FA
:1010A0008903EFE78901EDE7FFF768FCA0EB080192
:1010B000494502D90320BDE8F0876068696800F0FF
:1010C0000C00B0EB810FEFD1306800F00700B842A0
:1010D0000BD9306820F0070038433060306800F0EA
:1010E0000700B84201D00120E5E72878400705D580
:1010F0006068E96820F4E0600843606028780007D1
:1011000006D56068296920F4605040EAC10060603B
:1011100000F038F86168084AC1F30311515CC84017
:101120000649086006480068FFF7FAFE0020C2E79B
:101130000020024000100240D8350008380000208E
:10114000300000200448054900684968044AC1F39A
:101150000221515CC8407047380000200010024056
:10116000E83500080448054900684968044AC1F3A5
:10117000C221515CC8407047380000200010024076
:10118000E835000812A185B00FC98DE80F0014A042
:10119000144A006804905168134801F00C03042BB2
:1011A00010D0082B0ED1C1F38343C9031DF80300EF
:1011B0000AD5516804AAC1F34041515C0A4A504320
:1011C000B0FBF1F005B0704708494843FAE700006A
:1011D00002030405060708090A0B0C0D0E0F101078
:1011E000010200000010024000127A0000093D00D8
:1011F0002DE9F84F040070D02078C04DC00749D0C9
:101200006868C0F38100012807D06868C0F38100D6
:10121000022809D16868C00306D52868800339D53B
:1012200060680028E7D035E06068B0F5803F0BD0FB
:1012300010B1B0F5A02F11D0286820F480302860BC
:10124000286820F4802002E0286840F4803028607C
:10125000606890B1FFF792FB06460AE0286840F408
:1012600080202860F0E700BFFFF788FB801B642820
:1012700073D828688003F7D50CE0FFF77FFB06469C
:1012800005E000BFFFF77AFB801B6428F0D82868D0
:101290008003F7D420789A4E80074FF001094FF071
:1012A000000839D5686810F00C0F07D06868C0F3E3
:1012B0008100022809D16868C00306D42868800725
:1012C00014D52069012808D110E02069B0B1C6F812
:1012D0000090FFF753FB074605E00AE1FFF74EFBDE
:1012E000C01B0228C4D828688007F7D52868616920
:1012F00020F0F80040EAC10028600DE0C6F8008048
:10130000FFF73CFB074604E0FFF738FBC01B022851
:1013100023D828688007F7D4207800072CD579488F
:10132000A169D9B1C0F80090FFF728FB074604E097
:10133000FFF724FBC01B02280FD8686A8007F7D587
:1013400071484FF4FA510068B0FBF1F0009000BF13
:101350000098411E0091FAD20EE080E0C0F80080B3
:10136000FFF70CFB074604E0FFF708FBC01B022851
:1013700075D8686A8007F7D42078400760D5E86997
:101380000027C00008D4E86940F08050E861E869AF
:10139000012700F0805000905C480168C90513D413
:1013A0000168834641F480710160FFF7E7FA8246E5
:1013B00006E000BFFFF7E2FAA0EB0A0064284ED86F
:1013C000DBF80000C005F5D5E06801280AD008B1B7
:1013D000052813D0286A20F001002862286A20F02E
:1013E000040002E0286A40F001002862E06841F24F
:1013F000883B98B1FFF7C2FA82460BE0286A40F0BA
:1014000004002862EEE700BFFFF7B8FAA0EB0A017C
:1014100059455AD8286A8007F6D50CE0FFF7AEFA8E
:10142000824605E0FFF7AAFAA0EB0A0159454CD81D
:10143000286A8007F6D41FB1E86920F08050E8617F
:10144000E06988B36968C1F38101022944D00228A8
:10145000C6F8608004D0FFF791FA044638E034E023
:10146000FFF78CFA074604E0FFF788FAC01B022852
:101470002BD828688001F7D4206AB0F5803F05D1C9
:101480006868A16820F4003008436860D4E9080166
:101490000843696821F4741108436860C6F86090D5
:1014A000FFF76CFA044606E025E000BFFFF766FA96
:1014B000001B022809D828688001F7D51BE000BF6F
:1014C000FFF75CFA001B022802D90320BDE8F88F61
:1014D00028688001F4D40EE00128F7D06868226AF9
:1014E00000F48031914204D1616A00F470108842A6
:1014F00001D00120EAE70020E8E7000000100240E8
:101500000000424280044242380000200070004047
:1015100010B5401EB0F1807F01D3012010BD4FF007
:10152000E02460610F21601700F084FF0020A061BB
:1015300007202061002010BD7047704770B590F8FB
:101540003C20012A26D0012480F83C40022280F869
:101550003D2003685A689D6822F070060A6832438D
:101560005A600D4B02689A4208D0B2F1804F05D004
:101570000A4B9A4202D00A4B9A4204D1496825F09C
:1015800080031943916080F83D40002180F83C10B1
:10159000084670BD022070BD002C014000040040D0
:1015A0000008004010B5040003D094F83D0010B1CD
:1015B00007E0012010BD002084F83C00204600F028
:1015C0001FF8022084F83D00211D206800F04EFE27
:1015D000012084F8460084F83E0084F83F0084F837
:1015E000400084F8410084F8420084F8430084F805
:1015F000440084F8450084F83D00002010BD000040
:1016000008B500680B49884212D10B48C16941F006
:101610000201C161C069002200F002000090114681
:101620001D20FFF7C7FCBDE808401D20FFF7B4BC34
:1016300008BD0000000400400010024090F83D107A
:10164000012901D001207047022180F83D10016876
:10165000CA6842F00102CA6000680B49884208D09B
:10166000B0F1804F05D00949884202D0084988422C
:1016700004D1816801F00701062903D0016841F017
:101680000101016000207047002C0140000400406F
:101690000008004070B5044690F83C00012817D0BF
:1016A000012584F83C50022084F83D0020688268BF
:1016B00022F0770222F47F4282600868502830D0FE
:1016C0000DDC20284DD005DC98B310283BD148E034
:1016D000022070BD302844D0402834D139E0602841
:1016E00028D0702806D0B0F5805F2CD0B0F5005F10
:1016F00029D10AE0CB68D1E90121206800F0ECFD96
:101700002068816841F0770109E0CB68D1E90121C7
:10171000206800F0E1FD2068816841F4804181602B
:1017200011E0CA684968206800F0E8FD502120688F
:1017300007E016E0CA684968206800F0F0FD602103
:10174000206800F0D3FD84F83D50002084F83C0070
:1017500070BDCA684968206800F0D0FD402120684B
:10176000EFE7226801461046EBE7704770B5044684
:10177000006801694FF00005C943890715D4C168A5
:10178000C943890711D4E91E01610120207720682F
:1017900080698007204602D0FFF7E7FF04E000F0F1
:1017A00098F8204600F096F8257720680169C9432B
:1017B000490717D4C168C943490713D46FF004011E
:1017C0000161022020772068806910F4407F204664
:1017D00002D0FFF7CAFF04E000F07BF8204600F0DB
:1017E00079F8257720680169C943090716D4C168CB
:1017F000C943090712D46FF0080101610420207762
:101800002068C0698007204602D0FFF7AEFF04E0E1
:1018100000F05FF8204600F05DF825772068016948
:10182000C943C90617D4C168C943C90613D46FF0A8
:1018300010010161082020772068C06910F4407F02
:10184000204602D0FFF791FF04E000F042F8204666
:1018500000F040F8257720680169C943C90708D11D
:10186000C168C943C90704D1891E0161204600F03F
:1018700033F820680169C943090609D4C168C9431E
:10188000090605D46FF0800101612046FFF754FE80
:1018900020680169C943490609D4C168C94349069A
:1018A00005D46FF040010161204600F04FF8206838
:1018B0000169C94389060BD4C168C943890607D4A5
:1018C0006FF0200101612046BDE87040FFF735BE92
:1018D00070BD70477047000030B51848C822816855
:1018E000491CB1FBF2F302FB1313012281600BB917
:1018F000134B1A7083784FF47A746343B1FBF3F49B
:1019000003FB141101B94270C178027901EB410166
:10191000B2EB410F10D9002202710B4C0178094B38
:1019200004EB0114491C9D7825705B78C9B2637083
:1019300001700B2900D9027030BD0000200000208A
:101940009600002097000020F4050020704770B535
:10195000040004D094F83D00002510B106E00120F9
:1019600070BD84F83C50204600F022F8242084F812
:101970003D002068C16821F40051C160204600F09C
:10198000E1FC2068016921F490410161206841690E
:1019900021F02A0141612068C16841F40051C16011
:1019A0002564202084F83D0084F83E00002070BDAE
:1019B00070B586B000240094019402940394234EE1
:1019C0000368234902200322224DB34219D18B69B7
:1019D00043F480438B618B6903F4804304938B69E8
:1019E00043F004038B618969039201F004010491BF
:1019F0000102CDE9001069462846FEF7C5FE28150C
:101A00001BE0154EB3421FD1CB6943F40033CB61C9
:101A1000CB6903F4003304938B6943F004038B61B7
:101A20008969039201F0040104910421CDE90010B9
:101A300069462846FEF7A8FE0820CDE9000469465D
:101A400028460294FEF7A0FE06B070BD00380140A3
:101A5000001002400008014000440040FEE7016819
:101A60004A69D24352050FD46FF480624A61002163
:101A700040F8301F202242738173026942F0040251
:101A80000261017301207047002070472DE9F84F73
:101A90000446006889460B9D01689846174641F444
:101AA000806101602068016841F4807101600095E7
:101AB0004FF0011B0022594620460A9B00F0DEF839
:101AC0004FF4007A40B120680068C00501D5C4F821
:101AD00040A00320BDE8F88F216809F0FE000861EE
:101AE0002B46284920460A9A00F0FCF8F0BB2068F3
:101AF0004169806900902A4620460A9900F070F9F1
:101B000040B1206C04283AD12068016841F400718A
:101B1000016034E0FEB2B8F1010F09D02168380A43
:101B200008612A4620460A9900F05AF90028E8D1AF
:101B3000206806612A4620460A9900F051F90028DB
:101B4000DFD12068016841F48071016000950022B6
:101B5000594620460A9B00F091F80028B3D121682D
:101B600009F0FF0040F00100086100E007E02B46AB
:101B7000044920460A9A00F0B5F80028AAD00120AE
:101B8000A8E70000020001002DE9F84304460068C0
:101B90000D46DDE9089701689846164641F48071C4
:101BA00001604B4600224FF001112046009700F0E3
:101BB00065F848B120680068C00502D54FF4007090
:101BC00020640320BDE8F883216805F0FE00086169
:101BD0003B464A461549204600F084F888B92068FB
:101BE0004169806900903A464946204600F0F8F87D
:101BF00048B1206C042804D12068016841F40071C8
:101C000001600120DEE7F5B2B8F1010F09D02168CB
:101C1000300A08613A464946204600F0E1F80028BB
:101C2000E7D1206805610020CCE700000200010038
:101C300070B516460D4604460DE02046FFF70FFF2F
:101C400008B1012070BD681C05D0FEF797FE801B0F
:101C5000A84207D835B120684069C0434007ECD49A
:101C6000002070BD002044F8300F20216173A07364
:101C7000216941F0200121612073E2E72DE9F0475D
:101C80001E4690460D460446C1F30747DDF82090F6
:101C900008E0701C06D0FEF771FEA0EB0900B04210
:101CA0000FD876B12068012F18D0806925EA00008E
:101CB0000004000C14D000214145EAD00020BDE80A
:101CC000F087002044F8300F20216173A073216950
:101CD00041F02001216120730120F0E74069E5E730
:101CE0000121E9E72DE9F0479A4691460E46044660
:101CF00000254FF02008C1F3074725E02068406920
:101D0000C043400514D42068016841F400710160AB
:101D100021686FF480604861256384F83D8084F811
:101D20003E50206C40F00400206484F83C501FE0DA
:101D3000B9F1FF3F08D0FEF721FEA0EB0A014945AB
:101D40000CD8B9F1000F09D02068012F13D0806999
:101D500026EA00000004000C0BD0CFE744F8305F07
:101D600084F80D80A573206940F020002061257360
:101D70000120BDE8F0874069EAE72DE9F041002540
:101D800090460E460446202717E04069C043C0062F
:101D90000CD454F8301B6FF01000486144F810590F
:101DA0006777A577206A2062257717E0FEF7E6FDC2
:101DB000A0EB0800B04208D83EB120684169C94391
:101DC0004906E2D40020BDE8F08144F8305F677333
:101DD000A573206940F02000206125730120F2E7FF
:101DE00070B516460D4604460DE02046FFF737FE57
:101DF00008B1012070BD681C05D0FEF7BFFD801B37
:101E0000A84207D835B120684069C0430006ECD429
:101E1000002070BD002044F8300F20216173A073B2
:101E2000216941F0200121612073E2E703B583B00D
:101E30004FF48073012204A98DE80E001346024678
:101E400078210448FEF78CFF10B1002005B000BDDA
:101E50000120FBE7AC000020F0B585B00024254848
:101E60000094019402940394816941F020018161FE
:101E7000816901F020010491816941F004018161CF
:101E8000816901F004010491816941F008018161D7
:101E90008069194E00F008004FF4005504900022AC
:101EA00029463046FEF765FDA020CDE90004134F1A
:101EB000694638460294FEF767FC402000901048BF
:101EC000CDE9010469463846FEF75EFC0120009525
:101ED000CDE901040220039069463046FEF754FC28
:101EE000002211461720FFF765F81720FFF754F876
:101EF00005B0F0BD00100240000C01400008014098
:101F0000000031100D4810B50B4901600C494160CB
:101F100000214FF480428160C0E903124161816178
:101F2000C1610162FEF730FD002803D0BDE810401A
:101F3000FEF7C9BB10BD000000540040AC000020FB
:101F4000801A060010B586B000241A480094019447
:101F500002940394049416490594016040F29F5141
:101F6000C0E901143121C0E903148461FFF71AFBB1
:101F700008B1FEF7A8FB4FF48050009069460D4869
:101F8000FFF788FB08B1FEF79EFB049404A90948FB
:101F90000594FFF7D3FA08B1FEF795FB0548FFF764
:101FA0004DFB002801D0FEF78EFB06B010BD0000EF
:101FB000000400400C0100200C4810B50A490160E3
:101FC0004FF4E1314160002181600C22C160C0E921
:101FD00004128161C161FFF7BAFC002803D0BDE89B
:101FE0001040FEF770BB10BD0038014054010020C6
:101FF0000C4810B50A4901604FF4165141600021A8
:1020000081600C22C160C0E904128161C161FFF7E7
:102010009EFC002803D0BDE81040FEF754BB10BD65
:102020000044004098010020FEE7FEE770B5002460
:1020300004F1B000C0B200F0E2F9002000F0DFF9D6
:10204000102000F0DCF90025002000F0DCF96D1C08
:10205000EDB2802DF8D3641CE4B2082CE8D370BD37
:1020600070B53C4D4FF40054002221462846FEF73F
:1020700080FC6420FEF72AFB012221462846FEF759
:1020800078FCC820FEF722FBC820FEF71FFBAE201D
:1020900000F0B5F9002000F0B2F9102000F0AFF91F
:1020A000402000F0ACF9B02000F0A9F9812000F048
:1020B000A6F9FF2000F0A3F9A12000F0A0F9A620C6
:1020C00000F09DF9A82000F09AF93F2000F097F960
:1020D000C82000F094F9D32000F091F9002000F01E
:1020E0008EF9D52000F08BF9802000F088F9D820F7
:1020F00000F085F9052000F082F9D92000F07FF981
:10210000F12000F07CF9DA2000F079F9122000F0DB
:1021100076F9DB2000F073F9302000F070F98D20A3
:1021200000F06DF9142000F06AF9AF2000F067F9B3
:10213000FFF77CFF0848C07838B1A02000F05FF9B5
:10214000C020BDE8704000F05AB9A12000F057F956
:10215000C820F6E7000C0140E801002070470000AD
:102160000EB54FF480730092CDE9011302460123AE
:10217000A3210248FEF7CCFC01200EBDAC000020DC
:102180007047000070B51C4D0A24E879B0FBF4F1EB
:1021900004FB1101B0FBF4F001EB0010C1B2082008
:1021A00001F006FAA879B0FBF4F104FB1101B0FBD1
:1021B000F4F001EB0010C1B2072001F0F9F96879E1
:1021C000B0FBF4F104FB1101B0FBF4F001EB0010E3
:1021D000C1B2052001F0ECF92879B0FBF4F104FB61
:1021E0001101B0FBF4F0BDE8704001EB0010C1B28A
:1021F000062001F0DDB9000097000020FEF776BE52
:1022000030B58FB028216846FDF7A3FF14210AA836
:10221000FDF79FFF01210804CDE90010002402947E
:1022200002250491CDE907504FF4E010099068466B
:10223000FEF7DEFF08B172B6FEE70F20CDE90A0512
:102240004FF48060CDE90C4002210AA80E94FEF7FD
:10225000E3FE002801D072B6FEE70FB030BD704734
:102260000148FFF783BA00000C010020F0B50268B6
:10227000164B174C174D4FF08047984205D0B84287
:1022800003D0A04201D0A84203D122F070064A68D0
:102290003243984205D0B84203D0A04201D0A842B0
:1022A00003D122F44074CA6822434C6922F08002B0
:1022B000224302608A68C2620A688262984201D13F
:1022C0000969016301214161F0BD0000002C01405A
:1022D000000400400008004010B5846842EA032270
:1022E00024F47F440A432243826010BD826822F0B6
:1022F00070020A4342F007018160704710B5036A1B
:10230000046A24F001040462846924F0F00444EABD
:10231000021423F00A020A438461026210BD10B560
:10232000036A23F0100303628369046A23F4704391
:1023300043EA023224F0A00343EA01118261016200
:1023400010BD000070B5044600680169E26821F420
:102350004051114301612169A06808436169084344
:102360002168CA6841F20C639A430243CA6020683C
:102370004169A26921F44071114341611E492068FD
:10238000884202D1FEF7EEFE01E0FEF7DBFE00EB35
:10239000C00101EB0012606864218000B2FBF0F321
:1023A000B3FBF1F36FF018067343B2FBF0F5B2FB29
:1023B000F0F605EB8305322303EB0515B5FBF1F5CC
:1023C000B6FBF1F605F0F00505EB0615B2FBF0F6ED
:1023D000B2FBF0F0B0FBF1F06FF01802504306EBE7
:1023E000800003EB0010B0FBF1F0216800F00F005B
:1023F0002844886070BD000000380140FEE70146B7
:102400000020FFF713BD01464020FFF70FBD00007D
:1024100037B514460846064B6A46214600F0ECF8EC
:1024200004466946002000F07EFC20463EBD0000C8
:10243000272D00080907090E002804DB00F1E02021
:1024400080F80014704700F00F0000F1E02080F8E1
:10245000141D704702E008C8121F08C1002AFAD1F3
:1024600070477047002001E001C1121F002AFBD114
:10247000704700002DE9FF5F82B00021DDE90430E4
:10248000020DDDF840B0034318D044F61050A2F21C
:10249000FF3242431514119801281FD0A5EB0B0001
:1024A000401C5FEA000A4FF000064E4FDFF83891FB
:1024B000B046504615D5CAF1000413E01198012426
:1024C0004AA3012801D16FEA0B010298119AC0E9D1
:1024D0000031C0E9024206B0BDE8F09FCBF1000038
:1024E000DFE704460021404A491842EB0450CDE999
:1024F000001012E0E00707D032463B46404649460E
:10250000FDF7ECFE8046894632463B4610461946AA
:10251000FDF7E4FE06460F466410002CEAD1DDE923
:102520000401DDE90023BAF1000F06DAFDF7D6FE5B
:1025300042464B46FDF7D2FE05E0FDF741FF42461D
:102540004B46FDF73DFF04460E460022284BFEF7A2
:1025500083F803D84FF0FF30014607E00022254BF7
:1025600020463146FDF713FEFEF75EF8102409E021
:10257000002C0ADB0A220023FDF7A7FF039B303261
:102580001A55641E50EA0102F2D1641C039AC4F188
:1025900011031444119A012A03D0012208430DD1DA
:1025A0000AE0084304D000204FF0110B119072E7AD
:1025B000A3EB0B056D1E0DE05B4504DD4FF0000243
:1025C00005F1010504E003DA4FF00002A5F1010571
:1025D000002AECD002981199C0E90231C0E9004507
:1025E00079E70000000014400000F03F30000000D8
:1025F0000000F0430000E03F2DE9FF4F95B09B46FF
:102600008946064600250FE2252877D10024274673
:10261000F84A0121059400E0044316F8013F203BED
:1026200001FA03F01042F7D130782A2811D06FF068
:102630002F033078A0F13002092A16D8059A44F009
:10264000020402EB820203EB42021044761C059066
:10265000EFE759F8042B0592002A03DA504244F4BC
:102660000054059044F00204761C30782E2816D1D0
:1026700016F8010F44F004042A280DD06FF02F0241
:102680003078A0F13003092B09D807EB870302EB60
:102690004303C718761CF3E759F8047B761C30789F
:1026A0006C280FD006DC4C2817D068280DD06A287B
:1026B00014D104E0742810D07A280FD10DE044F42E
:1026C00000140AE044F4801401E044F440147278E9
:1026D000824202D104F58014761C761C307866287C
:1026E0000BD013DC582877D009DC002875D045289A
:1026F000F6D04628F4D047281AD19DE118E0632887
:1027000035D0642879D0652812D195E1702873D02E
:1027100008DC6728F1D069286FD06E280DD06F28AB
:1027200006D1B5E073282CD0752875D0782874D0E0
:102730005A46179990476D1C75E1C4F30250022860
:1027400009D003280DD0D9F8001004280DD00D6051
:1027500009F1040967E1D9F80010EA17C1E900524C
:10276000F6E7D9F800100D80F2E70D70F0E719F8E0
:10277000041B8DF8001000208DF80100EA460120AE
:1027800003E059F804AB4FF0FF3061074FF0000150
:1027900002D40DE008F101018846B9420FDA804504
:1027A000F8DB1AF808100029F4D108E008F101015B
:1027B00088468142FADB1AF808100029F6D10598FC
:1027C0005B46A0EB080721463846179A00F094FABA
:1027D000284400EB080507E04DE029E10DE01AF878
:1027E000010B5A4617999047B8F10108F7D25B469A
:1027F00021463846179A13E142E00A220092C4F3B8
:1028000002524FF0000A022A08D059F804CB032ADA
:102810004FEAEC710AD00DE029E02AE009F1070146
:1028200021F00702F2E802C1914609E00FFA8CFCA0
:102830004FEAEC71042A03D14FFA8CFC4FEAEC7199
:10284000002907DA0A460021DCF1000C61EB0201E5
:102850002D2202E0220504D52B228DF8042001222E
:1028600003E0E20701D02022F7E7904659E00A2171
:1028700002E010220DE010214FF0000A00910BE061
:1028800010224FF0000A44F004040827009203E0ED
:1028900008224FF0000A0092C4F30252022A05D027
:1028A00059F804CB0021032A08D009E009F10701F7
:1028B00021F00702F2E802C1914605E01FFA8CFC04
:1028C000042A01D10CF0FF0C4FF00008220728D594
:1028D000702806D0009B83F0100353EA0A0305D04A
:1028E0000EE040228DF80420012208E05CEA01029B
:1028F00006D030228DF804208DF805000222904683
:10290000009B83F0080353EA0A030AD15CEA010240
:1029100001D1620705D530228DF804204FF001085F
:102920007F1E582804D034A003900EA802900DE01A
:1029300036A0F9E753466046009AFDF7C6FD844687
:102940000398825C0298401E029002705CEA0100CB
:10295000F0D1029806A9081A00F1200A600702D5F2
:1029600024F4803400E00127574502DDA7EB0A007C
:1029700000E0002000EB0A01009005984144401A55
:102980000590E00306D45B462146179A059800F0AF
:10299000B3F90544002706E001A85A46C05D17991F
:1029A00090476D1C7F1C4745F6DBE0030CD55B466A
:1029B0002146179A059800F09FF9054404E030205D
:1029C0005A46179990476D1C0099481E009000299F
:1029D000F5DC08E0029802995A460078491C0291F9
:1029E000179990476D1CBAF10001AAF1010AF1DCB8
:1029F00065E10000092801003031323334353637C3
:102A0000383961626364656600000000303132333A
:102A100034353637383941424344454600000000DA
:102A200000F058F90544761C307800287FF4ECADAE
:102A300019B02846BDE8F08F620700D4062709F1D7
:102A4000070222F0070CFCE80223E14603F00048ED
:102A50005FEA080C02D00FF2702C0DE05FEA045C14
:102A600002D50FF2682C07E05FEAC47C02D00FF2B7
:102A7000602C01E0AFF2700C4FF0FF3823F0004300
:102A8000CDF850C065280CD006DC452809D0462872
:102A90001DD047283DD13DE0662818D067287ED15B
:102AA00038E00021112F01DB112000E0781CCDE976
:102AB000000106A90EA8FFF7DDFCDDE90F010E9A63
:102AC00003910021009207F1010A04914DE04FF0BB
:102AD00000400097CDE9011006A90EA8FFF7CAFC37
:102AE000DDE90F0203920E9B11990022DDF80CA084
:102AF0000093049211B9791C00EB010AB7EB0A00AC
:102B000004D4C0F1FF3007F1010A0490AAEB0700DA
:102B1000019044E0012F00DA01270021112F01DD8F
:102B2000112000E03846CDE9000106A90EA8FFF704
:102B3000A1FCDDE90F010E9A03910021049100929E
:102B4000BA4621070CD40399514500DA8A46BAF1F6
:102B5000010F05DD009AAAF10101515C302908D06E
:102B6000B84202DA10F1040F06DA0121CDE90110B2
:102B700015E0AAF10101E9E7002805DC0499014408
:102B80000491AAEB000102E0411C514500DD8A4698
:102B90000499401A401C01904FF000400290200719
:102BA00004D40198504501DBCDF8048000208DF855
:102BB0004F0002980DF14F07B0F1004F25D02B20A8
:102BC0000E9002984FF0020800280CDA4042029062
:102BD0002D200E9007E00A210298FDF760FC3031AD
:102BE000029007F8011DB8F10001A8F10108F2DC1C
:102BF00002980028EFD1791E0E980870307800F006
:102C0000200040F0450007F8020D12A8C01B00F19B
:102C100007081498007800B1012000EB0A01019820
:102C200001EBE07105984144401A401E0590E00315
:102C300006D45B462146179A059800F05DF80544D6
:102C40001498007818B15A46179990476D1CE00304
:102C500024D55B462146179A059800F04DF80544A7
:102C60001CE00498002807DBDDE90301884203DD4E
:102C70000098405C179901E0179930205A46904718
:102C8000049805F10105401C04900198401E019034
:102C900004D12E205A46179990476D1CBAF10001B5
:102CA000AAF1010ADDDC05E017F8010B5A46179975
:102CB00090476D1CB8F10001A8F10108F4DC5B46F7
:102CC0002146179A0598ABE62D0000002B00000066
:102CD000200000002DE9F041044600251E4617465D
:102CE000880404D405E039462020B0476D1C641EDA
:102CF000F9D52846BDE8F0812DE9F04104460025CC
:102D00001E469046C80301D5302700E020278804DE
:102D100004D505E041463846B0476D1C641EF9D520
:102D20002846BDE8F0810A68531C0B60107070479C
:102D3000044A00EB4000104402880A8080788870C2
:102D4000704700005000002000F00CBA01484078A5
:102D500070470000DC010020AFF30080074802222A
:102D600000210270417001238370C17001714171B3
:102D7000817101724272837270470000E801002085
:102D80000FB42DE9F05F834600260CAA57480B9933
:102D9000FFF73EFB564CB246544884F803A0FDF7BB
:102DA000EFF987B21021514800F0CEF90546DFF85F
:102DB0004481401C2AD005F10109B9450CD0607846
:102DC000012600EB800108EB8100EAB2474900F0E0
:102DD000A5FB0FFA89F50BE00DB1EAB21FE06078B0
:102DE000012200EB800108EB810043A100F096FB7B
:102DF000607800EB800108EB8100FDF7C1F9C0B2FB
:102E00002071A178884220D2002719E01120B7FB59
:102E1000F0F0C6B2112F00D1002611252A466078A5
:102E200000EB800108EB81003049DFE7607800EBC0
:102E3000800108EB810030A1FDF796F97F1CFFB2FD
:102E4000A0782179401AB842F0DC2079A07060782F
:102E5000401CC0B26070142802D384F801A004E0C2
:102E6000082802D30120207001E0207880B34FF4BD
:102E700080612248FDF76DF9607814210C30B0FBB9
:102E8000F1F201FB12040127F90004EB840208EBC4
:102E900082020020083900F0B5F9641CE4B2142C59
:102EA00000D300247F1CFFB2082FEDD900F0ACFA4C
:102EB0005846FDF70BFC002E06D00C4810A1421915
:102EC0004FF49670FFF75CFFBDE8F01F5DF814FB50
:102ED000FFE7607800EB8002C10008EB820200206F
:102EE0000839143A00F08EF9E0E7000044080020A9
:102EF0009F000020B406002020000000F401002004
:102F0000257300002DE9FE4F00F078FA154A91680C
:102F1000411A0A2924D3D1700025DFF84C9092463B
:102F20002E464FF01008906000242F01CDE9008656
:102F300004EBC50109EB41122007F9B2000E102382
:102F4000029600F013F8641C082CEFDB6D1C042DB6
:102F5000EADB00F0B7F8DAF80C10491CCAF80C10DC
:102F6000BDE8FE8F74000020F03500082DE9FF4F0A
:102F70008FB01F460D4683461C9CFFF7E7FE284492
:102F80001E9900F0FF09A9EB0100C0B20990E0080A
:102F900006900998002600F00700089009EB04004D
:102FA000C0B2029084E0099800EBC600C4B204F1FC
:102FB000080000F0FF0A1E9880B1CA4576D3BAF126
:102FC000400F73D80298844270D8FF200D904C4572
:102FD00007D2A9EB04018840C0B200E0FF200D90A9
:102FE00007E00298824504D9AAEB0001FF20C840FF
:102FF000F5E7E008C0010490119806FB0700039074
:103000000898E8B9402C1BD20024DFF8B48014E003
:1030100004EB0B00C5B2802D0DD203981D992044FE
:1030200000F076FA0D99084004996A1818F80230F1
:10303000034308F80230641CE4B2BC42E8D335E034
:103040004FEADA00C00100250C902DE005EB0B00E3
:1030500000F0FF08B8F1800F24D203981D9928448E
:1030600000F056FA0D990840402C0BD20499DDF877
:1030700020C008EB0102124900FA0CFC8B5C43EA09
:103080000C038B54BAF1400F0CD20C99DDF820C020
:1030900008EB01020A49CCF1080C20FA0CF08B5C19
:1030A00003438B546D1CEDB2BD42CFD3761CF6B2F8
:1030B00006988642FFF477AF13B0BDE8F08F0000AA
:1030C000F401002000F0A0B92DE9FE4F9946924688
:1030D0000F46064600254FEAD3082BE0C5EBC50294
:1030E00002EB0A01CCB2082200210092CDE9017165
:1030F0002038C0B2124900EB80004218052349462F
:103100002046FFF733FF97B14CB1601E0D49C0B2A6
:1031100000EBC8104FF0FF320A547B2C07D2641D1D
:103120000848E1B201EBC8114FF0FF3242546D1C68
:10313000EDB2761C30780028D0D1BDE8FE8F0000BB
:10314000503A0008F40100200246002005E0135C1C
:103150002BB10A2B05D0401C00B28842F7DD4FF09E
:10316000FF3070472DE9FC47244CFF264FF6FF77D0
:10317000A0788DF80600E0788DF80700002101A8FE
:1031800000F0E4F960782279401CC1B29DF8060095
:1031900000F002FA80460524DFF864A027E06946C3
:1031A0002046FFF7C5FD9DF8020000061FD5062545
:1031B0004FF001099DF8021009FA05F0014213D001
:1031C0009DF801109DF800002A4600F0E5F9B0EBEB
:1031D000080002D542F25F71084481B2B94203D2BD
:1031E00087B226468AF801506D1EEDB2E2D2641E07
:1031F000E4B2D4D28AF80060BDE8FC8797000020D2
:103200003C00002030B4801C1446C2B22046CBB231
:1032100030BC0021FFF758BFFDF770FEFEF7F0FF4E
:10322000582000F0B5F82A49002808604DD05820F1
:1032300000F0AEF827490028086047D0FEF70CFEE2
:10324000FEF7BAFEFEF75EFEFEF7D2FEFEF77AFE4E
:10325000FEF706FF00F046F91FA14FF4FA70FFF7E2
:103260008FFD21A10A20FFF78BFD24A10A20FFF783
:1032700087FD27A10A20FFF783FD2AA10A20FFF777
:103280007FFD2DA10A20FFF77BFD30A10A20FFF76B
:1032900077FD33A10A20FFF773FD36A10A20FFF75F
:1032A0006FFD3949002008604FF480613748FCF712
:1032B00050FFFFF751FDFFF747FDFEF763FF00F0FA
:1032C0001FF900BF00F036F9FCE7FEE7FEE700005B
:1032D0001400002010000020696E69745F4F4C4597
:1032E000443A204F4B0000002D2D2D2077656C6354
:1032F0006F6D6520212D2D2D0000000020205F2006
:1033000020205F202020205F2020202000000000BF
:10331000207C207C207C207C20207C5F7C20202046
:1033200000000000207C207C5F7C207C2020205F2F
:103330002020202000000000207C20205F20207C16
:1033400020207C207C20202000000000207C207C8D
:10335000207C207C20207C207C202020000000007D
:10336000207C5F7C207C5F7C20207C5F7C20202078
:1033700000000000202020202020202020202020CD
:10338000202020200000000028000020F401002060
:10339000F0B50B30154D20F007010024144A0FE062
:1033A00003688B420BD38B4205D95E1A43184768DA
:1033B000C3E9006700E04368136002C004E0021D37
:1033C00010680028ECD12046002802D1286808B1F6
:1033D0000020F0BD064A07481060074A121A22F082
:1033E0000702C0E9002401202860D7E7A8000020D8
:1033F000A40000204C0C0020480E002001488068EA
:1034000070470000200000202DE9F041114C124FC0
:10341000002500BF05F1B000C0B2FEF7F0FF0020AC
:10342000FEF7EDFF1020FEF7EAFF0026787800286F
:1034300014F8010B01D0C043C0B2FEF7E4FF761CC4
:10344000F6B2802EF2D36D1CEDB2082DE2D3BDE8AA
:10345000F0810000F4010020E80100207CB56A46FC
:1034600007210220FEF77CFE9DF800001B4C00F0B7
:103470007F00A070FDF71AF9194D28709DF8010022
:1034800000F07F006070FDF711F968709DF8020090
:1034900000F03F002070FDF709F9A8709DF80300C7
:1034A00000F03F006071FDF701F968719DF80500BB
:1034B00000F01F002071FDF7F9F8A8719DF80600D3
:1034C000E070FDF7F3F8E8719DF8040000F00700E4
:1034D000A071FDF7EBF828717CBD00000001002011
:1034E0009700002010B5FFF7B9FF044800780028C6
:1034F00003D1BDE81040FFF7B1BF10BD08000020A8
:103500000248002141708170704700009200002045
:103510000078002901D0C043C0B2704710B5002325
:1035200003E0CC5CC4545B1CDBB29342F9D30021B2
:10353000C15410BD10B5FFF7E5FCBDE810404FF4D5
:1035400080610148FCF705BEF40100208278C37851
:10355000012904D0412B15D0502B17D01AE0202B75
:103560000FD10C2A06D302D9A2F10C02D2B24FF02D
:10357000500104E00AB94FF00C024FF04101C17054
:10358000827070470C2A05D1002203E00C2A01D278
:103590000C32D2B22021F2E7C0EB001001EB800028
:1035A000C2EB021101EB410100EB411080B2704708
:1035B00003B583B04FF48073012204A98DE80E0097
:1035C00013460246A2210348FDF7CAFB05B00120BD
:1035D00000BD0000AC000020000000000000000062
:1035E00001020304060708090000000001020304A9
:1035F0008080C06030182CE7C70C183060C0808015
:103600000000000202020282C2623A1E06000000AE
:10361000000000FCFC242424262222232322202034
:103620004060381F07FEFE4242424242FEFE00005A
:1036300000FEFE7ADE86FEFE92929292FEFE000070
:1036400000FFFF0C0F07FFFF60230F1C3663414094
:10365000001098CCF73340424242C2C2424242403C
:10366000020301FFFF00000040C0FF7F00000000D8
:103670004042CECC04C4C45F5FF4F45F5FC4C404B2
:1036800000007F7F74555555557F7F5555555544DE
:10369000E0E0FFFF3024F4F4545F5F54F4F40400DE
:1036A0000101FFFF1090DF7F351515357FDF90108A
:1036B000004464BC9FA7E4FCBCBCBCA4243C3C000C
:1036C000002020202E2E282828282F4FC8F87800E8
:1036D00002FAFA82FEFE80F8F808FFFF08F8F80008
:1036E000081858CCC47FBFC1653D1F3F61C18180B0
:1036F0000000FEFE929292FEFE929292FEFE00006A
:1037000080E07F1F001E1E12121E5EC0FF7F0000A1
:1037100080808080808080808080808080808080A9
:103720000000000000000000000000000000000099
:103730000000080808080808080808080808000029
:103740001010101010101010101010101010101079
:103750000004848484848484848484848484040031
:103760002020202020202020202020202020202059
:1037700000FCFC0404FCFC0404FCFC0404FCFC0051
:10378000007F7F2C2723202020212322227F7F00DF
:103790000002424242C2FE7E424242C2C2020200D5
:1037A00040404040787F47404040407F7F4040401D
:1037B00020202020202021232E2C202020202020EB
:1037C000004060301C0F0300000103061C786000FD
:1037D000000000FEFE828282828282FEFE000000E5
:1037E000000000FFFF404040404040FFFF0000005D
:1037F0000000F8F94B4E4CF8F84C4E4BF9F800002D
:1038000010101313121212FFFF12121213131010C2
:103810000434F4C4C4FC3C04FCFC0404C4FC3C00BC
:1038200040703C0F0F3CB0C060331F1F3360C0803E
:10383000808080BEBEA2A2A2A2A2A2BEBE808080C4
:10384000000000060705040444C4C47C3C000000DA
:10385000001098CCF73340424242C2C2424242403A
:10386000020301FFFF00000040C0FF7F00000000D6
:1038700080E0F8FFE7E222FEFE22FEFE22E2E20204
:103880000000FFFFFFFF0E07131E0F47CCFF7F0056
:10389000C8F8BFEFE8C8E8B09C0F0F9CB06040408C
:1038A000081818FFFF04043F7F4643414070700032
:1038B000F8FC0404040CF8F080C0E0302824E2C1D5
:1038C000874724140C06030100193B2323263E1CC2
:1038D000C0F0FCCCC4C4C4ECD4ECC4C4CCFCF0C078
:1038E0000F3F3C3C0F0F0F0D0D0D0F0F3C3C3F0FDA
:1038F000202424A4FEFF232220F8F80808F8F8006A
:1039000010180E07FFFF0706003F3F10103F3F0053
:10391000404042CECC00FFFF49C9C9497FFF80002B
:103920000040603F3F605F5F4C444143475D58400B
:1039300000007C7C404040FFFF404040FCFC000019
:10394000007C7C404040407F7F40404040FCFC0089
:1039500080828282FEFE82828282FEFE828282805B
:103960000080C0703F0F00000000FFFF000000005B
:103970001010F0FF1FF0F040E0F85F475070E0C01B
:103980004062371D1E372100FEFE424242FEFE000D
:1039900080828282FEFE82828282FEFE828282801B
:1039A0000080C0703F0F00000000FFFF000000001B
:1039B0001010F0FF1FF0F040E0F85F475070E0C0DB
:1039C0004062371D1E372100FEFE424242FEFE00CD
:1039D000E0F81C06022331F9F9010302061CF8E0A5
:1039E000030F1C302060404F4F406020301C0F03FD
:1039F000E0F81C060213190989F97302061CF8E0A5
:103A0000030F1C30206C4E4B49486820301C0F03BC
:103A1000E0F81C06020B89C9E9391B02061CF8E014
:103A2000030F1C3020644C48494F6620301C0F03A4
:103A3000E0F81C0602C3F139C9C10302061CF8E014
:103A4000030F1C30236342424F4F6222301C0F038E
:103A50000000000000005F000000000700070014E5
:103A60007F147F14242A7F2A1223130864623649A4
:103A700055225000030300001C2241000041221C7B
:103A80000000082A1C2A0808083E0808A060000058
:103A90000008080808086060000000201008040200
:103AA0003E5149453E00427F40006251494946220D
:103AB000414949361814127F1027454545393C4A7B
:103AC00049493001710905033649494936064949D2
:103AD000291E003636000000AC6C0000081422419C
:103AE0000014141414144122140800020151090690
:103AF000324979413E7E0909097E7F494949363E6E
:103B0000414141227F4141221C7F494949417F096E
:103B10000909013E414151727F0808087F417F41F8
:103B200000002040413F017F081422417F40404077
:103B3000407F020C027F7F0408107F3E4141413EDE
:103B40007F090909063E4151215E7F091929462650
:103B50004949493201017F01013F4040403F1F2058
:103B600040201F3F4038403F63140814630304782B
:103B7000040361514945437F41410000020408109C
:103B80002041417F00000402010204808080808087
:103B9000010204000020545454787F4844443838CB
:103BA00044442800384444487F3854545418087E0C
:103BB00009020018A4A4A47C7F08040478007D00F6
:103BC000000080847D00007F10284400417F400079
:103BD000007C041804787C08047C003844443800D5
:103BE000FC24241800182424FC00007C080400484D
:103BF00054542400047F4400003C40407C001C20BE
:103C000040201C3C4030403C44281028441CA0A0CC
:103C10007C004464544C440836410000007F00009E
:103C20000041360800000201010201020505020000
:103C300060C0F0381C000000583C00080000002064
:103C4000AC00000054240008043D0008AC00002033
:103C50009C1100006424000800002206192156006F
:103C60000000000000000000000000000000000054
:103C7000000000000000000000000501000000003E
:103C80000000000001000000100000000000000023
:103C90000024F4000000000000000000000000000C
:103CA0000000000000000000162D00013004072D68
:103CB0003F09040003010700020000000A000000A1
:103CC0000000000000000000000000003C000000B8
:103CD00000000000000000000000000000000000E4
:103CE00000000000000000000000000000000000D4
:103CF00000000000000000000000000000000000C4
:043D000000000000BF
:04000005080000ED02
:00000001FF
