:020000040800F2
:1000000098350020010100083F26000871200008F3
:100010003D26000861090008692A00080000000068
:10002000000000000000000000000000EB270008B6
:1000300077090008000000007927000869280008F7
:100040001B0100081B0100081B0100081B01000820
:100050001B0100081B0100081B0100081B01000810
:100060001B0100081B0100081B0100081B01000800
:100070001B0100081B0100081B0100081B010008F0
:100080001B0100081B0100081B0100081B010008E0
:100090001B0100081B0100081B010008790900086A
:1000A0001B0100081B0100081B0100081B010008C0
:1000B0001B010008CD2800081B0100081B010008D7
:1000C0001B0100081B0100081B0100081B010008A0
:1000D0001B0100081B0100081B0100081B01000890
:1000E0001B0100081B0100081B010008DFF80CD0F1
:1000F00000F0DEFB004800473D4E00089835002028
:100100000648804706480047FEE7FEE7FEE7FEE7B1
:10011000FEE7FEE7FEE7FEE7FEE7FEE7CB28000886
:10012000ED000008202A04DB203A21FA02F0002129
:10013000704721FA02F3D040C2F1200291400843F7
:1001400019467047D2B201E000F8012B491EFBD2DC
:1001500070470022F6E710B513460A4604461946D2
:10016000FFF7F0FF204610BD421E12F8013F002BA2
:10017000FBD111F8013B02F8013B002BF9D170478C
:10018000421C10F8011B0029FBD1801A704730B5C2
:1001900004460020034600E05B1C934203D2E05C6F
:1001A000CD5C401BF8D030BD034611F8012B00F8A0
:1001B000012B002AF9D11846704730B480EA0102B9
:1001C00002F0004530F0004221F0004013D090B121
:1001D000C30DD40DC2F31601C0F31600E41A41F4A6
:1001E000000140F400027D34914201D3641C00E020
:1001F0004900002C02DA30BC002070474FF40000A8
:100200000023914201D3891A034340084FEA410178
:10021000F7D151B1914202D14FF0004105E002D235
:100220004FF0010101E06FF0010103EBC4502844DD
:1002300030BC00F078BA2DE9FE4F804681EA030019
:10024000C00F0C46009021F0004123F00045B8EBB0
:100250000200A94105D24046214690461C460B4665
:10026000024623F00040104347D0270DC7F30A0091
:10027000C3F30A510290401A019040286BDAC3F38D
:10028000130040F4801B0098924620B10023D2EB6B
:10029000030A63EB0B0B01985946C0F1400250462C
:1002A00000F020FA06460D4650465946019A00F0E5
:1002B00028FA10EB08006141002487EA115284EA11
:1002C000E7731A4340D0009A62B3019A012A4FEAB9
:1002D000075215DC001B61EB02014FF0004202EAFD
:1002E0000752CDE90042001C41F5801132462B46F1
:1002F00000F05FFA03B0BDE8F08F40462146F9E711
:10030000001B61EB0201001C41F5801300185B41EA
:100310002018A2F5001747EB030140EAD570B61983
:100320006D4111E06D084FEA360645EAC0754FEAA7
:100330000752001B61EB0201001C41F580114908C6
:100340004FEA30000019514132462B4603B0BDE858
:10035000F04F00F01FBA0098012240000023D0EBBC
:10036000020263EBE073009821464FEAE074B8EBB9
:10037000000061EB0401E9E783F000435BE781F0F3
:10038000004158E72DE9FE4F81EA030404F00044E0
:1003900021F0004100944FF0000B23F0004350EA9D
:1003A00001045ED052EA03045BD0C3F30A54C1F3E4
:1003B0000A552C44A4F2F3340194A0FB0254C1F377
:1003C000130141F48011C3F3130343F4801301FBC1
:1003D000024400FB034E840A970A44EA815447EA28
:1003E0008357A4FB076802958D0A05FB07854FEA32
:1003F000932C04FB0C542705029D4FEA065847EA4C
:100400001637B5EB08056EEB070C870E920E47EA20
:10041000811742EA8312A7FB0201B6EB0B0164EBE2
:1004200000042B0D43EA0C335E1844EB1C50DA46F3
:100430005146E7FB0201C5F313044FEA0B3343EACD
:1004400014534FEA0432019C43EA0603A4F10C045E
:100450000294009CCDE900B400F0ABF903B0BDE814
:10046000F08F00200146F9E72DE9F04D81EA030401
:1004700004F0004B21F0004514464FF0000A23F031
:10048000004150EA050220D054EA01021DD0C5F314
:100490000A570246C5F31303C1F31300C1F30A560A
:1004A00040F4801543F48013A7EB0608101BD646D2
:1004B00008F2FD3873EB050002D308F1010801E0F2
:1004C00092185B41B8F1000F03DA00200146BDE845
:1004D000F08D00204FF48011064684460EE0171B75
:1004E00073EB050705D3121B63EB050306434CEAC8
:1004F000010C49084FEA300092185B4150EA0107AD
:10050000EDD152EA030012D082EA040083EA050129
:10051000084305D0101BAB4106D20122002306E0A0
:1005200000224FF0004302E06FF0010253101AEB7B
:1005300006004CEB085110EB0A0041EB0B01BDE843
:10054000F04D00F027B970B521F0004303430CD003
:10055000C1F30A550024D5EB040564EB0403D61758
:10056000AD1AB34102DB0020014670BD201841EBFB
:10057000025170BD96230022114600F0DDB80EB581
:10058000C10F80EAE0700844CA07002140F23343FB
:100590008DE80E000A460B4600F00BF903B000BDD3
:1005A0000EB540F2334102910021CDE900110A4617
:1005B0000B4600F0FEF803B000BD70B5C1F30A525F
:1005C00001F000450024C1F3130140F2FF3341F470
:1005D00080119A4201DA002070BD40F233439A4202
:1005E000A2F2334203DC5242FFF79CFD00E0904050
:1005F0002C43F1D0404270BD00F0004230F000408A
:100600000AD0C10D01F56071C0F3160042EA015134
:10061000C20840071143704700200146704701F0AF
:10062000004330B421F0004150EA010206D00A0D27
:10063000A2F56072C1F31301002A02DC30BC002075
:100640007047440F44EAC104C100E01830BC00EB1D
:10065000C25000F068B830B50B4601460020202299
:10066000012409E021FA02F59D4205D303FA02F5BF
:10067000491B04FA02F52844151EA2F10102F1DC1F
:1006800030BD2DE9F05F0546002092469B46884626
:100690000646814640241BE02846414647462246FE
:1006A000FFF740FD53465A46C01A914110D31146F8
:1006B0001846224600F016F82D1A67EB01084F463F
:1006C00022460120002100F00DF817EB00094E41F1
:1006D000201EA4F10104DFDC484631462A46434689
:1006E000BDE8F09F202A04DB203A00FA02F1002046
:1006F00070479140C2F1200320FA03F31943904060
:100700007047202A06DBCB17203A41FA02F043EA71
:10071000E07306E041FA02F3D040C2F120029140BA
:100720000843194670470029A8BF7047401C49007C
:1007300008BF20F00100704710B4B0FA80FC00FA46
:100740000CF050EA010404BF10BC704749B1CCF171
:10075000200421FA04F411FA0CF118BF01212143FD
:100760000843A3EB0C01CB1D4FEA00614FEA1020B8
:1007700042BF002010BC704700EBC350104400295A
:10078000A4BF10BC7047401C490008BF20F0010006
:1007900010BC704710B5141E73F1000408DA401C39
:1007A00041F1000192185B411A4301D120F0010090
:1007B00010BD2DE9F04D92469B4611B1B1FA81F280
:1007C00002E0B0FA80F220329046FFF78BFF044639
:1007D0000F4640EA0A0041EA0B0153465A460843D5
:1007E00013D0114653EA010019D0C8F14002504617
:1007F000FFF798FC05460E46504659464246FFF71D
:1008000071FF084305D0012004E020463946BDE8C9
:10081000F08D0020054346EAE0762C4337430A98E2
:100820006305E40AA0EB08000022FD0A44EA4754ED
:100830000A3002D500200146E9E701051019694197
:10084000DDE9084500196941BDE8F04DA2E7C1F3B3
:100850000A52C1F3130140F2FF3341F480119A426E
:1008600002DA00200146704740F233439A42A2F276
:10087000334202DC5242FFF755BCFFF733BF0000A2
:1008800030B5041E71F1000404DB4FF00044404217
:1008900064EB0101141E73F1000405DB1C464FF0EC
:1008A0000043524263EB0403994208BF904230BDBB
:1008B000064C074D06E0E06840F0010394E80700AD
:1008C00098471034AC42F6D3FFF714FCA887000811
:1008D000C887000870B58C1810F8015B15F0070385
:1008E00001D110F8013B2A1106D110F8012B03E0C9
:1008F00010F8016B01F8016B5B1EF9D12B0705D4D1
:100900000023521E0DD401F8013BFAE710F8013B19
:10091000CB1A921C03E013F8015B01F8015B521E35
:10092000F9D5A142D8D3002070BD000000200749AE
:1009300000EB40020A449278120601D5012070476C
:10094000401CC0B20528F3D300207047C00000202F
:1009500000F00F01000900EB800001EB4000704740
:10096000FEE70A21B0FBF1F201FB1202B0FBF1F04D
:1009700002EB001070477047402000F093B972B648
:10098000FEE7000006490020C8610648016941F001
:1009900004010161016941F04001016170470000FB
:1009A000B806002000200240064A0021D161064915
:1009B0000A6942F002020A614861086940F0400099
:1009C00008617047B806002000200240044B002256
:1009D000DA61044A136943F001031361018070472F
:1009E000B80600200020024014480022C168CB064F
:1009F000134904D5CA6942F00202CA611022C368D1
:100A00005B0705D5CB6943F00103CB6142F00402DB
:100A1000C369DB0707D0CB6943F00403CB61C1692D
:100A200021F00101C161A2F58071013901D0C260DC
:100A30007047C16921F00101C16170470020024087
:100A4000B806002070B5054600F03EFA0646114C87
:100A500009E0681C07D025B100F036FA801BA842D7
:100A600001D9032070BDE068C007F2D1E0688006BC
:100A700001D52020E060E068C00605D4E069C00729
:100A800002D1E068400703D5FFF7AEFF012070BD3B
:100A9000002070BD0020024070B5044600F014FA3A
:100AA0000546601C02D004480078044400F00CFAAB
:100AB000401BA042FAD370BD9C0000202DE9F047F6
:100AC000054626480F460126017E01290FD0012147
:100AD000814601762868DFF888804CF2503402287D
:100AE00008D0A2462046FFF7ADFFA8B131E00220B2
:100AF000BDE8F0872046FFF7A5FF08BB0120FFF700
:100B000041FF2046FFF79EFFD8F81010064621F05F
:100B10000401C8F810101CE04FF0FF303860AC68DA
:100B200011E02046FFF740FF5046FFF78BFFD8F853
:100B30001010060021F00201C8F8101001D03C602E
:100B400007E004F58064D5E9020100EB8120A042B2
:100B5000E7D8002189F818103046C9E7B806002008
:100B6000002002400348016941F08001016100203A
:100B700070470000002002402DE9F05F07461C4846
:100B800088460024017E15461E46012909D0012110
:100B9000814601764CF2503A5046FFF753FF18B1A8
:100BA00022E00220BDE8F09F012F02D0022F00D0EA
:100BB0000427D346DFF83CA0220128463146FFF740
:100BC000B1FA81B208EB4400FFF700FF5846FFF787
:100BD00039FFDAF8102022F00102CAF8102018B903
:100BE000641CE4B2BC42E7D3002289F81820D9E79C
:100BF000B806002000200240064900200A691206BB
:100C000007D5054A4A60054A4A600969090600D5C0
:100C1000012070470020024023016745AB89EFCDDA
:100C20002DE9F04105461A4E4021304600F03EF9CC
:100C300004462021304600F039F9402D26D11549CF
:100C40004FF000030A7854EA02054FF0010203D185
:100C50004B7000B14A700A70012C17D10C78012C2E
:100C600014D10D4C0D4D0E4F38B94E78012E04D1D4
:100C70002668761E26602A703A7030B1487820B90E
:100C80002068401C20602B703A700B70BDE8F0812A
:100C90000008014004000020E0000020D0000020F7
:100CA000D100002010B504490A68024202D0086051
:100CB000FFF7B6FF10BD0000140401402DE9F84F06
:100CC00000240023DFF8C4914FF00F0809F1040A53
:100CD0000AF1040B0BF1040ED1E00127A7403A40C2
:100CE000BA4275D1DFF8A8C14D68A5EB0C06654581
:100CF0002BD00DDC032D34D005DC35B3012D19D0FC
:100D0000022D2FD11BE0112D16D0122D2AD119E062
:100D1000B6F5881F19D006DCB6F5803F15D0B6F5BC
:100D2000801F1FD111E0B6F5001F0ED0B6F5041FCD
:100D300018D10AE0CB6815E0CB681B1D12E0CB6828
:100D400008330FE0CB680C330CE08B6823B1012B28
:100D500004D00823476105E0042303E0082307616A
:100D600000E00023FF2A01D8054601E000F1040558
:100D700002D84FEA840603E0A4F108064FEA86068B
:100D80002F6808FA06FC27EA0C0703FA06F647EA7A
:100D900006072F604D68ED0070D53E4DAE6946F0F8
:100DA0000106AE61AD6905F0010500953A4D24F0EC
:100DB00003067719BE68A5072D0F08FA05FC26EA79
:100DC0000C06DFF8D8C0604503D14FF0000C17E0E7
:100DD00054E0DFF8CCC0604502D14FF0010C0FE0C9
:100DE000DFF8C0C0604502D14FF0020C08E0DFF828
:100DF000B8C0604502D14FF0030C01E04FF0040C85
:100E00000CFA05FC4CEA060CC7F808C04D68ED0367
:100E100005D5D9F800501543C9F8005004E0D9F8B9
:100E200000509543C9F800504D68AD0305D5DAF878
:100E300000501543CAF8005004E0DAF8005095431A
:100E4000CAF800504D68ED0205D5DBF80050154397
:100E5000CBF8005004E0DBF800509543CBF800508D
:100E60004D68AD0205D5DEF800501543CEF80050B0
:100E700004E0DEF800509543CEF80050641C0A6888
:100E800032FA04F57FF429AFBDE8F88F0004014081
:100E90000000111000100240000001400008014055
:100EA000000C01400010014000140140806808421D
:100EB00001D00120704700207047002A01D0016155
:100EC000704709040161704701488068704700005D
:100ED0009C00002070B5040025D094F83D0000254A
:100EE00020B984F83C50204600F078FA242084F899
:100EF0003D002068016821F001010160206801685F
:100F000041F4004101602068016821F40041016062
:100F100000F0DAFB4D4A6168914201D84C4900E08B
:100F20004C49884201D2012070BD4B492368B0FB77
:100F3000F1F15E6826F03F060E435E6063689342FF
:100F400006D94FF4967359434FF47A73B1FBF3F11A
:100F50002368491C1E6A26F03F0631431962616806
:100F6000914210D84900401EB0FBF1F2521CC2F36E
:100F70000B02042A01D2042022E0B0FBF1F0401C55
:100F8000C0F30B001CE0A268F2B301EBC10303EB5A
:100F90000116431EB3FBF6F35B1C43F480431B05B1
:100FA00049D092B301EBC10202EB0111401EB0FB2C
:100FB000F1F0401CC0F30B0040F4804040F40040CE
:100FC0002168CA694CF6FF739A431043C861D4E99B
:100FD000071001432068026822F0C002114301603B
:100FE000D4E9030101432068826848F2FF339A4341
:100FF00011438160D4E9050108432168CA6822F0E1
:10100000FF021043C86001E00EE016E020680168AE
:1010100041F0010101602564202084F83D00256332
:1010200084F83E50002070BD01EB4106431EB3FB27
:10103000F6F35B1CB3E70120C2E701EB4101401E60
:10104000B0FBF1F0401CC0F30B00B7E7A086010035
:1010500080841E0000093D0040420F002DE9FF4F33
:1010600083B00025DDE910799A4693460446DDF801
:1010700048800095FFF728FF064694F83D00202899
:101080007CD11923012285492046009601F000F900
:101090000028F5D194F83C0001286FD0012084F895
:1010A0003C0020680168C90703D1016841F00101D3
:1010B00001602068016821F400610160222084F849
:1010C0003D00402084F83E0025646762A4F82A9021
:1010D000608D20857248E062CDE9008653465A460D
:1010E0002046049900F0DCFF00287DD1208DDFF838
:1010F000B491202768B1012814D002282068016823
:101100001ED041F4806101602068416980690090CF
:10111000B6E02068416981690091016841F400717D
:101120000160ADE02068016821F48061016072B661
:101130002068416981690091016841F400710AE009
:1011400041F40061016072B62068416981690091D3
:10115000016821F48061016062B691E0032868D8DB
:1011600001280CD0022843464FF000024946204691
:1011700000960FD001F08CF8B0BB10E08BE0324647
:101180004146204601F003F970BB20680069616A9E
:1011900008706CE001F07CF830BB72B634E0206877
:1011A000016821F48061016072B620680069616A9B
:1011B0000870606A401C6062208D401E2085608D32
:1011C000401E6085384846F2A8110068B0FBF1F077
:1011D000C0EBC00000EB80000090401E009008D0E3
:1011E00020684069C04300E029E040070CD5009822
:1011F000F3E744F8305F6773A573206940F020007F
:10120000206162B625731AE02068016841F400711C
:10121000016020680069616A0870606A401C606251
:10122000218D491E2185618D491E618562B6216827
:101230001BE032464146204601F0A9F818B10120D2
:1012400007B0BDE8F08F20680069616A0870606AC5
:10125000401C6062218D491E2185618D491E61857A
:1012600021684A69D24352070AD409690170606A49
:10127000401C6062208D401E2085608D401E608570
:10128000208D00287FF46AAF84F83D7084F83E50CA
:1012900084F83C50D4E70220D2E70000020010009E
:1012A0000000FFFF04000100A80000202DE9FF4F0F
:1012B00083B09A46DDE9119793460446DDF84080F5
:1012C000FFF702FE054694F83D0020287FD1192340
:1012D000012240492046009500F0DAFF002876D12F
:1012E00094F83C00012872D0012084F83C0020686A
:1012F0000168C90703D1016841F00101016020685C
:10130000016821F400610160212084F83D00402043
:1013100084F83E0000262664C4F82480A4F82A90AD
:10132000608D20852C48E062CDE9007553465A4611
:101330002046049900F032FF70B930E02A46394661
:10134000204601F057F858B1206C042804D12068D9
:10135000016841F400710160012007B0BDE8F08F21
:10136000606A216800780861606A401C6062218DB3
:10137000491E89B22185628D521E62852268536999
:10138000DB435B070BD469B100781061606A401CD5
:101390006062208D401E2085608D401E6085208DFE
:1013A0000028CBD12A463946204600F04BFF0028C2
:1013B000CAD154F83D0B016841F40071016020204E
:1013C00004F81E09E67766770020C6E7FFE70220EB
:1013D000C3E70000020010000000FFFF10B586B058
:1013E0000021029103910491059100680F49884200
:1013F0001AD10F4CA06940F00800A061A06900F06C
:1014000008000190C0200290122003900320059054
:1014100002A90848FFF752FCE06940F40010E061BF
:10142000E06900F40010019006B010BD00540040C7
:1014300000100240000C014002488168027811440B
:10144000816070479C00002010B50748016841F09A
:1014500010010160032000F075F80F2000F006F87D
:1014600000F026F8002010BD0020024070B50446B0
:101470000D4D4FF47A712878B1FBF0F00B490968F3
:10148000B1FBF0F000F03CFB08B1012070BD102C66
:1014900007D200222146501E00F034F86C60002074
:1014A00070BD012070BD00009C000020A80000203D
:1014B00008B50B48816941F001018161816901F042
:1014C00001010091C16941F08051C161C06900F022
:1014D000805000900349486820F0E060486008BDF3
:1014E0000010024000000140002809DB00F01F024C
:1014F000012191404009800000F1E020C0F8001176
:1015000070470000F0B40D460D4B1B68C3F3022377
:10151000C3F10704042C00D90424191D072901D2A2
:10152000002300E0DB1E012606FA04F1491E2940D3
:1015300099409E40761E16403143F0BC01F0D8BA67
:101540000CED00E000F00701054A10684FF6FF03BC
:10155000184040EA0120034908431060704700002A
:101560000CED00E00000FA052DE9F04704460D46B9
:10157000002C17D0DFF83081D8F8000000F0070009
:10158000A84211D2D8F8000020F007002843C8F87C
:101590000000D8F8000000F00700A84204D00120A5
:1015A000BDE8F0870120FBE72068404E810712D597
:1015B000400703D5706840F4E06070602078000751
:1015C00003D5706840F4605070607068A16820F0C6
:1015D000F000084370602078C0072CD060680128B4
:1015E00006D0022809D0316889070BD40120D7E73B
:1015F0003168890306D40120D2E73168890101D41A
:101600000120CDE7716821F0030101437160FFF70C
:101610005BFC074641F2883906E0FFF755FCC01B2A
:10162000484501D90320BBE77068616800F00C00F1
:10163000B0EB810FF1D1D8F8000000F00700A8420C
:101640000ED9D8F8000020F007002843C8F80000A1
:10165000D8F8000000F00700A84201D001209FE761
:101660002078400705D57068E16820F4E060084301
:1016700070602078000706D57068216920F46050FA
:1016800040EAC100706000F03FF87168084AC1F399
:101690000311515CC8400749086007480068FFF71C
:1016A000E5FE00207CE70000002002400010024020
:1016B0007A6F0008A8000020A00000200148006800
:1016C00070470000A800002000B5FFF7F7FF0449AD
:1016D0004968044AC1F30221515CC84000BD0000C2
:1016E000001002408A6F000800B5FFF7E7FF0449C9
:1016F0004968044AC1F3C221515CC84000BD0000E2
:10170000001002408A6F000885B014A090E80E0017
:10171000C068CDE902230191049014A000680090F4
:10172000134B5968134801F00C02042A10D0082A00
:101730000ED101A8C1F38342805CC9030AD5596860
:10174000C1F340411DF801100A4A5043B0FBF1F0CB
:1017500005B0704708494843FAE700000203040552
:10176000060708090A0B0C0D0E0F101001020000ED
:101770000010024000127A0000093D002DE9F84FE8
:101780000446002C0ED02078D94DC0075ED0686882
:10179000C0F3810001280BD06868C0F381000228E3
:1017A00003D00CE00120BDE8F88F6868C00306D5BF
:1017B000286880034AD56068A8BB0120F3E7606809
:1017C000B0F5803F11D0A8B1B0F5A02F1BD028688C
:1017D00020F480302860286820F480202860606829
:1017E00030B3FFF771FB06461EE0286840F48030F6
:1017F0002860F4E7286820F480302860286820F406
:1018000080202860EBE7286840F480202860286862
:1018100040F480302860E2E7FFF756FB801B642825
:1018200002D90320BFE711E028688003F4D50DE05A
:10183000FFF74AFB064606E0FFF746FB801B6428DD
:1018400001D90320AFE728688003F5D42078DFF8BA
:10185000A48280074FF0010A4FF0000945D568685F
:1018600010F00C0F07D06868C0F38100022812D175
:101870006868C0030FD42868800704D52069012850
:1018800001D001208FE72868616920F0F80040EA64
:10189000C100286029E02069B8B1C8F800A0FFF7AE
:1018A00013FB064606E0FFF70FFB801B022801D959
:1018B000032078E728688007F5D52868616920F05B
:1018C000F80040EAC10028600FE0C8F80090FFF778
:1018D000FBFA064606E0FFF7F7FA801B022801D95B
:1018E000032060E728688007F5D42078000726D514
:1018F0008148A16999B1C0F800A0FFF7E5FA064652
:1019000006E0FFF7E1FA801B022801D903204AE72D
:10191000686A8007F5D5012000F030FF0FE0C0F8BD
:101920000090FFF7D1FA064606E0FFF7CDFA801BDC
:10193000022801D9032036E7686A8007F5D42078A9
:10194000400773D50026E869C00008D4E86940F074
:101950008050E861E86900F0805000900126DFF8CF
:101960009CB1DBF80000C00514D4DBF8000040F4A3
:101970008070CBF80000FFF7A7FA074606E0FFF7F4
:10198000A3FAC01B642801D903200CE7DBF8000090
:10199000C005F4D5E068012812D0B0B105281DD0EB
:1019A000286A20F001002862286A20F004002862DA
:1019B000E06841F2883B28B3FFF786FA07461DE04E
:1019C000286A40F001002862F2E7286A20F001004E
:1019D0002862286A20F004002862E9E7286A40F0BB
:1019E00004002862286A40F001002862E0E7FFF75F
:1019F0006BFAC01B584501D90320D4E6286A80073A
:101A0000F5D50DE0FFF760FA074606E0FFF75CFA50
:101A1000C01B584501D90320C5E6286A8007F5D4C4
:101A2000012E03D1E86920F08050E861E069A0B39D
:101A30006968C1F38101022946D0022805D0C8F89F
:101A40006090FFF741FA04463AE0C8F86090FFF76B
:101A50003BFA064606E0FFF737FA801B022801D959
:101A60000320A0E628688001F5D4206AB0F5803F05
:101A700005D16868A16820F4003008436860D4E9A3
:101A800008010843696821F4741108436860C8F8C4
:101A900060A0FFF719FA044607E026E0FFF714FA02
:101AA000001B022801D903207DE628688001F5D5B6
:101AB0001BE0FFF709FA001B022801D9032072E698
:101AC00028688001F5D410E001280CD06868226AEB
:101AD00000F48031914204D1616A00F470108842B0
:101AE00003D001205FE601205DE600205BE60000F8
:101AF0000010024000004242800442420070004058
:101B000010B5401EB0F1807F01D3012010BD4FF011
:101B1000E02460610F21601700F0EAFF0020A0615F
:101B200007202061002010BD7047704770B590F805
:101B30003C20012A25D0012680F83C60022280F852
:101B40003D2002685468936824F070050C682C43AB
:101B500054600D4C0268A24208D0B2F1804F05D00B
:101B60000A4CA24202D00A4CA24204D123F08003C4
:101B70004968194391603C30467000210170002093
:101B800070BD022070BD0000002C01400004004028
:101B90000008004010B50446002C03D094F83D0026
:101BA00010B107E0012010BD002084F83C00204661
:101BB00000F016F8022084F83D00211D206800F096
:101BC0008BFE01203D3460726070A070E070207167
:101BD0006071A071E07120722070002010BD0000C3
:101BE00008B500680B49884212D10B48C16941F021
:101BF0000201C161C06900F002000090002211469C
:101C00001D20FFF77FFCBDE808401D20FFF76CBCDE
:101C100008BD0000000400400010024090F83D1094
:101C2000012901D001207047022180F83D10016890
:101C3000CA6842F00102CA6000680E49884208D0B2
:101C4000B0F1804F05D00C49884202D00B49884240
:101C500009D1816801F00701062908D0016841F027
:101C60000101016003E0016841F001010160002011
:101C700070470000002C01400004004000080040B4
:101C800070B5044694F83C00012817D0012584F86B
:101C90003C50022084F83D002068826822F07702E0
:101CA00022F47F4282600868502831D00DDC202861
:101CB0004DD005DCB0B310284ED148E0022070BDF5
:101CC000302844D0402847D137E060282BD07028F6
:101CD00006D0B0F5805F3FD0B0F5005F3CD10BE09F
:101CE000CB68D1E90121206800F02CFE20688168D2
:101CF00041F0770181602FE0CB68D1E901212068B4
:101D000000F020FE2068816841F48041816023E07A
:101D1000CA684968206800F027FE5021206800F05A
:101D20001BFE19E013E0CA684968206800F02DFE28
:101D30006021206800F010FE0EE0CA684968206843
:101D400000F012FE4021206800F006FE04E0226848
:101D50000146104600F000FE3C3465700020207003
:101D600070BD704770B50446206801694FF00005EA
:101D7000C943890716D4C168C943890712D4E91E2B
:101D800001610120207720688069800703D0204608
:101D9000FFF7E7FF05E0204600F09BF8204600F043
:101DA00099F8257720680169C943490718D4C168A3
:101DB000C943490714D46FF0040101610220207760
:101DC0002068806910F4407F03D02046FFF7C9FFE8
:101DD00005E0204600F07DF8204600F07BF82577EE
:101DE00020680169C943090717D4C168C9430907B5
:101DF00013D46FF008010161042020772068C069C6
:101E0000800703D02046FFF7ACFF05E0204600F036
:101E100060F8204600F05EF8257720680169C94324
:101E2000C90618D4C168C943C90614D46FF010019B
:101E30000161082020772068C06910F4407F03D03A
:101E40002046FFF78EFF05E0204600F042F82046CE
:101E500000F040F8257720680169C943C90708D117
:101E6000C168C943C90704D1891E0161204600F039
:101E700033F820680169C943090609D4C168C94318
:101E8000090605D46FF0800101612046FFF74CFE82
:101E900020680169C943490609D4C168C943490694
:101EA00005D46FF040010161204600F04FF8206832
:101EB0000169C94389060BD4C168C943890607D49F
:101EC0006FF0200101612046BDE87040FFF72DBE94
:101ED00070BD70477047000030B5184A9068401CCC
:101EE0009060C821B0FBF1F301FB1301012300292D
:101EF00001D113490B7091784FF47A746143B0FBB0
:101F0000F1F401FB140000B95370D078117900EBA3
:101F10004000B1EB400F10D900241471094B0A495D
:101F200010789D7801EB00110D705B784B70401CB0
:101F3000C0B210700B2800D9147030BD9000002082
:101F40002D0100202E010020440B0020704770B5A9
:101F50000446002C04D094F83D00002510B106E0A2
:101F6000012070BD84F83C50204600F023F8242066
:101F700084F83D002068C16821F40051C16020460A
:101F800000F016FD2068016921F49041016120688C
:101F9000416921F02A0141612068C16841F4005182
:101FA000C1602564202084F83D0084F83E000020B4
:101FB00070BD000070B586B00024029403940494B0
:101FC0000594274E0268274902200323264DB2427A
:101FD00021D18A6942F480428A618A6902F480428E
:101FE00001928A6942F004028A61896901F0040160
:101FF0000191010202910390059302A92846FEF780
:102000005DFE291502910394049402A92846FEF767
:1020100055FE06B070BD154EB242FAD1CA6942F4FF
:102020000032CA61CA6902F4003201928A6942F040
:1020300004028A61896901F004010191042102917D
:102040000390059302A92846FEF738FE0821029165
:102050000394049402A92846FEF730FED9E7000055
:1020600000380140001002400008014000440040D8
:10207000FEE701684A69D24352050FD46FF48062CB
:102080004A61002140F8301F2022427381730269A7
:1020900042F0040202610173012070470020704782
:1020A0002DE9F84F0446006889460B9D0168984663
:1020B000174641F4806101602068016841F4807135
:1020C000016000954FF0011B0022594620460A9BF3
:1020D00000F0DEF84FF4007A40B120680068C005D7
:1020E00001D5C4F840A00320BDE8F88F216809F0AD
:1020F000FE0008612B46284920460A9A00F0FCF8A9
:10210000F0BB20684169806900902A4620460A9900
:1021100000F070F940B1206C04283AD120680168C1
:1021200041F40071016034E0FEB2B8F1010F09D052
:102130002168380A08612A4620460A9900F05AF9AF
:102140000028E8D1206806612A4620460A9900F056
:1021500051F90028DFD12068016841F480710160E5
:1021600000950022594620460A9B00F091F800286D
:10217000B3D1216809F0FF0040F00100086100E0E0
:1021800007E02B46044920460A9A00F0B5F80028DB
:10219000AAD00120A8E70000020001002DE9F843C1
:1021A000044600680D46DDE9089701689846164622
:1021B00041F4807101604B4600224FF0011120462E
:1021C000009700F065F848B120680068C00502D5A6
:1021D0004FF4007020640320BDE8F883216805F007
:1021E000FE0008613B464A461549204600F084F847
:1021F00088B920684169806900903A46494620467E
:1022000000F0F8F848B1206C042804D12068016877
:1022100041F4007101600120DEE7F5B2B8F1010F71
:1022200009D02168300A08613A464946204600F044
:10223000E1F80028E7D1206805610020CCE7000024
:102240000200010070B516460D4604460DE020461A
:10225000FFF70FFF08B1012070BD681C05D0FEF725
:1022600033FE801BA84207D835B120684069C043BF
:102270004007ECD4002070BD002044F8300F20212E
:102280006173A073216941F0200121612073E2E7AD
:102290002DE9F0471E4690460D460446C1F3074718
:1022A000DDF8209008E0701C06D0FEF70DFEA0EBD4
:1022B0000900B0420FD876B12068012F18D080698C
:1022C00025EA00000004000C14D000214145EAD0AA
:1022D0000020BDE8F087002044F8300F2021617312
:1022E000A073216941F02001216120730120F0E7F2
:1022F0004069E5E70121E9E72DE9F0479A46914673
:102300000E46044600254FF02008C1F3074725E09C
:1023100020684069C043400514D42068016841F436
:102320000071016021686FF480604861256384F862
:102330003D8084F83E50206C40F00400206484F816
:102340003C501FE0B9F1FF3F08D0FEF7BDFDA0EB08
:102350000A0149450CD8B9F1000F09D02068012FB6
:1023600013D0806926EA00000004000C0BD0CFE7F0
:1023700044F8305F84F80D80A573206940F0200098
:10238000206125730120BDE8F0874069EAE72DE967
:10239000F041002590460E460446202717E040698C
:1023A000C043C0060CD454F8301B6FF010004861D5
:1023B00044F810596777A577206A2062257717E0DF
:1023C000FEF782FDA0EB0800B04208D83EB12068BD
:1023D0004169C9434906E2D40020BDE8F08144F8D0
:1023E000305F6773A573206940F02000206125737A
:1023F0000120F2E770B516460D4604460DE0204672
:10240000FFF737FE08B1012070BD681C05D0FEF74C
:102410005BFD801BA84207D835B120684069C043E6
:102420000006ECD4002070BD002044F8300F2021BD
:102430006173A073216941F0200121612073E2E7FB
:1024400013B584B0012305AC4FF48071CDE900438E
:102450000246029178210448FEF728FF10B10020BF
:1024600006B010BD0120FBE788050020F0B585B05F
:10247000002401940294039404942348816941F058
:1024800020018161816901F020010091816941F0A1
:1024900004018161816901F004010091816941F0C9
:1024A00008018161806900F008000090174E4FF428
:1024B0000055002229463046FEF7FFFCA02201927B
:1024C00002940394124F01A93846FEF7F7FB40200F
:1024D000019010480290039401A93846FEF7EEFBE4
:1024E00001950120029003940220049001A9304636
:1024F000FEF7E4FB002211461720FFF703F8172030
:10250000FEF7F2FF05B0F0BD00100240000C0140E4
:10251000000801400000311010B50D480B49016062
:102520000C49416000218160C1604FF4804202612A
:1025300041618161C1610162FEF7CCFC002803D0DA
:10254000BDE81040FEF71BBA10BD0000005400406B
:1025500088050020801A060010B586B00024029479
:10256000039404940594009401941748154901605C
:1025700040F29F51416084603121C16004618461F7
:10258000FFF708FB08B1FEF7FAF94FF4805002900C
:1025900002A90D48FFF774FB08B1FEF7F0F90094AB
:1025A000019469460848FFF7C1FA08B1FEF7E7F958
:1025B0000548FFF733FB002801D0FEF7E0F906B02D
:1025C00010BD000000040040E805002010B50C48D4
:1025D0000A4901604FF4E131416000218160C1602E
:1025E00001610C2242618161C161FFF7B0FC0028EA
:1025F00003D0BDE81040FEF7C2B910BD003801405D
:102600003006002010B50C480A4901604FF41651FD
:10261000416000218160C16001610C2242618161E1
:10262000C161FFF794FC002803D0BDE81040FEF71D
:10263000A6B910BD0044004074060020FEE7FEE786
:1026400070B5002505F1B000C0B200F00EFA002010
:1026500000F00BFA102000F008FA0024002000F02F
:1026600008FA641CE4B2802CF8D36D1CEDB2082D7E
:10267000E8D370BD70B53E4D4FF4005400222146A2
:102680002846FEF71AFC6420FEF706FA01222146CE
:102690002846FEF712FCC820FEF7FEF9C820FEF718
:1026A000FBF9AE2000F0E1F9002000F0DEF9102087
:1026B00000F0DBF9402000F0D8F9B02000F0D5F9A7
:1026C000812000F0D2F9FF2000F0CFF9A12000F026
:1026D000CCF9A62000F0C9F9A82000F0C6F93F20E7
:1026E00000F0C3F9C82000F0C0F9D32000F0BDF914
:1026F000002000F0BAF9D52000F0B7F9802000F0F2
:10270000B4F9D82000F0B1F9052000F0AEF9D920D5
:1027100000F0ABF9F12000F0A8F9DA2000F0A5F9FB
:10272000122000F0A2F9DB2000F09FF9302000F029
:102730009CF98D2000F099F9142000F096F9AF2053
:1027400000F093F9FFF77CFF0A48C07838B1A02069
:1027500000F08BF9BDE87040C02000F086B9A120E0
:1027600000F083F9BDE87040C82000F07EB9000099
:10277000000C0140E40600207047000008B507493E
:102780004FF4FA520968B1FBF2F14143009100BFE6
:102790000098411E0091FAD208BD0000A800002058
:1027A0000EB54FF48073CDE9011300920246012368
:1027B000A3210448FEF752FC08B101200EBD012000
:1027C0000EBD00008805002010B50446002307E078
:1027D000204600F008F821F81300A41C5B1C9BB2F3
:1027E0009342F5D310BD00887047704710B50C4C6C
:1027F000A078FEF7B6F8C1B2042004F0A3FB60781D
:10280000FEF7AFF8C1B2032004F09CFB2078FEF77E
:10281000A8F8C1B2BDE81040022004F093BB00004C
:102820002E01002010B50F4CE079FEF79AF8C1B2E6
:10283000082004F087FBA079FEF793F8C1B20720C7
:1028400004F080FB6079FEF78CF8C1B2052004F03B
:1028500079FB2079FEF785F8C1B2BDE8104006206B
:1028600004F070BB2E010020FEF7E6BD30B58FB03E
:10287000282105A8FDF76DFC14216846FDF769FCC9
:10288000012105910804069000240794099102256E
:102890000C950D904FF4E0100E9005A8FEF76EFF1A
:1028A00008B1FEF76CF80F200090019502944FF4E8
:1028B00080600390049402216846FEF755FE0028CC
:1028C00001D0FEF75CF80FB030BD70470148FFF74C
:1028D00049BA0000E8050020F0B50268164C174D13
:1028E000174E4FF08047A04205D0B84203D0A8420F
:1028F00001D0B04203D122F070034A681A43A042CB
:1029000005D0B84203D0A84201D0B04203D122F48E
:102910004073CA681A434B6922F080021A4302606E
:102920008A68C2620A688262A04201D109690163B1
:1029300001214161F0BD0000002C01400004004075
:102940000008004010B5846824F47F4442EA032262
:102950000A432243826010BD826822F070020A435B
:1029600042F007018160704710B5036A046A24F0E1
:1029700001040462846924F0F00444EA021423F0A0
:102980000A020A438461026210BD10B5036A23F093
:10299000100303628469036A24F4704444EA023237
:1029A00023F0A00343EA01118261016210BD00001F
:1029B00070B5044620680169E26821F44051114372
:1029C0000161A16820690143606901432068C26810
:1029D00041F20C639A430A43C26020684169A269CC
:1029E00021F44071114341611E492068884202D19F
:1029F000FEF77AFE01E0FEF767FE00EBC00101EB97
:102A00000010616864228900B0FBF1F3B3FBF2F3BC
:102A10006FF018067343B0FBF1F5B0FBF1F605EB70
:102A20008305322303EB0515B5FBF2F5B6FBF2F691
:102A300005F0F00505EB0615B0FBF1F6B0FBF1F083
:102A4000B0FBF2F06FF01801484306EB800003EB97
:102A50000010B0FBF2F0216800F00F0028448860FD
:102A600070BD000000380140FEE701460020FFF77E
:102A7000E7BC01464020FFF7E3BC00000FB4084B61
:102A800010B504A902AA039800F03AFC044602A972
:102A9000002000F0CCFF204610BC5DF814FB0000C5
:102AA0002F3A000837B514460846064B6A462146B9
:102AB00000F026FC04466946002000F0B8FF2046DE
:102AC0003EBD00002F3A0008490050EAC12018BF5F
:102AD00004204A0D18BF40F0010040F2FF72B2EB33
:102AE000515F08BF40F00200012808BF0520704771
:102AF0000907090E002804DB00F1E02080F800142B
:102B0000704700F00F0000F1E02080F8141D7047BE
:102B10002DE9F74F144694B00021C4E9021115992C
:102B2000079121F00045C9498D4206DC1599C4E999
:102B3000000117B00020BDE8F08FC549DFF814A3ED
:102B4000A9423CDD0799C44E0029C44FC44A1599D7
:102B5000534619DDFDF710FC554506D0C14AC24B5E
:102B6000FDF70AFCC4E900010AE04FF0D352BE4B66
:102B7000FDF702FC32463B46FDF7FEFBC4E90001CF
:102B800017B00120BDE8F08FFDF755FB554506D085
:102B9000B44AB54BFDF74FFBC4E900010AE04FF022
:102BA000D352B14BFDF747FB32463B46FDF743FBA3
:102BB000C4E9000117B04FF0FF30BDE8F08FAB491A
:102BC000A942159978DB21F0004183468846A84A3E
:102BD000A84BFDF7D7FB0022A74BFDF72CFBFDF719
:102BE000ECFC0990FDF7CBFC06460F469C4A534689
:102BF000FDF7C8FB43465A46FDF7C1FB80468A46AF
:102C0000984A994B30463946FDF7BCFB2A0D012501
:102C10000B9242465346FDF7B2FB032DC4E9000177
:102C200039D00B98C1F30A51401A05EB45111139FF
:102C3000814230DA9148C346784400EB0510CDF864
:102C40000CA00C90D0E9002330463946FDF79AFBE2
:102C500002460B460491069058460399FDF78CFBFB
:102C600080468A4602460B4658460399FDF784FB88
:102C7000049B069AFDF780FB83460C980391394626
:102C8000D0E902233046FDF77DFB5A46039BFDF752
:102C900073FB6D1CBDE707980028A2BF099817B009
:102CA000BDE8F08F616881F000416160099817B05C
:102CB0004042BDE8F08FFFE784461598C1F3130149
:102CC000C0F30A50A0F2F5304FEA601800F01F067A
:102CD000C6F12000139000200690079041F4801E5A
:102CE00005206D4676B1664A08EB00017A4452F839
:102CF000213002EB8101B3404A68139922FA01F1B5
:102D0000194305E05F4908EB0002794451F82210AD
:102D1000A1FB0E27A1FB0C131A449A4234BF0123D6
:102D2000002303EB070A05EB8003D3E901B70F4447
:102D30008F4234BF0121002193448B4411B193454C
:102D400002D903E0934501D2012100E00021C3E94B
:102D500001B7514445F82010011EA0F10100C1DC6B
:102D60000298059F00F10050800F12900298DDE953
:102D700003568000FDF703FC834628460D91FDF7BE
:102D80000FFC6FF01D02FDF7DEFBCDE90E013046B2
:102D9000FDF706FC6FF03D02FDF7D5FB80468A4645
:102DA0003846FDF7FDFB6FF05D02FDF7CCFB0746F3
:102DB000424653461191FDF73EFADDE90E23FDF739
:102DC0003AFA5A460D9BFDF736FA00250E465A464A
:102DD00028460D9BFDF7D0FADDE90E23FDF7CCFA6E
:102DE00042465346FDF7C8FA3A46119BFDF7C7FA2B
:102DF000DFF898A0244A5346FDF7C4FA07468846F0
:102E0000234A244B31462846FDF7BCFA3A4643464E
:102E1000FDF711FA074688464FF0A842534631465F
:102E20002846FDF7AFFA3A464346FDF704FA159AED
:102E300012F0004F04D0129A81F0004152421292D7
:102E4000C4E90001129817B0BDE8F08FFB21E93FFB
:102E50007CD90240FB21F93F7370032E8A19A33BF2
:102E6000000040543163621A61B4D03DFB21394106
:102E700083C8C96D305FE43F0000E03F7C5A00002A
:102E8000F8590000DA590000182D4454FB21F93D8F
:102E90003326A611460B113C2DE9FF4D21F00048C9
:102EA00007460C46B8F1795F08DAFDF786FB002883
:102EB00001BF0020324904B0BDE8F08D3A462346F8
:102EC00010461946FDF75EFA054602462D480E46A5
:102ED0000B460621784400F05DF82A463346FDF79C
:102EE00051FADDE9022382468B4638462146FDF73A
:102EF00049FA04460F4652465B4628463146FDF7DE
:102F000041FA22463B46FDF737FA07468A464FF01C
:102F1000FF3228463146FDF716FB1B4A90450ADA78
:102F20003A465346FDF728FA04B00022BDE8F04DBA
:102F3000134BFDF724BA154A4245A8BFA8F5001562
:102F40004FF00004B8BF124D22462B46FDF714FA8D
:102F50000646884622462B4600200949FDF70CFA12
:102F600004460D463A46534630464146FDF704FABC
:102F700004B022462B46BDE8F04DFDF700BA000034
:102F80000000F03FB05700003333D33F0000E93F6B
:102F90000000D23F2DE9F0414F1E00EBC70104466F
:102FA000D1E9000115461E4637F006020DD02A462B
:102FB0003346FDF7E7F97F1E04EBC703D3E900238F
:102FC000FDF739F937F00602F1D1022F25D0042F91
:102FD00013D0062F18BFBDE8F0812A463346FDF70F
:102FE000D1F9D4E90A23FDF726F92A463346FDF73D
:102FF000C9F9D4E90823FDF71EF92A463346FDF73F
:10300000C1F9D4E90623FDF716F92A463346FDF740
:10301000B9F9D4E90423FDF70EF92A463346FDF742
:10302000B1F9D4E90223FDF706F92A463346FDF744
:10303000A9F9D4E90023BDE8F041FDF7FCB8000090
:103040002DE9FF4D054621F0004084B00C46B0F15B
:10305000795F0BDA2846FFF737FD042808BF00F038
:103060006FF8284608B02146BDE8F08D2A460B4689
:103070001046FDF787F906460F462A462346FDF718
:1030800081F9804626488A4632463B4605217844E7
:10309000FFF780FF83461098029160B3214A224BCC
:1030A00040465146FDF76EF9CDE900015A464046CB
:1030B0005146029BFDF766F982468846DDE9060126
:1030C0004FF0FF32FDF73FFA52464346FDF754F901
:1030D00032463B46FDF756F9DDE90623FDF74CF98C
:1030E000DDE90023FDF748F908B02A462346BDE88C
:1030F000F04DFDF744B90B465A4630463946FDF7C8
:1031000041F9084A084BFDF796F842465346FDF749
:1031100039F908B02A462346BDE8F04DFDF78BB8D3
:10312000EE560000495555555555C5BF0122FDF7CE
:103130000ABA0022134610461146FDF795B9000061
:10314000024A00201107FDF7FEB9000001FDFFFF54
:1031500002E008C8121F08C1002AFAD17047704760
:10316000002001E001C1121F002AFBD170470000BE
:103170000149086070470000740100202DE9FF5FDD
:1031800082B00021DDE90430020DDDF840B00343D8
:1031900018D044F61050A2F2FF3242431514119891
:1031A00001281FD0A5EB0B00401C5FEA000A4FF07E
:1031B00000064E4FDFF83891B046504615D5CAF19B
:1031C000000413E0119801244AA3012801D16FEAF9
:1031D0000B010298119AC0E90031C0E9024206B021
:1031E000BDE8F09FCBF10000DFE704460021404A34
:1031F000491842EB0450CDE9001012E0E00707D077
:1032000032463B4640464946FDF7BCF88046894673
:1032100032463B4610461946FDF7B4F806460F46BF
:103220006410002CEAD1DDE90401DDE90023BAF1E4
:10323000000F06DAFDF7A6F842464B46FDF7A2F866
:1032400005E0FDF711F942464B46FDF70DF904463E
:103250000E460022284BFDF713FB03D84FF0FF303A
:10326000014607E00022254B20463146FCF7E3FFEC
:10327000FDF7EDFA102409E0002C0ADB0A220023F6
:10328000FDF7FFF9039B30321A55641E50EA010224
:10329000F2D1641C039AC4F111031444119A012A57
:1032A00003D0012208430DD10AE0084304D00020D6
:1032B0004FF0110B119072E7A3EB0B056D1E0DE0A3
:1032C0005B4504DD4FF0000205F1010504E003DA7F
:1032D0004FF00002A5F10105002AECD002981199E7
:1032E000C0E90231C0E9004579E700000000144060
:1032F0000000F03F300000000000F0430000E03F1D
:103300002DE9FF4F95B09B468946064600250FE202
:10331000252877D100242746F84A0121059400E0AA
:10332000044316F8013F203B01FA03F01042F7D1A5
:1033300030782A2811D06FF02F033078A0F13002B6
:10334000092A16D8059A44F0020402EB820203EB24
:1033500042021044761C0590EFE759F8042B0592C1
:10336000002A03DA504244F40054059044F0020469
:10337000761C30782E2816D116F8010F44F004047C
:103380002A280DD06FF02F023078A0F13003092BDE
:1033900009D807EB870302EB4303C718761CF3E752
:1033A00059F8047B761C30786C280FD006DC4C284A
:1033B00017D068280DD06A2814D104E0742810D0E2
:1033C0007A280FD10DE044F400140AE044F480148C
:1033D00001E044F440147278824202D104F5801472
:1033E000761C761C307866280BD013DC582877D0F2
:1033F00009DC002875D04528F6D04628F4D04728A7
:103400001AD19DE118E0632835D0642879D0652869
:1034100012D195E1702873D008DC6728F1D06928B3
:103420006FD06E280DD06F2806D1B5E073282CD050
:10343000752875D0782874D05A46179990476D1C16
:1034400075E1C4F30250022809D003280DD0D9F841
:10345000001004280DD00D6009F1040967E1D9F8C6
:103460000010EA17C1E90052F6E7D9F800100D8004
:10347000F2E70D70F0E719F8041B8DF8001000203A
:103480008DF80100EA46012003E059F804AB4FF043
:10349000FF3061074FF0000102D40DE008F1010197
:1034A0008846B9420FDA8045F8DB1AF8081000297F
:1034B000F4D108E008F1010188468142FADB1AF8EC
:1034C00008100029F6D105985B46A0EB08072146B5
:1034D0003846179A00F094FA284400EB080507E0F4
:1034E0004DE029E10DE01AF8010B5A461799904773
:1034F000B8F10108F7D25B4621463846179A13E126
:1035000042E00A220092C4F302524FF0000A022A5B
:1035100008D059F804CB032A4FEAEC710AD00DE029
:1035200029E02AE009F1070121F00702F2E802C1CF
:10353000914609E00FFA8CFC4FEAEC71042A03D1A2
:103540004FFA8CFC4FEAEC71002907DA0A46002199
:10355000DCF1000C61EB02012D2202E0220504D512
:103560002B228DF80420012203E0E20701D0202263
:10357000F7E7904659E00A2102E010220DE0102101
:103580004FF0000A00910BE010224FF0000A44F0C7
:1035900004040827009203E008224FF0000A00927A
:1035A000C4F30252022A05D059F804CB0021032AA1
:1035B00008D009E009F1070121F00702F2E802C191
:1035C000914605E01FFA8CFC042A01D10CF0FF0C97
:1035D0004FF00008220728D5702806D0009B83F002
:1035E000100353EA0A0305D00EE040228DF80420B0
:1035F000012208E05CEA010206D030228DF80420A6
:103600008DF8050002229046009B83F0080353EAE0
:103610000A030AD15CEA010201D1620705D5302212
:103620008DF804204FF001087F1E582804D034A0E4
:1036300003900EA802900DE036A0F9E753466046CD
:10364000009AFDF71EF884460398825C0298401E9B
:10365000029002705CEA0100F0D1029806A9081AF3
:1036600000F1200A600702D524F4803400E001272D
:10367000574502DDA7EB0A0000E0002000EB0A013D
:10368000009005984144401A0590E00306D45B463B
:103690002146179A059800F0B3F90544002706E083
:1036A00001A85A46C05D179990476D1C7F1C47457D
:1036B000F6DBE0030CD55B462146179A059800F02F
:1036C0009FF9054404E030205A46179990476D1C35
:1036D0000099481E00900029F5DC08E00298029944
:1036E0005A460078491C0291179990476D1CBAF10F
:1036F0000001AAF1010AF1DC65E1000009280100DE
:103700003031323334353637383961626364656657
:103710000000000030313233343536373839414219
:10372000434445460000000000F058F90544761C6B
:10373000307800287FF4ECAD19B02846BDE8F08F52
:10374000620700D4062709F1070222F0070CFCE803
:103750000223E14603F000485FEA080C02D00FF2B2
:10376000702C0DE05FEA045C02D50FF2682C07E0D4
:103770005FEAC47C02D00FF2602C01E0AFF2700C63
:103780004FF0FF3823F00043CDF850C065280CD02F
:1037900006DC452809D046281DD047283DD13DE00C
:1037A000662818D067287ED138E00021112F01DB70
:1037B000112000E0781CCDE9000106A90EA8FFF752
:1037C000DDFCDDE90F010E9A03910021009207F163
:1037D000010A04914DE04FF000400097CDE901103F
:1037E00006A90EA8FFF7CAFCDDE90F0203920E9BA3
:1037F00011990022DDF80CA00093049211B9791CF4
:1038000000EB010AB7EB0A0004D4C0F1FF3007F166
:10381000010A0490AAEB0700019044E0012F00DAAE
:1038200001270021112F01DD112000E03846CDE9EC
:10383000000106A90EA8FFF7A1FCDDE90F010E9A11
:103840000391002104910092BA4621070CD40399F8
:10385000514500DA8A46BAF1010F05DD009AAAF156
:103860000101515C302908D0B84202DA10F1040F8E
:1038700006DA0121CDE9011015E0AAF10101E9E71D
:10388000002805DC049901440491AAEB000102E040
:10389000411C514500DD8A460499401A401C0190A4
:1038A0004FF000400290200704D40198504501DBFE
:1038B000CDF8048000208DF84F0002980DF14F07DD
:1038C000B0F1004F25D02B200E9002984FF0020847
:1038D00000280CDA404202902D200E9007E00A21C9
:1038E0000298FCF7B8FE3031029007F8011DB8F1DC
:1038F0000001A8F10108F2DC02980028EFD1791E3E
:103900000E980870307800F0200040F0450007F86D
:10391000020D12A8C01B00F107081498007800B12E
:10392000012000EB0A01019801EBE0710598414488
:10393000401A401E0590E00306D45B462146179AC4
:10394000059800F05DF805441498007818B15A46BF
:10395000179990476D1CE00324D55B462146179AC2
:10396000059800F04DF805441CE00498002807DB9A
:10397000DDE90301884203DD0098405C179901E00E
:10398000179930205A469047049805F10105401CCC
:1039900004900198401E019004D12E205A46179998
:1039A00090476D1CBAF10001AAF1010ADDDC05E0C7
:1039B00017F8010B5A46179990476D1CB8F1000192
:1039C000A8F10108F4DC5B462146179A0598ABE69E
:1039D0002D0000002B000000200000002DE9F04128
:1039E000044600251E461746880404D405E03946DF
:1039F0002020B0476D1C641EF9D52846BDE8F08133
:103A00002DE9F041044600251E469046C80301D525
:103A1000302700E02027880404D505E041463846D9
:103A2000B0476D1C641EF9D52846BDE8F0810A68D0
:103A3000531C0B60107070470448054B054A807892
:103A40000549401EC0B202F01DBB00002007002047
:103A5000813B0008E8800008926F0008044A00EBF0
:103A60004000104402880A80807888707047000007
:103A7000C000002000F0BABE00F0B8BE01480078D7
:103A800070470000D80600200348007A002801D0C3
:103A90000020704701207047D80600200148407878
:103AA00070470000D8060020084A9278002A0AD001
:103AB000074B01221A7009B1002200E0C0225A709F
:103AC0005860197270470028FCD00047E4060020B7
:103AD000D80600202DE9F0411D4D2878002835D06A
:103AE000687829462F7A49784B1CCC1C4A1D08312E
:103AF00000268FB1042801D2D8B208E0082801D2EC
:103B0000E0B204E0102801D2D0B200E0C8B24028F0
:103B100013D32E70002010E0FB2801D9D8B208E0A2
:103B2000F72801D9E0B204E0EF2801D9D0B200E0D3
:103B3000C8B20A2801D22E700020687028780028A8
:103B400004D16868002801D080476E60BDE8F0812C
:103B5000D8060020AFF3008007480223037000213D
:103B6000417001228270C1700171417181710172D5
:103B70004372827200F002B8E40600207047000031
:103B80000348006A002800D0004700F07FBF000013
:103B9000200700200121FFF787BF0021FFF784BF26
:103BA00010B5054B054A0649064802F0F1F90749E8
:103BB0000548886110BD0000AF4800081D6E000870
:103BC000454B00084D6E00087D6E00082007002060
:103BD00010B5054B054A0649064802F0D9F90749D0
:103BE0000548886110BD0000BD480008C95700089D
:103BF000BD4B0008D9570008655400082007002075
:103C000010B5054B054A0649064802F0C1F90749B7
:103C10000548886110BD0000CF4800088166000893
:103C2000314C000899660008B166000820070020A2
:103C300010B5054B054A0649064802F0A9F907499F
:103C40000548886110BD00008D490008256B0008FB
:103C5000C94C0008DD6A0008656B000820070020D9
:103C6000024B986099619A6270470000F00600204C
:103C700010B501F013FB05498A68904204D08860B2
:103C8000BDE8104001F08EBE10BD0000D000002045
:103C900010B503F05BF801F0E7FE08B1FFF7E8FFAD
:103CA00001F0E2FE08B100F0D5F9BDE810404FF494
:103CB00080610148FCF74DBA4407002030B500216F
:103CC000124800684218527C2AB1FF2A03D0491CCE
:103CD000C9B20329F6D30E4A9479D379641C557975
:103CE000E4B2032902D043748474C57400214218DD
:103CF000127D2AB1FF2A03D0491CC9B20329F6D389
:103D0000032902D003754475857530BD84000020F9
:103D10002E010020064A50781178C31D994202D323
:103D2000891FC8B202E0814200D208465070704735
:103D30002007002014210148FCF70BBA2C070020B3
:103D40000FB42DE9F84F814600270CAA5A480B9969
:103D5000FEF7A8FEBA46CDF800A0584E86F803A09C
:103D60005548FCF70DFA84B21021534800F0E6FCE8
:103D70000546DFF84C81681C24D08346A0420CD055
:103D800001277078EAB200EB800008EB80004A4916
:103D900002F064FC0FFA8BF525E04DB17078EAB2C1
:103DA00000EB800008EB8000434902F057FC1AE06A
:103DB0007078012200EB800008EB800041A102F046
:103DC0004DFC10E01120B4FBF0F0C7B2112C00D173
:103DD000002711257078112200EB800008EB80008D
:103DE000354902F03BFC707800EB800008EB800066
:103DF000FCF7C6F9C0B23071B178884210D2002405
:103E000009E070782FA100EB800008EB8000FCF740
:103E1000ABF9641CE4B2B0783179401AA042F0DC0E
:103E20003079B0707078401CC0B27070142801D323
:103E300086F801A07478082C01D301203070307806
:103E400078B34FF480612048FCF783F90C341420D8
:103E5000B4FBF0F100FB1144012604EB840008EBF5
:103E60008002701EC100002000F010FD641CE4B24E
:103E7000142C00D30024761CF6B2082EEDD901F0E4
:103E800077FC4846FCF708FE002F06D00A480FA131
:103E900042194FF49670FFF753FFBDE8F80F5DF835
:103EA00014FBFFE7641E04EB840008EB8002E100D2
:103EB000002000F0EBFCE2E7940D002064010020FC
:103EC000040C00202000000044070020257300009F
:103ED0002DE9F047524F3C78FE783846B978407863
:103EE00000224FF00109002904D0397991B1B61FA1
:103EF000F6B211E010B1E41CE4B201E0E41EE4B259
:103F0000202C1BD318B1202487F8029016E000243F
:103F10007A7113E00A36F6B2802E0FD3002902D050
:103F20004FF0000601E04FF0800600D1BA7001D0DA
:103F300000B17A7149B14FF0000038714FEAD40AEC
:103F40004FF00005DFF8DC8012E04FF00100F4E7ED
:103F500008EBC5104FF08001FCF7FBF8684208EB56
:103F6000C01000F560708021FCF7F3F86D1CEDB215
:103F70005545EDD304F007026AB34FEACA10A0F228
:103F8000FF31494289B2FF2303FA02F505F0FF0A27
:103F900023FA02F509FA02F909F0FF094FF0800C43
:103FA0002CFA02FC002218F8003003EA0A0343EA64
:103FB000090308F80030401C80B218F801302B408B
:103FC00043EA0C0308F80130491E89B2521CD2B2F0
:103FD000802AE8D31FE0F4B1C6F18000C4F14001AB
:103FE000C0F34600C1F3C40100EBC11040440122FC
:103FF0003146FCF7A7F8202C0DD04FEACA128020DA
:1040000006E0111818F8013043F0010308F80130F8
:10401000401EC0B2F5D23C70FE70BDE8F0870000D3
:10402000FC0000204407002002484069002800D01E
:1040300000477047E40000200149486170470000D4
:10404000E40000200146024A106911617047000037
:10405000E40000207CB501F021F91E4D69686A7802
:10406000411A914231D3A97068600024FFF732FDF4
:10407000286905F1180628B1717909B9717809B96B
:1040800080470446707908B1FFF722FF707910B9B4
:10409000FFF7F4FC00B101240F484FF47A76407921
:1040A00060B1A8780DA1B6FBF0F26846FEF7E6FC19
:1040B000382364220021684600F07CFA00F078FA88
:1040C00024B12878B6FBF0F068707CBD28206870B9
:1040D0007CBD0000E4000020E406002025750000FF
:1040E0000A21B0FBF1F0704702490246032009782B
:1040F00000F076BC2007002010B504460848C078C0
:1041000000280CD0FFF7BAFC18B1FFF7BDFC00285F
:1041100005D0002C03D0A446BDE81040604710BD78
:10412000200700203EB500F0B5F802F083FB0546FD
:1041300000F014F82324FCF7F9FB50B1002008210B
:10414000CDE900100B460290034A3821204600F0CA
:104150007DF928463EBD0000F07C00083EB501F028
:104160009DF84549C8600A7810254FF47A730024F9
:10417000B2B34A68821A9A4201D948600C70CDE9FC
:10418000005410233D4A30211846029400F05EF995
:10419000CDE9005410233A4A30212020029400F047
:1041A00055F9CDE90054364A302110232032084613
:1041B000029400F04BF9CDE90054314A102340320B
:1041C00030214020029400F041F9CDE900542C4AFE
:1041D0001023603230215020029400F037F93EBDA8
:1041E000FFE74A68821A9A4202D9486001200870A3
:1041F000CDE900541023234A30210020029400F01E
:1042000025F9CDE900541E4A1023803A3021184682
:10421000029400F01BF9CDE9005410231A4A302112
:104220002020029400F012F9CDE90054144A302104
:104230001023403A0846029400F008F9CDE90054F2
:104240000F4A1023203A30214020029400F0FEF85B
:10425000CDE9005410230D4A30216020029400F073
:10426000F5F8CDE900540B23094A3021722002945D
:1042700000F0ECF8B3E700005401002003760008DA
:10428000A3760008E37500080378000803790008A6
:10429000197A000870B58AB0304E3149307901EB97
:1042A000800109A8FBF780FFF2792EA104A8FEF790
:1042B000E5FB00230322194604A800F07BF9B2793C
:1042C0007379521C2AA104A8FEF7D8FB0022082308
:1042D000114604A800F06EF900241025CDE9005421
:1042E0002B46264A21462220029400F0AFF830796E
:1042F0000930C0B22249CDE9005401EB401210232D
:1043000000213220029400F0A1F8CDE900541C4AAB
:104310001023403200214220029400F097F8CDE9AA
:1043200000540B23174A00215220029400F08EF80B
:10433000CDE90054134A0B23C63200215E200294BB
:1043400000F084F8CDE9005410230F4A00217020BA
:10435000029400F07BF80AB070BD00002E0100202E
:10436000976F000832302530326868750000000011
:10437000253032642E2530326868750023770008B6
:1043800023760008037A0008E37800082DE9FE4F41
:104390000446237A607A03FB00F1C1F3C707A57ACC
:1043A000E17A626801FB072294F8008094F801909A
:1043B000667B4FF0000A002E07D035B1FF2D04D0E8
:1043C000491ECEB2FF2E0AD00AE0CDE9000A4946C6
:1043D0004046CDF808A000F039F8BDE8FE8F267BF6
:1043E000291A091FC9B2CDE901A1009049464046EA
:1043F00000F02CF8607ACDE901A500906068237A7E
:1044000006FB07024946404600F020F8E5E70000B9
:1044100010B586B0202218216846FBF793FE0A4C9F
:104420006068FBF7ADFE0921A1EB50006946084426
:104430006168FBF7B9FE00231A461946684600F08A
:10444000B9F806B010BD0000200700202DE9FF4F8D
:1044500087B00D46149CFFF721FB284400F0FF09AC
:104460001698A9EB0000C0B20690E00805900698E7
:1044700000F0070A09EB0400C0B204904FF00008F6
:1044800079E0069800EBC800C4B204F10800C6B297
:10449000169830B14E456AD3402E68D804988442AD
:1044A00065D8FF27169870B14C4505D2A9EB0401D9
:1044B000FF208840C7B206E00498864203D90498DA
:1044C000FF27301AC740E008C0010390DDE9090169
:1044D00008FB01000290BAF1000F1AD1402C18D24B
:1044E000002412E007982044C5B2802D0BD2029818
:1044F0001599204401F0C4FA38400399214A29440F
:10450000535C03435354641CE4B20A988442E9D3D5
:104510002DE0F008C0010190002525E0079828440F
:1045200000F0FF0BBBF1800F1CD2029815992844B4
:1045300001F0A6FA3840402C08D20399114B594497
:1045400000FA0AFC5A5C42EA0C025A54402E09D284
:1045500001990C4B5944CAF1080C5A5C20FA0CF032
:1045600002435A546D1CEDB20A988542D6D308F125
:10457000010808F0FF080598804582D30BB0BDE81C
:10458000F08F0000440700200B461146DA0800EBCC
:10459000C2104FF48063984206D242189A4203D266
:1045A000024A1044FBF7D5BD7047000044070020C5
:1045B00001F0DEB82DE9FE4F0646884691469A4640
:1045C00000254FEADA072CE02038C0B2C5EBC50160
:1045D0004944CCB200210822CDE9002802911349B8
:1045E00000EB80004218052351462046FFF72EFFBE
:1045F000B8F1000F12D03CB10D48611EC9B201EBF9
:10460000C7114FF0FF3242547B2C07D20848641D7B
:10461000E1B201EBC7114FF0FF324254761C6D1C22
:10462000EDB230780028CFD1BDE8FE8F0B7B0008BB
:104630004407002010B5064800240470054B064AC4
:104640000649074801F0A4FC0648846110BD00003B
:1046500014010020AF480008B54D0008454B000884
:10466000094A00082007002010B5064800240470FD
:10467000054B064A0649074801F08AFC0648846152
:1046800010BD000014010020BD480008E14D0008E5
:10469000BD4B0008354A00082007002010B5064829
:1046A00000240470054B064A0649074801F070FCD7
:1046B0000648846110BD000014010020CF480008A6
:1046C00045590008314C00084954000820070020D3
:1046D00010B5064800240470054B064A06490748F1
:1046E00001F056FC0648846110BD00001401002052
:1046F0008D490008194E0008C94C0008694A000895
:104700002007002004480021016004498160012144
:10471000C1600349FCF7D2B97805002000FC00080D
:1047200000000020044801788078401E814201D1B9
:10473000012070470020704720070020034600201A
:1047400005E01A5C2AB10A2A05D0401C00B2884252
:10475000F7DD4FF0FF30704710B5002821D0114B26
:104760000022001F196803E0814203D80A46496805
:104770000029F9D152B11368841A9C4204D100680F
:1047800018441060104602E0506000E0186039B133
:1047900002680B1A934203D10B681A4402604968FD
:1047A000416010BD6C010020042070470D48007866
:1047B000082815D2DFE800F014040614040E1012C5
:1047C0000120704708480078012801D01720704761
:1047D0000C2070471F2070470B20704763207047E4
:1047E0003B20704714010020380100202DE9FC47D0
:1047F000FF274FF6FF76234CA0788DF80600E0786F
:104800008DF80700002101A802F076FA607822797D
:10481000401CC1B29DF8060002F0B6FA804605259C
:10482000DFF8649027E069462846FFF717F99DF8FE
:10483000020000061FD507241AE09DF8020001219E
:10484000A140084214D09DF801109DF800002246B6
:1048500002F09AFAA0EB0801002902DA42F25F7036
:10486000014488B2B04203D28EB22F4689F801408B
:10487000641EE4B2E1D26D1EEDB2D4D289F80070AC
:10488000BDE8FC872E010020AC00002030B41446A7
:10489000801CC2B22046CBB230BC0021FFF78ABEDA
:1048A00010B501F005FCBDE81040FFF7C5B810B524
:1048B00001F0ECFDBDE81040FFF7BEB810B501F007
:1048C00093FD01F0C7FCBDE81040FFF7B5B810B587
:1048D00001F024FCBDE81040FFF7AEB870B5002031
:1048E0000124114B114A12A101F0CCFB0225124BFD
:1048F000124A13A1204601F0C5FB0324124B134AB0
:1049000013A1284601F0BEFB144B154A15A1204601
:1049100001F0B8FBFFF748FFBDE87040134B144AA5
:1049200014A101F0AFBB00000D670008637400081C
:104930005461696C4E6F2E00C553000868800008F2
:104940004D6F6465000000003D4D0008E36F0008F6
:1049500054696D652026206461746500E14C00088F
:1049600063700008536F756E64000000B15000085A
:10497000E8800008457869740000000010B501F077
:10498000E3FBBDE81040FFF757B8000010B501F099
:1049900051FC01F06BFD0C4C607808B10BA100E0FC
:1049A0000CA10E4B0022052001F06CFB607808B1D1
:1049B00006A100E007A1094B0022062001F062FBDE
:1049C000BDE81040FFF738B8380100205361766524
:1049D000640000005361766500000000815B000800
:1049E00030B404460846064B5C7098701A7005494E
:1049F000CA69002A01D030BC104730BC70470000A3
:104A00000C0100202007002010B500F01DFD084813
:104A1000007838B1022805D0042803D0062801D038
:104A2000082803D1BDE8104000F00EBD10BD000005
:104A30002007002010B500F007FD0A4C207808B1CF
:104A4000022801D100F000FD2078032801D100F0F8
:104A5000FBFC2078042803D1BDE8104000F0F4BC32
:104A600010BD00002007002010B500F0EDFC064846
:104A7000007818B1022801D0042803D1BDE8104005
:104A800000F0E2BC10BD00002007002010B500229D
:104A900004491046FFF7E4F8BDE810400248FFF76C
:104AA00079B800005D520008AD4A000810B50E4804
:104AB000FFF7C8FA0D4A0E490E48FFF7D1F8FFF785
:104AC00073FE0DA2012101F06DFA0F4B0F4A104940
:104AD000104801F05DFA1049104801F07BFBBDE879
:104AE00010400020FFF759B8E1500008CD500008F1
:104AF0005D520008895200083C204D41494E204D2E
:104B0000454E55203E000000DD480008455900088C
:104B10008D4C000849540008AD4A000804010020EB
:104B200010B5FFF7FFFD04460CB1FFF727F8044866
:104B300001F03EFB2046BDE81040FFF7D5BA00006B
:104B40000800002070B5FFF7EDFD38B3582000F0E5
:104B500079FA0446200010D0154D582221462846E7
:104B600000F08CFF134EE07B3168CA7B904205D089
:104B70005822284602F022F90DE0FEE704280AD167
:104B80000A22491D601DFBF702FB20B1582228466E
:104B9000316802F013F92046FFF7DEFD064801F008
:104BA00007FBFFF7BFFDBDE87040FFF79DBA0000AF
:104BB00000FC0008840000201400002070B5FFF7FE
:104BC000B1FD30B3582000F03DFA0446200010D06B
:104BD000144D58222146284600F050FF124E207CEA
:104BE00031680A7C904205D05822284602F0E6F847
:104BF0000CE0FEE70322143104F11400FBF7C7FABE
:104C000020B158222846316802F0D8F82046FFF734
:104C1000A3FD064801F0CCFAFFF784FDBDE8704023
:104C2000FFF762BA00FC000884000020700000203A
:104C300070B5FFF777FD0446124801F0B9FA204637
:104C4000FFF752FA002C1BD0582000F0FBF9044665
:104C5000ACB10D4D58222146284600F00FFF0948FF
:104C60002268001F01680868824203D05822284643
:104C700002F0A4F82046BDE87040FFF76DBDFEE7E6
:104C800070BD00008800002000FC000810B504483A
:104C900001F08EFABDE810400120FFF725BA0000B0
:104CA0000401002010B5FFF73DFD04460CB1FEF7EE
:104CB00065FF044801F07CFA2046BDE81040FFF78C
:104CC00013BA00002401002010B5044801F070FA66
:104CD000FFF728FDBDE81040FFF706BA3C010020B1
:104CE00010B50CA20121032001F05CF90C4B0D4A18
:104CF0000D490E4801F04CF90E490D488861AFF29C
:104D00001F010D4801F066FABDE810400020FEF7D3
:104D100044BF00003C20534F554E44203E0000004D
:104D20007D49000845590008A54C00084954000871
:104D3000E1670008200700202401002010B5124977
:104D400010480A68C2604968016110498979017098
:104D5000002141700EA2072001F024F9104B114AE6
:104D60001149124801F014F9AFF22F010548001D56
:104D700001F030FA0E4901200870BDE81040002013
:104D8000FEF70BBF380100202E010020E4060020B2
:104D90003C2054494D4520262044415445203E00A6
:104DA0008D490008194E0008C94C0008694A0008DE
:104DB0002007002010B500F0C5FD0848007838B184
:104DC000022805D0042803D0062801D0082803D1E2
:104DD000BDE8104000F0B6BD10BD00002007002067
:104DE00010B500F0AFFD0B4C2078042801D100F085
:104DF000A9FD2078032801D100F0A4FD207818B186
:104E0000022801D0042803D1BDE8104000F09ABD6B
:104E100010BD00002007002010B500F093FD0648EB
:104E2000007818B1022801D0042803D1BDE8104051
:104E300000F088BD10BD000020070020FCF704FB37
:104E4000FDF714FD582000F0FDF82A4908600028FD
:104E50004FD0FDF70BFBFDF7B9FBFDF75DFBFDF751
:104E6000D1FBFDF779FBFDF705FC00F05DFD4FF48C
:104E7000FA7421A12046FEF763FF23A10A20FEF762
:104E80005FFF26A10A20FEF75BFF29A10A20FEF79B
:104E900057FF2CA10A20FEF753FF2FA10A20FEF78F
:104EA0004FFF32A10A20FEF74BFF35A10A20FEF783
:104EB00047FF38A10A20FEF743FF3B4A002111605B
:104EC0004FF480613948FBF744F9FEF743FEFEF7E3
:104ED000D1FDFDF7A7FC00F0BFFD35A12046FEF790
:104EE0002FFF3548FFF7A8F8FFF79EF8FEF7D0FE32
:104EF000FCE7FEE784000020696E69745F4F4C4553
:104F0000443A204F4B0000002D2D2D2077656C6317
:104F10006F6D6520212D2D2D0000000020205F20C9
:104F200020205F202020205F202020200000000083
:104F3000207C207C207C207C20207C5F7C2020200A
:104F400000000000207C207C5F7C207C2020205FF3
:104F50002020202000000000207C20205F20207CDA
:104F600020207C207C20202000000000207C207C51
:104F7000207C207C20207C207C2020200000000041
:104F8000207C5F7C207C5F7C20207C5F7C2020203C
:104F90000000000020202020202020202020202091
:104FA000202020200000000098000020440700205E
:104FB0005354415254202100F56D00087CB505463C
:104FC000084C0949A07901EB800101A8FBF7ECF836
:104FD000E1790091627901AB04A12846FDF74EFD0D
:104FE0007CBD000044010020B36F00082020202574
:104FF0003032686875202573203230253032686879
:10500000750000001CB5074BD978202901D00C226F
:1050100000E018225C78CDE900419B7802A1FDF701
:105020002DFD1CBD440100202020202568687568E6
:1050300072202530326868753A25303268687525E7
:1050400063000000F0B50B30154D20F0070100247F
:10505000144A0FE003688B420BD38B4205D95E1ACA
:1050600043184768C3E9006700E04368136002C063
:1050700004E0021D10680028ECD12046002802D16F
:10508000286808B10020F0BD064A07481060074AAA
:10509000121A22F00702C0E9002401202860D7E795
:1050A000700100206C0100209C1100209815002048
:1050B00010B5FEF73FFE04480021C1700162BDE853
:1050C0001040FEF7B1BF00002007002010B50348D4
:1050D0004069FFF711F8012010BD000020070020F3
:1050E00070B500240A4D287A002806D000F012F886
:1050F0000446A86948B12CB902E000F081F8F8E74D
:10510000804708B1012400E00024204670BD000063
:10511000200700202DE9FE43344F40213878A0EBD2
:10512000800001EB001100263148324C80780028C5
:105130002AD062680123914213DDA1EB02004FEAFD
:10514000E07500EB957003EBA000C3B2102B00D903
:105150001023D0186060814201DC616015E00126F7
:1051600013E012DA501AC51700EB957003EBA0009C
:10517000C3B2102B00D91023D01A6060814201DB2A
:10518000616002E0012600E061606468103CFFF7A6
:105190003FF900254FF00808CDE900852423164A81
:1051A0000E212E200295FFF751F9CDE90085242329
:1051B000124A2A212E200295FFF748F90BE004F14C
:1051C0001F009F2804D2E2B229460020FFF708FC06
:1051D00030346D1CEDB2B878A842F0D8397800228E
:1051E0000120FFF7FDFB3046BDE8FE8320070020CD
:1051F000E40600200C010020208000084480000804
:105200002DE9F047FFF704F9124E7578B0780728BA
:1052100000D90720284400F0FF082C464FF0080969
:1052200013E0601B09EBC000C7B23078A04205D183
:1052300000223B46114608A0FFF7BCF93A4621463A
:105240000220FFF7CDFB641CE4B24445E9D3BDE87E
:10525000F0870000200700203E00000010B5FEF798
:105260000DFC10B1FEF710FC28B10648C17821B141
:10527000006900B18047012010BD0121C170FFF716
:1052800005FCF8E72007002010B50348C068FEF7CA
:1052900033FF012010BD0000200700200148806876
:1052A00070470000900000200A21B0FBF1F201FBE2
:1052B0001200704710B51AA200210A2000F072FEF9
:1052C0001A4B1B4A1B491C4800F062FEAFF21B013F
:1052D0001A4800F07FFF1A4C58221A48216800F043
:1052E000CDFB164A0320121FD070002010705070A2
:1052F000907020680123C17B09B1042909D90F49A5
:10530000091F0C6A40F8054F4C6A4460098D018101
:1053100013700D480370BDE810400020FEF73DBC3F
:105320003C20436F75706C65203E0000AF4800085C
:10533000B54D0008454B0008094A0008140000203C
:105340008400002000FC00082007002010B511A2F6
:105350000021062000F026FE124B134A1349144880
:1053600000F016FEAFF21B01124800F033FF1148A7
:105370005822001F026010480168104800F07EFBB0
:10538000FEF79CFC0E4901200870BDE8104000208B
:10539000FEF703BC3C204F64642026204576656EF2
:1053A000203E0000BD480008E14D0008BD4B00084C
:1053B000354A0008700000208400002000FC00082E
:1053C0002007002010B50CA20121032000F0EAFD07
:1053D0000C4B0D4A0D490E4800F0DAFD0E490D4800
:1053E0008861AFF21F010D4800F0F4FEBDE81040E7
:1053F0000020FEF7D2BB00003C204D4F4445203E2C
:1054000000000000A148000845590008214B000891
:10541000495400088D67000820070020080000207C
:1054200008490878421C0A704A6832F8200080B2A5
:105430000022022803D0002800D14A7070470A7069
:10544000EEE700004C01002005490878401CC0B27E
:1054500008708A78904201D300200870FEF75ABC89
:10546000200700202DE9F04F89B04FF0060A1820E0
:1054700008901022B7A0D0E900138068CDE9051389
:105480000790B748DFF8DCB2002503781024012626
:105490000A21B54FDBF800004FF020084FF030092B
:1054A000082B1ED2DFE803F01D041E4F80B1E6FD7D
:1054B000082739465046FFF767F8224621465046EE
:1054C000FFF762F8CDE901650094DBF80000A74919
:1054D0001023007C103001EB401239465046FEF795
:1054E000B5FF32E1407CB0FBF1F9B0FBF1F201FB1A
:1054F000120B9DF814A0162250460899FFF744F8A5
:10550000414616225046FFF73FF8CDE9016509EB09
:10551000490000EBC90007EB40020B230094504602
:105520000899FEF793FFCDE901650BEB4B0000EB0B
:10553000CB0007EB400200949DF815000B2308995F
:10554000FEF784FF01E1807CB0FBF1F9B0FBF1F2E2
:1055500001FB120B9DF817A0162250460899FFF781
:1055600013F8414616225046FFF70EF8CDE90165C3
:1055700009EB490000EBC90007EB40020B23009444
:1055800050460899FEF762FFCDE901650BEB4B0031
:1055900000EBCB0007EB400200949DF818000B23B2
:1055A0000899FEF753FFD0E0C07CB0FBF1FAB0FBE6
:1055B000F1F201FB120B9DF81A9016224846089949
:1055C000FEF7E2FF414616224846FEF7DDFFCDE931
:1055D00001650AEB4A0000EBCA0007EB40020B230F
:1055E000009448460899FEF731FFCDE901650BEBC1
:1055F0004B0000EBCB0007EB400200949DF81B0032
:105600000B230899FEF722FF9FE04FF02808007D4A
:10561000B0FBF1FAB0FBF1F201FB120004909DF82F
:1056200014B0162241465846FEF7AEFF49461622F0
:105630005846FEF7A9FF0AEB4A00CDE9016500EBE9
:10564000CA0007EB40020B23414658460094FEF780
:10565000FDFECDE901650498009400EB400101EBEB
:10566000C00007EB40029DF815000B234146FEF7F2
:10567000EDFE6AE04FF02808407DB0FBF1FAB0FB88
:10568000F1F201FB120004909DF817B0162241467A
:105690005846FEF779FF494616225846FEF774FF32
:1056A00000E01EE00AEB4A00CDE9016500EBCA000C
:1056B00007EB40020B23414658460094FEF7C6FE16
:1056C000CDE901650498009400EB400101EBC000B6
:1056D00007EB40029DF818000B234146FEF7B6FE8B
:1056E00033E04FF02808807DB0FBF1FAB0FBF1F217
:1056F00001FB120004909DF81AB01622414658464C
:10570000FEF742FF494616225846FEF73DFF0AEBD8
:105710004A00CDE9016500EBCA0007EB40020B230C
:10572000414658460094FEF791FECDE90165049884
:10573000009400EB400101EBC00007EB40029DF834
:105740001B000B234146FEF781FE09B00020BDE897
:10575000F08F000006111C242F3A424D58680000BB
:105760001401002084000020037A0008237600083A
:105770002DE9F041124C0026124F06F1B000C0B2E4
:10578000FDF773F90020FDF770F91020FDF76DF9B2
:105790000025787830B114F8010BC043C0B2FDF792
:1057A00068F903E014F8010BFDF763F96D1CEDB225
:1057B000802DEED3761CF6B2082EDED3BDE8F08144
:1057C00044070020E406002002484178491E417049
:1057D00000F00AB81401002002484178491C4170C9
:1057E00000F002B8140100202DE9F0412B482A4AAC
:1057F000012301681046147863250C261F27407882
:105800004FF0160C082C09D2DFE804F008040C173E
:105810002029343D087C18B100200874BDE8F081CF
:105820000B74FBE7632802D982F801C002E0162856
:1058300000D2557050784874F0E70C2801D95370A5
:1058400001E000B9567050788874E7E71F2801D945
:10585000537001E000B957705078C874DEE76328D0
:1058600002D982F801C002E0162800D255705078A3
:105870000875D3E70C2801D9537001E000B95670C0
:1058800050784875CAE71F2801D9537001E000B964
:10589000577050788875C1E71401002084000020FB
:1058A0007CB56A4607210220FCF77AFF9DF80000CC
:1058B0001B4C00F07F00A070FBF74AF8194D2870D0
:1058C0009DF8010000F07F006070FBF741F8687000
:1058D0009DF8020000F03F002070FBF739F8A87037
:1058E0009DF8030000F03F006071FBF731F868712C
:1058F0009DF8050000F01F002071FBF729F8A87142
:105900009DF80600E070FBF723F8E8719DF80400AD
:1059100000F00700A071FBF71BF828717CBD0000A8
:10592000DC0500202E01002010B5FFF7B9FF044868
:105930000078002803D1BDE81040FFF7B1BF10BDCB
:105940007E000020054A1078401EC1B21170907888
:10595000814201D3401E1070FEF7DCB92007002001
:1059600070B5044660794006000E6071002914D0BD
:1059700040F0010060712079012518B9FFF78EFC15
:1059800020602571A079002806D1A068002803D0E6
:105990008047002800D0A57170BD00202071A07143
:1059A00070BD00002DE9F843DFF8A080802140465B
:1059B000FBF77CFA0124264E002788B18DF80140C0
:1059C0007078012823D08DF802408DF8004030789F
:1059D000022801D00220307003246E461D4D2EE0B7
:1059E000FFF75CFC0546F0687168281A88420BD9FD
:1059F00080214046FBF75AFA18B18DF80140F56056
:105A0000DEE78DF80170FAE78DF80140D8E777708E
:105A10003078012807D030780028DDD18DF800706B
:105A20008DF80240D8E78DF800408DF80270D3E77A
:105A3000305D48B1002105EB0410FFF791FF641EB3
:105A4000E4B2F5D2BDE8F8830121F4E70008014093
:105A5000D0000020F0060020024800214170817033
:105A6000704700002101002003488078002801D001
:105A7000002070470120704721010020FCF7A4BEE0
:105A80000078002901D0C043C0B27047F0B4394D4E
:105A900039480427E9780068002969D037492C463D
:105AA00001264A782146C978491ECBB23349022AD9
:105AB00009780AD0072A08D0092A23D0012A3CD025
:105AC000062A3AD0C773F0BC7047012901D00229D9
:105AD000F9D16F78002FF6D16E700226401D8672C4
