:020000040800F2
:10000000D8050020050100085B170008EB11000867
:1000100059170008AD010008811B0008000000000E
:10002000000000000000000000000000E1190008CE
:10003000AF01000800000000BD190008E519000824
:100040001F0100081F0100081F0100081F01000810
:100050001F0100081F0100081F0100081F01000800
:100060001F0100081F0100081F0100081F010008F0
:100070001F0100081F0100081F0100081F010008E0
:100080001F0100081F0100081F0100081F010008D0
:100090001F0100081F0100081F010008B10100082E
:1000A0001F0100081F0100081F0100081F010008B0
:1000B0001F0100081F0100081F0100081F010008A0
:1000C0001F0100081F0100081F0100081F01000890
:1000D0001F0100081F0100081F0100081F01000880
:1000E0001F0100081F0100081F010008DFF810D0E1
:1000F00000F042F800480047491F0008AFF30080B5
:10010000D80500200648804706480047FEE7FEE77E
:10011000FEE7FEE7FEE7FEE7FEE7FEE7FEE7FEE7B7
:10012000631A0008ED000008D2B201E000F8012BCC
:10013000491EFBD270470022F6E710B513460A4667
:1001400004461946FFF7F0FF204610BD30B50B46B8
:10015000014600202022012409E021FA02F59D42F7
:1001600005D303FA02F5491B04FA02F52844151ECB
:10017000A2F10102F1DC30BD064C074D06E0E0685B
:1001800040F0010394E8070098471034AC42F6D3DE
:10019000FFF7B0FF642900088429000800F00F0170
:1001A000000900EB800001EB40007047FEE770475C
:1001B00010B5402000F054F8BDE81040802000F059
:1001C0004FB872B6FEE7000070B5044600F04EF975
:1001D0000546601C02D004480078044400F046F94B
:1001E000401BA042FAD370BDCC00002070B51A4E5F
:1001F00005464021304600F02FF9044620213046C4
:1002000000F02AF901221549402D03D0802D00D19C
:100210004A7070BD0B7954EA03054FF0000303D117
:100220004B7100B14A710A71012CF2D10C79012C89
:10023000EFD10028487901D038B10BE0012809D16D
:100240008868401E88600A7003E08868401C8860E7
:100250000B70CA700B7170BD00080140AC0000202B
:10026000044910B50A68024202D00860FFF7BEFFD9
:1002700010BD0000140401402DE9F84FDFF8B891DB
:10028000002409F1040A0AF1040B23460F270BF19D
:10029000040EC9E00125A5402A40AA427DD1674E3F
:1002A000D1F804C0ACEB0608B44532D014DCBCF184
:1002B000030F3AD009DCBCF1000F2AD0BCF1010FCA
:1002C0001CD0BCF1020F31D11DE0BCF1110F17D0D1
:1002D000BCF1120F2AD119E0B8F5881F19D006DC3D
:1002E000B8F5803F15D0B8F5801F1FD111E0B8F5E3
:1002F000001F0ED0B8F5041F18D10AE0CB6815E036
:10030000CB681B1D12E0CB6808330FE0CB680C33C1
:100310000CE08B682BB1012B4FF0080303D0456133
:1003200004E0042302E0056100E00023FF2A01D875
:10033000064601E000F104064FEA840501D9A5F163
:100340002005D6F8008007FA05FC28EA0C0803FA15
:1003500005F548EA0508C6F800804D68ED0062D54D
:10036000374DAE6946F00106AE61AD6924F0030673
:1003700005F001050095334D06EB050CDCF808503F
:10038000A607360F07FA06F825EA0805DFF8B88051
:10039000404503D14FF0000817E044E0DFF8AC809F
:1003A000404502D14FF001080FE0DFF8A48040453E
:1003B00002D14FF0020808E0DFF89880404502D1F2
:1003C0004FF0030801E04FF0040808FA06F848EA85
:1003D0000508CCF808804D68D9F80060ED034D465B
:1003E00001D5164300E096432E604D68DAF80060B0
:1003F000AD03554601D5164300E096432E604D6887
:10040000DBF80060ED025D4601D5164300E096433F
:100410002E604D68DEF80060AD02754601D51643CA
:1004200000E096432E60641C0D682A46E5407FF488
:1004300031AFBDE8F88F000000040140000011104A
:10044000001002400000014000080140000C014083
:1004500000100140001401408068084000D00120D5
:1004600070470AB1016170470904FBE701488068E1
:1004700070470000CC00002070B5040025D094F82F
:100480003D00002520B984F83C50204600F078FA61
:10049000242084F83D002068016821F001010160FA
:1004A0002068016841F4004101602068016821F47E
:1004B0000041016000F0BEFB4D4A6168914201D8E5
:1004C0004C4900E04C49884201D2012070BD4B49A3
:1004D0002368B0FBF1F15E6826F03F060E435E60D4
:1004E0006368934206D94FF4967359434FF47A7375
:1004F000B1FBF3F12368491C1E6A26F03F06314325
:1005000019626168914210D84900401EB0FBF1F2B7
:10051000521CC2F30B02042A01D2042022E0B0FBD9
:10052000F1F0401CC0F30B001CE0A268F2B301EB39
:10053000C10303EB0116431EB3FBF6F35B1C43F44C
:1005400080431B0549D092B301EBC10202EB0111BC
:10055000401EB0FBF1F0401CC0F30B0040F48040A3
:1005600040F400402168CA694CF6FF739A43104377
:10057000C861D4E9071001432068026822F0C00274
:1005800011430160D4E9030101432068826848F205
:10059000FF339A4311438160D4E905010843216880
:1005A000CA6822F0FF021043C86001E00EE016E0C6
:1005B0002068016841F0010101602564202084F871
:1005C0003D00256384F83E50002070BD01EB4106DC
:1005D000431EB3FBF6F35B1CB3E70120C2E701EB5C
:1005E0004101401EB0FBF1F0401CC0F30B00B7E727
:1005F000A086010080841E0000093D0040420F00DB
:100600002DE9FF4F83B00025DDE910799A46934626
:100610000446DDF848800095FFF728FF064694F869
:100620003D0020287CD119230122854920460096CF
:1006300000F0ECFE0028F5D194F83C0001286FD0C2
:10064000012084F83C0020680168C90703D10168D3
:1006500041F0010101602068016821F4006101603E
:10066000222084F83D00402084F83E002564676223
:10067000A4F82A90608D20857248E062CDE900865A
:1006800053465A462046049900F0C8FD00287DD103
:10069000208DDFF8B491202768B1012814D00228FA
:1006A000206801681ED041F48061016020684169C2
:1006B00080690090B6E02068416981690091016815
:1006C00041F400710160ADE02068016821F48061AF
:1006D000016072B62068416981690091016841F446
:1006E00000710AE041F40061016072B6206841695E
:1006F00081690091016821F48061016062B691E036
:10070000032868D801280CD0022843464FF0000285
:100710004946204600960FD000F078FEB0BB10E0AE
:100720008BE032464146204600F0EFFE70BB206869
:100730000069616A08706CE000F068FE30BB72B658
:1007400034E02068016821F48061016072B620689D
:100750000069616A0870606A401C6062208D401EFA
:100760002085608D401E6085384846F2A8110068DB
:10077000B0FBF1F0C0EBC00000EB80000090401E29
:10078000009008D020684069C04300E029E040079D
:100790000CD50098F3E744F8305F6773A5732069C0
:1007A00040F02000206162B625731AE020680168DD
:1007B00041F40071016020680069616A0870606A34
:1007C000401C6062218D491E2185618D491E618515
:1007D00062B621681BE032464146204600F095FE95
:1007E00018B1012007B0BDE8F08F20680069616A88
:1007F0000870606A401C6062218D491E2185618DF0
:10080000491E618521684A69D24352070AD40969A1
:100810000170606A401C6062208D401E2085608DE2
:10082000401E6085208D00287FF46AAF84F83D70FB
:1008300084F83E5084F83C50D4E70220D2E7000010
:10084000020010000000FFFF04000100D80000209B
:100850002DE9FF4F83B09A46DDE911979346044690
:10086000DDF84080FFF702FE054694F83D002028A1
:100870007FD11923012240492046009500F0C6FD92
:10088000002876D194F83C00012872D0012084F829
:100890003C0020680168C90703D1016841F00101EB
:1008A00001602068016821F400610160212084F862
:1008B0003D00402084F83E0000262664C4F82480D1
:1008C000A4F82A90608D20852C48E062CDE900755F
:1008D00053465A462046049900F01EFD70B930E098
:1008E0002A463946204600F043FE58B1206C0428C1
:1008F00004D12068016841F400710160012007B053
:10090000BDE8F08F606A216800780861606A401C69
:100910006062218D491E89B22185628D521E6285D9
:1009200022685369DB435B070BD469B1007810611F
:10093000606A401C6062208D401E2085608D401ED4
:100940006085208D0028CBD12A463946204600F00C
:1009500037FD0028CAD154F83D0B016841F40071FD
:100960000160202004F81E09E67766770020C6E7BC
:10097000FFE70220C3E70000020010000000FFFFB5
:1009800010B586B000210091019102910391006899
:100990000F4988421AD10F4CA06940F00800A061AD
:1009A000A069694600F008000490C0200090122061
:1009B0000190032003900848FFF75EFCE06940F4D3
:1009C0000010E061E06900F40010049006B010BD72
:1009D0000054004000100240000C014002488168B1
:1009E0000278114481607047CC000020074810B5A0
:1009F000016841F010010160032000F073F80F203E
:100A000000F006F800F024F8002010BD002002409D
:100A100070B50D4D04464FF47A712878B1FBF0F0B3
:100A20000A490968B1FBF0F000F0EAFA48B9102C65
:100A300007D200222146501E00F034F800206C60DE
:100A400070BD012070BD0000CC000020D800002047
:100A50000B4808B5816941F001018161816901F0AC
:100A600001010091C16941F08051C161C06900F08C
:100A7000805000900348416821F0E061416008BD6A
:100A80000010024000000140002809DB00F01F02B6
:100A9000012191404009800000F1E020C0F80011E0
:100AA00070470000F0B40E4B1B680C46C3F30223E2
:100AB000C3F10705042D00D90425191D072901D20A
:100AC000002300E0DB1E012606FA05F1491E214045
:100AD00099409E40761E16403143F0BC01F06EB83E
:100AE0000CED00E0064900F0070208684FF6FF032E
:100AF000184040EA0220034A104308607047000093
:100B00000CED00E00000FA052DE9F0470F46050066
:100B100061D0434E306800F00700B84209D2306817
:100B200020F0070038433060306800F00700B8421A
:100B300051D128683B4C810712D5400703D5606826
:100B400040F4E06060602878000703D5606840F4F6
:100B5000605060606068A96820F0F0000843606041
:100B60002878C00728D06868012810D0216802289A
:100B700010D0890700292EDA616821F003010143B2
:100B80006160FFF773FC804641F288390DE021680F
:100B90008903EFE78901EDE7FFF768FCA0EB0801A7
:100BA000494502D90320BDE8F0876068696800F014
:100BB0000C00B0EB810FEFD1306800F00700B842B5
:100BC0000BD9306820F0070038433060306800F0FF
:100BD0000700B84201D00120E5E72878400705D595
:100BE0006068E96820F4E0600843606028780007E6
:100BF00006D56068296920F4605040EAC100606051
:100C000000F038F86168084AC1F30311515CC8402C
:100C10000649086006480068FFF7FAFE0020C2E7B0
:100C200000200240001002404C290008D80000209B
:100C3000D00000200448054900684968044AC1F30F
:100C40000221515CC8407047D800002000100240CB
:100C50005C2900080448054900684968044AC1F352
:100C6000C221515CC8407047D800002000100240EB
:100C70005C29000812A185B00FC98DE80F0014A0EF
:100C8000144A006804905168134801F00C03042BC7
:100C900010D0082B0ED1C1F38343C9031DF8030004
:100CA0000AD5516804AAC1F34041515C0A4A504335
:100CB000B0FBF1F005B0704708494843FAE700007F
:100CC00002030405060708090A0B0C0D0E0F10108D
:100CD000010200000010024000127A0000093D00ED
:100CE0002DE9F84F040070D02078C04DC00749D0DE
:100CF0006868C0F38100012807D06868C0F38100EC
:100D0000022809D16868C00306D52868800339D550
:100D100060680028E7D035E06068B0F5803F0BD010
:100D200010B1B0F5A02F11D0286820F480302860D1
:100D3000286820F4802002E0286840F48030286091
:100D4000606890B1FFF792FB06460AE0286840F41D
:100D500080202860F0E700BFFFF788FB801B642835
:100D600073D828688003F7D50CE0FFF77FFB0646B1
:100D700005E000BFFFF77AFB801B6428F0D82868E5
:100D80008003F7D420789A4E80074FF001094FF086
:100D9000000839D5686810F00C0F07D06868C0F3F8
:100DA0008100022809D16868C00306D4286880073A
:100DB00014D52069012808D110E02069B0B1C6F827
:100DC0000090FFF753FB074605E00AE1FFF74EFBF3
:100DD000C01B0228C4D828688007F7D52868616935
:100DE00020F0F80040EAC10028600DE0C6F800805D
:100DF000FFF73CFB074604E0FFF738FBC01B022867
:100E000023D828688007F7D4207800072CD57948A4
:100E1000A169D9B1C0F80090FFF728FB074604E0AC
:100E2000FFF724FBC01B02280FD8686A8007F7D59C
:100E300071484FF4FA510068B0FBF1F0009000BF28
:100E40000098411E0091FAD20EE080E0C0F80080C8
:100E5000FFF70CFB074604E0FFF708FBC01B022866
:100E600075D8686A8007F7D42078400760D5E869AC
:100E70000027C00008D4E86940F08050E861E869C4
:100E8000012700F0805000905C480168C90513D428
:100E90000168834641F480710160FFF7E7FA8246FA
:100EA00006E000BFFFF7E2FAA0EB0A0064284ED884
:100EB000DBF80000C005F5D5E06801280AD008B1CC
:100EC000052813D0286A20F001002862286A20F043
:100ED000040002E0286A40F001002862E06841F264
:100EE000883B98B1FFF7C2FA82460BE0286A40F0CF
:100EF00004002862EEE700BFFFF7B8FAA0EB0A0192
:100F000059455AD8286A8007F6D50CE0FFF7AEFAA3
:100F1000824605E0FFF7AAFAA0EB0A0159454CD832
:100F2000286A8007F6D41FB1E86920F08050E86194
:100F3000E06988B36968C1F38101022944D00228BD
:100F4000C6F8608004D0FFF791FA044638E034E038
:100F5000FFF78CFA074604E0FFF788FAC01B022867
:100F60002BD828688001F7D4206AB0F5803F05D1DE
:100F70006868A16820F4003008436860D4E908017B
:100F80000843696821F4741108436860C6F86090EA
:100F9000FFF76CFA044606E025E000BFFFF766FAAB
:100FA000001B022809D828688001F7D51BE000BF84
:100FB000FFF75CFA001B022802D90320BDE8F88F76
:100FC00028688001F4D40EE00128F7D06868226A0E
:100FD00000F48031914204D1616A00F470108842BB
:100FE00001D00120EAE70020E8E7000000100240FD
:100FF0000000424280044242D800002000700040BD
:1010000010B5401EB0F1807F01D3012010BD4FF01C
:10101000E02460610F21601700F0D0FD0020A06186
:1010200007202061002010BD70B5040004D094F8A2
:101030003D00002510B106E0012070BD84F83C5051
:10104000204600F023F8242084F83D002068C16881
:1010500021F40051C160204600F004FD20680169C0
:1010600021F4904101612068416921F02A01416128
:101070002068C16841F40051C1602564202084F8D3
:101080003D0084F83E00002070BD000070B586B0C1
:1010900000240094019402940394234E036823498E
:1010A00002200322224DB34219D18B6943F48043BD
:1010B0008B618B6903F4804304938B6943F00403D1
:1010C0008B618969039201F0040104910102CDE969
:1010D000001069462846FFF7CFF828151BE0154E8B
:1010E000B3421FD1CB6943F40033CB61CB6903F426
:1010F000003304938B6943F004038B618969039285
:1011000001F0040104910421CDE90010694628464C
:10111000FFF7B2F80820CDE900046946284602949A
:10112000FFF7AAF806B070BD003801400010024079
:1011300000080140004400402DE9F843044690F8BF
:101140003D001F4616460D4620284CD1C5B1BEB104
:1011500094F83C00012846D0012084F83C004FF070
:101160000008C4F84080212084F83D00FFF77EF994
:10117000A6848146E684A068B0F5805F03D004E0D1
:101180000120BDE8F883206928B12E465FF00005F4
:1011900084F83C800EE00026FAE78021204600F02B
:1011A000BDFCA0B9AEB116F8010B21684860E08C17
:1011B000401EE084E08C4B464FF000020097002870
:1011C000EBD14FF04001204600F0A8FC30B10320E5
:1011D000D7E735F8020BC0F30800E6E7202084F8D3
:1011E0003D000020CDE70220CBE7FEE701684A6919
:1011F000D24352050FD46FF480624A61002140F857
:10120000301F202242738173026942F0040202619E
:101210000173012070470020704700002DE9F84F4E
:101220000446006889460B9D01689846174641F4BC
:10123000806101602068016841F48071016000955F
:101240004FF0011B0022594620460A9B00F0DEF8B1
:101250004FF4007A40B120680068C00501D5C4F899
:1012600040A00320BDE8F88F216809F0FE00086166
:101270002B46284920460A9A00F0FCF8F0BB20686B
:101280004169806900902A4620460A9900F070F969
:1012900040B1206C04283AD12068016841F4007103
:1012A000016034E0FEB2B8F1010F09D02168380ABC
:1012B00008612A4620460A9900F05AF90028E8D128
:1012C000206806612A4620460A9900F051F9002854
:1012D000DFD12068016841F480710160009500222F
:1012E000594620460A9B00F091F80028B3D12168A6
:1012F00009F0FF0040F00100086100E007E02B4624
:10130000044920460A9A00F0B5F80028AAD0012026
:10131000A8E70000020001002DE9F8430446006838
:101320000D46DDE9089701689846164641F480713C
:1013300001604B4600224FF001112046009700F05B
:1013400065F848B120680068C00502D54FF4007008
:1013500020640320BDE8F883216805F0FE000861E1
:101360003B464A461549204600F084F888B9206873
:101370004169806900903A464946204600F0F8F8F5
:1013800048B1206C042804D12068016841F4007140
:1013900001600120DEE7F5B2B8F1010F09D0216844
:1013A000300A08613A464946204600F0E1F8002834
:1013B000E7D1206805610020CCE7000002000100B1
:1013C00070B516460D4604460DE02046FFF70EFFA9
:1013D00008B1012070BD681C05D0FFF747F8801BDD
:1013E000A84207D835B120684069C0434007ECD413
:1013F000002070BD002044F8300F20216173A073DD
:10140000216941F0200121612073E2E72DE9F047D5
:101410001E4690460D460446C1F30747DDF820906E
:1014200008E0701C06D0FFF721F8A0EB0900B042DD
:101430000FD876B12068012F18D0806925EA000006
:101440000004000C14D000214145EAD00020BDE882
:10145000F087002044F8300F20216173A0732169C8
:1014600041F02001216120730120F0E74069E5E7A8
:101470000121E9E72DE9F0479A4691460E460446D8
:1014800000254FF02008C1F3074725E02068406998
:10149000C043400514D42068016841F40071016024
:1014A00021686FF480604861256384F83D8084F88A
:1014B0003E50206C40F00400206484F83C501FE053
:1014C000B9F1FF3F08D0FEF7D1FFA0EB0A01494573
:1014D0000CD8B9F1000F09D02068012F13D0806912
:1014E00026EA00000004000C0BD0CFE744F8305F80
:1014F00084F80D80A573206940F0200020612573D9
:101500000120BDE8F0874069EAE72DE9F0410025B8
:1015100090460E460446202717E04069C043C006A7
:101520000CD454F8301B6FF01000486144F8105987
:101530006777A577206A2062257717E0FEF796FF88
:10154000A0EB0800B04208D83EB120684169C94309
:101550004906E2D40020BDE8F08144F8305F6773AB
:10156000A573206940F02000206125730120F2E777
:1015700070B516460D4604460DE02046FFF736FED0
:1015800008B1012070BD681C05D0FEF76FFF801BFD
:10159000A84207D835B120684069C0430006ECD4A2
:1015A000002070BD002044F8300F20216173A0732B
:1015B000216941F0200121612073E2E703B583B086
:1015C0004FF48073012204A98DE80E0013460246F1
:1015D00078210348FFF73CF905B0012000BD000069
:1015E000F8000020F0B585B000242A48009401944A
:1015F00002940394816941F020018161816901F0C5
:1016000020010491816941F004018161816901F047
:1016100004010491816941F00801816180691E4ED5
:1016200000F008004FF4005504900022294630468F
:10163000FEF717FF2020CDE90004184F6946384611
:101640000294FEF719FE402000901548CDE90104F0
:1016500069463846FEF710FE802000901148CDE91B
:10166000010469463846FEF707FE01200095CDE9E2
:1016700001040220039069463046FEF7FDFD00227A
:1016800011461720FFF70EFA1720FFF7FDF905B0F6
:10169000F0BD000000100240000C014000080140B5
:1016A00000003110000021100D4810B50B490160F9
:1016B0000C49416000214FF480428160C0E903126F
:1016C00041618161C1610162FEF7D6FE002803D04D
:1016D000BDE81040FEF775BD10BD0000005400408D
:1016E000F8000020A08601000C4810B50A490160EE
:1016F0004FF4E1314160002181600C22C160C0E9FA
:1017000004128161C161FFF78FFC002803D0BDE89E
:101710001040FEF756BD10BD003801404C010020BE
:101720000C4810B50A4901604FF416514160002180
:1017300081600C22C160C0E904128161C161FFF7C0
:1017400073FC002803D0BDE81040FEF73ABD10BD81
:101750000044004090010020FEE7FEE770B5064619
:101760005FF0000404F1B000C0B200F00AFA0020FB
:1017700000F007FA102000F004FA0025304600F0CF
:1017800004FA6D1CEDB2802DF8D3641CE4B2082C71
:10179000E8D370BD70B5364D4FF400540022214699
:1017A0002846FEF75EFE6420FEF70EFD012221466C
:1017B0002846FEF756FEC820FEF706FDC820FEF7B5
:1017C00003FDAE2000F0DDF9202000F0DAF9102052
:1017D00000F0D7F9B02000F0D4F9C82000F0D1F91A
:1017E000002000F0CEF9102000F0CBF9402000F0EE
:1017F000C8F9812000F0C5F9FF2000F0C2F9A1204E
:1018000000F0BFF9A62000F0BCF9A82000F0B9F95B
:101810003F2000F0B6F9A42000F0B3F9D32000F087
:10182000B0F9002000F0ADF9D52000F0AAF9F020C1
:1018300000F0A7F9D92000F0A4F9222000F0A1F9C6
:10184000DA2000F09EF9122000F09BF9DB2000F076
:1018500098F9202000F095F98D2000F092F91420DD
:1018600000F08FF9BDE87040AF2000F08AB90000A9
:10187000000C014010B50446B031C8B200F081F947
:10188000102040EA141000F07CF904F00F00BDE8CD
:10189000104040F0010000F074B900002DE9F04163
:1018A0000F46804600255401FFF7E4FF0C4E305DE3
:1018B00000F06BF96D1CEDB2641C102DF7D37F1C8A
:1018C000F9B24046FFF7D6FF0025305D00F05DF924
:1018D0006D1CEDB2641C102DF7D3BDE8F081000043
:1018E0000C0000202DE9F047002591468A46044669
:1018F000012B22D0DFF8BC80022B24D155E0203808
:10190000C7B27E2C04D90AF10100002400F0FF0ABE
:1019100051462046FFF7AEFF07EB4700002608EBD5
:101920004007B85D00F031F9761CF6B2062EF8D308
:10193000A41D6D1CE4B2EDB201E0DFF87C8019F863
:1019400005000028DBD1BDE8F0872038C7B2782C2D
:1019500004D90AF10100002400F0FF0A5146204694
:10196000FFF788FF5FF0000606EB071118F801008B
:1019700000F00BF9761CF6B2082EF5D30AF101003F
:10198000C1B22046FFF776FF5FF0000606EB0711B5
:1019900001EB0800007A00F0F8F8761CF6B2082E89
:1019A000F4D308346D1CE4B2EDB219F80500002838
:1019B000CBD1C8E75C230008342100087047000041
:1019C0000EB54FF480730092CDE901130246012356
:1019D000A3210248FEF714FE01200EBDF8000020EE
:1019E0007047000010B5FEF7F9FF044800780028A2
:1019F00003D003480178491C017010BDAD000020E0
:101A0000AE00002030B58FB028216846FEF793FB6A
:101A100014210AA8FEF78FFB01210804CDE900106C
:101A20000024029402250491CDE907504FF4E01000
:101A300009906846FFF754F908B172B6FEE70F2027
:101A4000CDE90A054FF48060CDE90C4002210AA8D7
:101A50000E94FFF759F8002801D072B6FEE70FB0D8
:101A600030BD704770B5044600680169E26821F432
:101A70004051114301612169A0680843616908432D
:101A80002168CA6841F20C639A430243CA60206825
:101A90004169A26921F44071114341611E492068E6
:101AA000884202D1FFF7D6F801E0FFF7C3F800EB58
:101AB000C00101EB0012606864218000B2FBF0F30A
:101AC000B3FBF1F36FF018067343B2FBF0F5B2FB12
:101AD000F0F605EB8305322303EB0515B5FBF1F5B5
:101AE000B6FBF1F605F0F00505EB0615B2FBF0F6D6
:101AF000B2FBF0F0B0FBF1F06FF01802504306EBD0
:101B0000800003EB0010B0FBF1F0216800F00F0043
:101B10002844886070BD0000003801402DE9F04184
:101B2000984617460E460446069D1DE0681C1BD0CD
:101B30002DB1FEF79BFCA0EB0800A84214D9206849
:101B4000C16821F4D071C1602068416921F00101B0
:101B50004161202084F83D0084F83E00002084F894
:101B60003C000320BDE8F0812068006836EA0000F0
:101B700004D00020B842D9D00020F3E70120F9E7D3
:101B8000FEE701460020FFF719BD01464020FFF7A0
:101B900015BD00000FB4084B10B504A902AA0398A4
:101BA00000F02CF8044602A9002000F0C8F92046F5
:101BB00010BC5DF814FB00003F1F00080907090E68
:101BC000002804DB00F1E02080F80014704700F0EA
:101BD0000F0000F1E02080F8141D704702E008C8F3
:101BE000121F08C1002AFAD170477047002001E097
:101BF00001C1121F002AFBD1704700002DE9FF4FE1
:101C00008BB088460546002606E025280BD0DDE986
:101C10000D1290476D1C761C28780028F5D10FB066
:101C20003046BDE8F08F0024A146A2460122AE490D
:101C300000E0044315F8013F203B02FA03F008429C
:101C4000F7D128782A2810D06FF02F022878A0F139
:101C50003001092915D809EB890102EB410144F053
:101C6000020400EB01096D1CF0E758F8041B5FEA61
:101C7000010903D544F40054C9F1000944F00204F9
:101C80006D1C28782E2817D115F8010F44F0040494
:101C90002A280ED06FF02F022878A0F130010929F0
:101CA0000AD80AEB8A0102EB410100EB010A6D1C24
:101CB000F2E758F804AB6D1C28786C280FD006DCCE
:101CC0004C2817D068280DD06A2814D104E0742855
:101CD00010D07A280FD10DE044F400140AE044F447
:101CE000801401E044F440146978814202D104F583
:101CF00080146D1C6D1C2878692865D006DC0028CE
:101D00008DD0632827D0642806D15DE06E2808D0E6
:101D100073282AD0752877D0DDE90D129047761CFC
:101D2000E0E0C4F30250022809D003280DD0D8F80F
:101D3000001004280DD00E6008F10408D2E0D8F895
:101D40000010F217C1E90062F6E7D8F800100E8023
:101D5000F2E70E70F0E718F8041B8DF80010002071
:101D60008DF80100EB46012003E058F804BB4FF06A
:101D7000FF3061074FF0000701D40AE07F1C574590
:101D80000DDA8742FADB1BF807100029F6D106E0CE
:101D90007F1C8742FCDB1BF807100029F8D1DDE926
:101DA0000D23A9EB07008146214600F0B1F830442D
:101DB000C61904E0DDE90D121BF8010B90477F1EE8
:101DC000F8D22146484688E058F8040BC4F3025183
:101DD0004FF00A0B032900D100B2042900D140B210
:101DE000002802DA40422D2102E0210505D52B21F1
:101DF0008DF82410012104E006E0E10710D0202135
:101E0000F6E708AF089113E058F8040BC4F3025149
:101E10004FF00A0B032900D180B2042900D1C0B2CF
:101E20000021EEE75946FEF791F9303107F8011D20
:101E30000028F7D1ADEB070000F1200B600702D5B9
:101E400024F4803401E04FF0010ADA4502DDAAEB08
:101E50000B0000E00020824600EB0B0108980144D3
:101E6000A9EB01000A90E00306D4DDE90D23214629
:101E70000A9800F04DF806444FF0000908E009A95F
:101E800011F80900DDE90D12904709F10109761CEE
:101E900008998945F3DBE0030CD5DDE90D232146E4
:101EA0000A9800F035F8064404E0DDE90D12302010
:101EB0009047761CBAF10001AAF1010AF5DC05E0B1
:101EC000DDE90D1217F8010B9047761CBBF10001FC
:101ED000ABF1010BF4DC0A982146DDE90D2300F09B
:101EE00005F806446D1C97E6092801002DE9F0412C
:101EF000044600251E461746880404D405E03946EA
:101F00002020B0476D1C641EF9D52846BDE8F0813D
:101F10002DE9F041044600251E469046C80301D530
:101F2000302700E02027880404D505E041463846E4
:101F3000B0476D1C641EF9D52846BDE8F0810A68DB
:101F4000531C0B601070704708B5FEF74FFDFFF78C
:101F500059FDFFF747FBFFF7C7FBFFF7A5FBFFF7AF
:101F6000DFFB00F0D9F8404D404C2878A071FFF716
:101F700011FC0026FF20FFF7F1FB4FF4FA6738460B
:101F8000FEF722F90020FFF7E9FB3846FEF71CF9BF
:101F9000FF23052204F10C013548FFF7CDF8C820D6
:101FA000FEF712F9FF23052204F10C013048FFF778
:101FB000C3F81627B04607EB0610F2B2C0B20021F4
:101FC000FFF76CFC761C052EF5DB2A4E20780228E4
:101FD00001D00220207080213046FEF73DFAA17822
:101FE0000F290FD970B9C4F80880204984F80280FD
:101FF00084F80180FF23062217311D48FFF79CF863
:1020000000F08AF8E078012808D1184984F80380A4
:10201000FF23062211311648FFF78EF800F07CF8F6
:102020002878A1798842D1D0E87800902B796A7914
:1020300011A11548FFF7AEFD0223134A032100202A
:10204000FFF750FC287800906B78AA780FA10E4813
:10205000FFF7A0FD02230C4A05210020FFF742FCF8
:102060002878A071B2E7000006000020AC00002034
:102070009001002000080140323025642F253032C5
:10208000642F253032640000DC00002025303264EB
:102090003A253032643A2530326400001CB56A4675
:1020A00007210220FFF78CFC9DF80000194C00F07E
:1020B0007F0020709DF8011001F07F0161709DF894
:1020C000021001F03F01A1709DF8031001F03F01E3
:1020D000E1709DF8051001F01F0121719DF80610B7
:1020E0006171FEF75BF820706078FEF757F860705A
:1020F000A078FEF753F8A070E078FEF74FF8E07094
:102100002079FEF74BF820716079FEF747F860718F
:102110001CBD00000600002010B5FFF7BFFF0448FB
:102120000078002803D1BDE81040FFF7B7BF10BD0D
:10213000060000200000000000000000002F00004A
:1021400000000700070000147F147F1400242A7F7A
:102150002A120062640813230036495522500000F9
:102160000503000000001C224100000041221C0069
:102170000014083E08140008083E0808000000A0EB
:1021800060000008080808080000606000000020E7
:1021900010080402003E5149453E0000427F4000C5
:1021A000004261514946002141454B31001814124B
:1021B0007F10002745454539003C4A494930000118
:1021C0007109050300364949493600064949291E67
:1021D00000003636000000005636000000081422C9
:1021E00041000014141414140000412214080002C9
:1021F0000151090600324959513E007C1211127CEE
:10220000007F49494936003E41414122007F41411A
:10221000221C007F49494941007F09090901003E0C
:102220004149497A007F0808087F0000417F41004A
:10223000002040413F01007F08142241007F4040C0
:102240004040007F020C027F007F0408107F003EA8
:102250004141413E007F09090906003E4151215E8E
:10226000007F091929460046494949310001017F8B
:102270000101003F4040403F001F2040201F003F21
:102280004038403F006314081463000708700807D3
:1022900000615149454300007F41410000552A55E6
:1022A0002A55000041417F00000402010204004061
:1022B0004040404000000102040000205454547883
:1022C000007F4844443800384444442000384444A3
:1022D000487F00385454541800087E090102001841
:1022E000A4A4A47C007F080404780000447D40007E
:1022F000004080847D00007F102844000000417F62
:102300004000007C04180478007C0804047800383D
:102310004444443800FC242424180018242418FCC5
:10232000007C0804040800485454542000043F442E
:102330004020003C4040207C001C2040201C003CF1
:102340004030403C004428102844001CA0A0A07C41
:10235000004464544C441414141414140000000079
:10236000000000000000000000000000000000F875
:1023700000000000000000333000000000100C06D8
:10238000100C0600000000000000000040C0784073
:10239000C0784000043F04043F040400007088FC3F
:1023A00008300000001820FF211E0000F008F00097
:1023B000E018000000211C031E211E0000F0088808
:1023C000700000001E2123241927211010160E0072
:1023D000000000000000000000000000000000E01D
:1023E0001804020000000007182040000002041832
:1023F000E00000000040201807000000404080F08E
:10240000804040000202010F01020200000000F0C3
:10241000000000000101011F010101000000000097
:102420000000000080B0700000000000000000000C
:102430000000000000010101010101010000000095
:10244000000000000030300000000000000000002C
:1024500080601804006018060100000000E0100809
:102460000810E000000F102020100F00001010F8DE
:10247000000000000020203F20200000007008081D
:10248000088870000030282422213000003008889D
:10249000884830000018202020110E000000C020C5
:1024A00010F8000000070424243F240000F80888E6
:1024B000880808000019212020110E0000E0108873
:1024C00088180000000F112020110E0000380808A5
:1024D000C83808000000003F0000000000708808B5
:1024E00008887000001C222121221C0000E0100836
:1024F0000810E0000000312222110F00000000C08F
:10250000C00000000000003030000000000000802B
:10251000000000000000806000000000000080401B
:102520002010080000010204081020004040404034
:102530004040400004040404040404000008102087
:1025400040800000002010080402010000704808CC
:102550000808F0000000003036010000C030C82834
:10256000E810E0000718272423140B000000C038EF
:10257000E0000000203C23020227382008F8888869
:1025800088700000203F202020110E00C030080875
:1025900008083800071820202010080008F808084C
:1025A0000810E000203F202020100F0008F8888845
:1025B000E8081000203F20202320180008F8888811
:1025C000E8081000203F200003000000C030080889
:1025D0000838000007182020221E020008F8080012
:1025E0000008F808203F210101213F20000808F8D9
:1025F000080800000020203F2020000000000808FC
:10260000F8080800C08080807F00000008F888C0BB
:1026100028180800203F20012638200008F808006C
:1026200000000000203F20202020300008F8F800A3
:10263000F8F80800203F003F003F200008F830C0B5
:102640000008F808203F200007183F00E0100808A5
:102650000810E0000F10202020100F0008F80808D4
:102660000808F000203F210101010000E0100808E7
:102670000810E0000F18242438504F0008F888880C
:1026800088887000203F2000030C302000708808EC
:10269000080838000038202121221C00180808F8FA
:1026A000080818000000203F2000000008F808007B
:1026B0000008F808001F202020201F00087888004C
:1026C00000C83808000007380E010000F80800F8BC
:1026D0000008F800033C0700073C03000818688066
:1026E0008068180820302C03032C30200838C800DC
:1026F000C83808000000203F20000000100808082B
:10270000C83808002038262120201800000000FECC
:10271000020202000000007F40404000000C30C078
:1027200000000000000000010638C00000020202A4
:10273000FE000000004040407F0000000000040256
:102740000202040000000000000000000000000081
:102750000000000080808080808080800002020471
:102760000000000000000000000000000000808069
:10277000808000000019242222223F2008F80080D7
:1027800080000000003F112020110E00000000809A
:1027900080800000000E1120202011000000008029
:1027A0008088F800000E112020103F20000080805B
:1027B00080800000001F222222221300008080F06F
:1027C000888888180020203F20200000000080809A
:1027D00080808000006B94949493600008F80080DF
:1027E00080800000203F210000203F20008098983A
:1027F000000000000020203F20200000000000809A
:102800009898000000C08080807F000008F80000D9
:1028100080808000203F24022D302000000808F82E
:10282000000000000020203F2020000080808080E9
:1028300080808000203F20003F20003F808000807B
:1028400080800000203F210000203F200000808089
:1028500080800000001F202020201F00808000803A
:102860008000000080FFA12020110E0000000080E9
:1028700080808000000E112020A0FF8080808000DA
:102880008080800020203F21200001000000808007
:10289000808080000033242424241900008080E0FC
:1028A000808000000000001F2020000080800000C9
:1028B00000808000001F202020103F2080808000AA
:1028C0000080808000010E300806010080800080BA
:1028D000008080800F300C030C300F0000808000DF
:1028E000808080000020312E0E312000808080000A
:1028F0000080808080818E701806010000808080BA
:10290000808080000021302C222130000000000057
:10291000807C020200000000003F404000000000F8
:10292000FF00000000000000FF0000000002027C29
:10293000800000000040403F000000000006010150
:10294000020204040000000000000000000000007B
:10295000000000000102030406070809000000004F
:10296000010203048429000800000020DC000000AC
:10297000DC1B0008602A0008DC000020FC040000CA
:10298000EC1B000822061921560000000000000080
:10299000101010FF10105020D8171010F010100059
:1029A000007F2121217F80402116081621408000D0
:1029B00004047454545454FF545454547404040080
:1029C000040415151555957F151515151F040400DC
:1029D0000000FE92929292FE92929292FE0000006D
:1029E000404044444444447F4444444444404000C0
:1029F00000F80C0B0808F840308F080808F80000B1
:102A0000007F212121217F0000004380403F000002
:102A100004047454545454FF54545454740404001F
:102A2000040415151555957F151515151F0404007B
:102A3000020000000000000000000000AA13011EB8
:102A4000DCAA0702000EC1AA0702000FC2000000A4
:102A50000100000010000000000000000024F4004D
:04000005080000ED02
:00000001FF
